{
	"contracts/StorageFactory.sol": {
		"StorageFactory": {
			"abi": [
				{
					"inputs": [],
					"name": "createSimpleStorageContract",
					"outputs": [],
					"stateMutability": "nonpayable",
					"type": "function"
				},
				{
					"inputs": [
						{
							"internalType": "uint256",
							"name": "index",
							"type": "uint256"
						}
					],
					"name": "sfGet",
					"outputs": [
						{
							"internalType": "string",
							"name": "",
							"type": "string"
						}
					],
					"stateMutability": "view",
					"type": "function"
				},
				{
					"inputs": [
						{
							"internalType": "uint256",
							"name": "number",
							"type": "uint256"
						},
						{
							"internalType": "string",
							"name": "_name",
							"type": "string"
						},
						{
							"internalType": "uint256",
							"name": "index",
							"type": "uint256"
						}
					],
					"name": "sfStorage",
					"outputs": [],
					"stateMutability": "nonpayable",
					"type": "function"
				},
				{
					"inputs": [
						{
							"internalType": "uint256",
							"name": "",
							"type": "uint256"
						}
					],
					"name": "simpleStorageArray",
					"outputs": [
						{
							"internalType": "contract SimpleStorage",
							"name": "",
							"type": "address"
						}
					],
					"stateMutability": "view",
					"type": "function"
				}
			],
			"devdoc": {
				"kind": "dev",
				"methods": {},
				"version": 1
			},
			"evm": {
				"assembly": "    /* \"contracts/StorageFactory.sol\":88:724  contract StorageFactory {... */\n  mstore(0x40, 0x80)\n  callvalue\n  dup1\n  iszero\n  tag_1\n  jumpi\n  0x00\n  dup1\n  revert\ntag_1:\n  pop\n  dataSize(sub_0)\n  dup1\n  dataOffset(sub_0)\n  0x00\n  codecopy\n  0x00\n  return\nstop\n\nsub_0: assembly {\n        /* \"contracts/StorageFactory.sol\":88:724  contract StorageFactory {... */\n      mstore(0x40, 0x80)\n      callvalue\n      dup1\n      iszero\n      tag_1\n      jumpi\n      0x00\n      dup1\n      revert\n    tag_1:\n      pop\n      jumpi(tag_2, lt(calldatasize, 0x04))\n      shr(0xe0, calldataload(0x00))\n      dup1\n      0x1dda6541\n      eq\n      tag_3\n      jumpi\n      dup1\n      0x64591bf1\n      eq\n      tag_4\n      jumpi\n      dup1\n      0x79fa1718\n      eq\n      tag_5\n      jumpi\n      dup1\n      0xc5f19c20\n      eq\n      tag_6\n      jumpi\n    tag_2:\n      0x00\n      dup1\n      revert\n        /* \"contracts/StorageFactory.sol\":167:325  function createSimpleStorageContract() public {... */\n    tag_3:\n      tag_7\n      tag_8\n      jump\t// in\n    tag_7:\n      stop\n        /* \"contracts/StorageFactory.sol\":118:160  SimpleStorage [] public simpleStorageArray */\n    tag_4:\n      tag_9\n      0x04\n      dup1\n      calldatasize\n      sub\n      dup2\n      add\n      swap1\n      tag_10\n      swap2\n      swap1\n      tag_11\n      jump\t// in\n    tag_10:\n      tag_12\n      jump\t// in\n    tag_9:\n      mload(0x40)\n      tag_13\n      swap2\n      swap1\n      tag_14\n      jump\t// in\n    tag_13:\n      mload(0x40)\n      dup1\n      swap2\n      sub\n      swap1\n      return\n        /* \"contracts/StorageFactory.sol\":331:531  function sfStorage(uint256 number, string calldata _name, uint256 index) public {... */\n    tag_5:\n      tag_15\n      0x04\n      dup1\n      calldatasize\n      sub\n      dup2\n      add\n      swap1\n      tag_16\n      swap2\n      swap1\n      tag_17\n      jump\t// in\n    tag_16:\n      tag_18\n      jump\t// in\n    tag_15:\n      stop\n        /* \"contracts/StorageFactory.sol\":537:721  function sfGet(uint256 index) public view returns (string memory){... */\n    tag_6:\n      tag_19\n      0x04\n      dup1\n      calldatasize\n      sub\n      dup2\n      add\n      swap1\n      tag_20\n      swap2\n      swap1\n      tag_11\n      jump\t// in\n    tag_20:\n      tag_21\n      jump\t// in\n    tag_19:\n      mload(0x40)\n      tag_22\n      swap2\n      swap1\n      tag_23\n      jump\t// in\n    tag_22:\n      mload(0x40)\n      dup1\n      swap2\n      sub\n      swap1\n      return\n        /* \"contracts/StorageFactory.sol\":167:325  function createSimpleStorageContract() public {... */\n    tag_8:\n        /* \"contracts/StorageFactory.sol\":222:249  SimpleStorage simpleStorage */\n      0x00\n        /* \"contracts/StorageFactory.sol\":252:271  new SimpleStorage() */\n      mload(0x40)\n      tag_25\n      swap1\n      tag_26\n      jump\t// in\n    tag_25:\n      mload(0x40)\n      dup1\n      swap2\n      sub\n      swap1\n      0x00\n      create\n      dup1\n      iszero\n      dup1\n      iszero\n      tag_27\n      jumpi\n      returndatasize\n      0x00\n      dup1\n      returndatacopy\n      revert(0x00, returndatasize)\n    tag_27:\n      pop\n        /* \"contracts/StorageFactory.sol\":222:271  SimpleStorage simpleStorage = new SimpleStorage() */\n      swap1\n      pop\n        /* \"contracts/StorageFactory.sol\":280:298  simpleStorageArray */\n      0x00\n        /* \"contracts/StorageFactory.sol\":304:317  simpleStorage */\n      dup2\n        /* \"contracts/StorageFactory.sol\":280:318  simpleStorageArray.push(simpleStorage) */\n      swap1\n      dup1\n      0x01\n      dup2\n      sload\n      add\n      dup1\n      dup3\n      sstore\n      dup1\n      swap2\n      pop\n      pop\n      0x01\n      swap1\n      sub\n      swap1\n      0x00\n      mstore\n      keccak256(0x00, 0x20)\n      add\n      0x00\n      swap1\n      swap2\n      swap1\n      swap2\n      swap1\n      swap2\n      0x0100\n      exp\n      dup2\n      sload\n      dup2\n      0xffffffffffffffffffffffffffffffffffffffff\n      mul\n      not\n      and\n      swap1\n      dup4\n      0xffffffffffffffffffffffffffffffffffffffff\n      and\n      mul\n      or\n      swap1\n      sstore\n      pop\n        /* \"contracts/StorageFactory.sol\":213:325  {... */\n      pop\n        /* \"contracts/StorageFactory.sol\":167:325  function createSimpleStorageContract() public {... */\n      jump\t// out\n        /* \"contracts/StorageFactory.sol\":118:160  SimpleStorage [] public simpleStorageArray */\n    tag_12:\n      0x00\n      dup2\n      dup2\n      sload\n      dup2\n      lt\n      tag_29\n      jumpi\n      0x00\n      dup1\n      revert\n    tag_29:\n      swap1\n      0x00\n      mstore\n      keccak256(0x00, 0x20)\n      add\n      0x00\n      swap2\n      pop\n      sload\n      swap1\n      0x0100\n      exp\n      swap1\n      div\n      0xffffffffffffffffffffffffffffffffffffffff\n      and\n      dup2\n      jump\t// out\n        /* \"contracts/StorageFactory.sol\":331:531  function sfStorage(uint256 number, string calldata _name, uint256 index) public {... */\n    tag_18:\n        /* \"contracts/StorageFactory.sol\":421:448  SimpleStorage simpleStorage */\n      0x00\n        /* \"contracts/StorageFactory.sol\":451:469  simpleStorageArray */\n      dup1\n        /* \"contracts/StorageFactory.sol\":470:475  index */\n      dup3\n        /* \"contracts/StorageFactory.sol\":451:476  simpleStorageArray[index] */\n      dup2\n      sload\n      dup2\n      lt\n      tag_32\n      jumpi\n      tag_33\n      tag_34\n      jump\t// in\n    tag_33:\n    tag_32:\n      swap1\n      0x00\n      mstore\n      keccak256(0x00, 0x20)\n      add\n      0x00\n      swap1\n      sload\n      swap1\n      0x0100\n      exp\n      swap1\n      div\n      0xffffffffffffffffffffffffffffffffffffffff\n      and\n        /* \"contracts/StorageFactory.sol\":421:476  SimpleStorage simpleStorage = simpleStorageArray[index] */\n      swap1\n      pop\n        /* \"contracts/StorageFactory.sol\":486:499  simpleStorage */\n      dup1\n        /* \"contracts/StorageFactory.sol\":486:509  simpleStorage.addPeople */\n      0xffffffffffffffffffffffffffffffffffffffff\n      and\n      0x8f7d59b8\n        /* \"contracts/StorageFactory.sol\":510:516  number */\n      dup7\n        /* \"contracts/StorageFactory.sol\":518:523  _name */\n      dup7\n      dup7\n        /* \"contracts/StorageFactory.sol\":486:524  simpleStorage.addPeople(number, _name) */\n      mload(0x40)\n      dup5\n      0xffffffff\n      and\n      0xe0\n      shl\n      dup2\n      mstore\n      0x04\n      add\n      tag_36\n      swap4\n      swap3\n      swap2\n      swap1\n      tag_37\n      jump\t// in\n    tag_36:\n      0x00\n      mload(0x40)\n      dup1\n      dup4\n      sub\n      dup2\n      0x00\n      dup8\n      dup1\n      extcodesize\n      iszero\n      dup1\n      iszero\n      tag_38\n      jumpi\n      0x00\n      dup1\n      revert\n    tag_38:\n      pop\n      gas\n      call\n      iszero\n      dup1\n      iszero\n      tag_40\n      jumpi\n      returndatasize\n      0x00\n      dup1\n      returndatacopy\n      revert(0x00, returndatasize)\n    tag_40:\n      pop\n      pop\n      pop\n      pop\n        /* \"contracts/StorageFactory.sol\":411:531  {... */\n      pop\n        /* \"contracts/StorageFactory.sol\":331:531  function sfStorage(uint256 number, string calldata _name, uint256 index) public {... */\n      pop\n      pop\n      pop\n      pop\n      jump\t// out\n        /* \"contracts/StorageFactory.sol\":537:721  function sfGet(uint256 index) public view returns (string memory){... */\n    tag_21:\n        /* \"contracts/StorageFactory.sol\":588:601  string memory */\n      0x60\n        /* \"contracts/StorageFactory.sol\":612:639  SimpleStorage simpleStorage */\n      0x00\n        /* \"contracts/StorageFactory.sol\":642:660  simpleStorageArray */\n      dup1\n        /* \"contracts/StorageFactory.sol\":661:666  index */\n      dup4\n        /* \"contracts/StorageFactory.sol\":642:667  simpleStorageArray[index] */\n      dup2\n      sload\n      dup2\n      lt\n      tag_42\n      jumpi\n      tag_43\n      tag_34\n      jump\t// in\n    tag_43:\n    tag_42:\n      swap1\n      0x00\n      mstore\n      keccak256(0x00, 0x20)\n      add\n      0x00\n      swap1\n      sload\n      swap1\n      0x0100\n      exp\n      swap1\n      div\n      0xffffffffffffffffffffffffffffffffffffffff\n      and\n        /* \"contracts/StorageFactory.sol\":612:667  SimpleStorage simpleStorage = simpleStorageArray[index] */\n      swap1\n      pop\n        /* \"contracts/StorageFactory.sol\":684:697  simpleStorage */\n      dup1\n        /* \"contracts/StorageFactory.sol\":684:711  simpleStorage.getPersonName */\n      0xffffffffffffffffffffffffffffffffffffffff\n      and\n      0x40ab422e\n        /* \"contracts/StorageFactory.sol\":712:713  0 */\n      0x00\n        /* \"contracts/StorageFactory.sol\":684:714  simpleStorage.getPersonName(0) */\n      mload(0x40)\n      dup3\n      0xffffffff\n      and\n      0xe0\n      shl\n      dup2\n      mstore\n      0x04\n      add\n      tag_45\n      swap2\n      swap1\n      tag_46\n      jump\t// in\n    tag_45:\n      0x00\n      mload(0x40)\n      dup1\n      dup4\n      sub\n      dup2\n      dup7\n      gas\n      staticcall\n      iszero\n      dup1\n      iszero\n      tag_48\n      jumpi\n      returndatasize\n      0x00\n      dup1\n      returndatacopy\n      revert(0x00, returndatasize)\n    tag_48:\n      pop\n      pop\n      pop\n      pop\n      mload(0x40)\n      returndatasize\n      0x00\n      dup3\n      returndatacopy\n      returndatasize\n      not(0x1f)\n      0x1f\n      dup3\n      add\n      and\n      dup3\n      add\n      dup1\n      0x40\n      mstore\n      pop\n      dup2\n      add\n      swap1\n      tag_49\n      swap2\n      swap1\n      tag_50\n      jump\t// in\n    tag_49:\n        /* \"contracts/StorageFactory.sol\":677:714  return simpleStorage.getPersonName(0) */\n      swap2\n      pop\n      pop\n        /* \"contracts/StorageFactory.sol\":537:721  function sfGet(uint256 index) public view returns (string memory){... */\n      swap2\n      swap1\n      pop\n      jump\t// out\n    tag_26:\n      dataSize(sub_0)\n      dup1\n      dataOffset(sub_0)\n      dup4\n      codecopy\n      add\n      swap1\n      jump\t// out\n        /* \"#utility.yul\":7:82   */\n    tag_51:\n        /* \"#utility.yul\":40:46   */\n      0x00\n        /* \"#utility.yul\":73:75   */\n      0x40\n        /* \"#utility.yul\":67:76   */\n      mload\n        /* \"#utility.yul\":57:76   */\n      swap1\n      pop\n        /* \"#utility.yul\":7:82   */\n      swap1\n      jump\t// out\n        /* \"#utility.yul\":88:205   */\n    tag_52:\n        /* \"#utility.yul\":197:198   */\n      0x00\n        /* \"#utility.yul\":194:195   */\n      dup1\n        /* \"#utility.yul\":187:199   */\n      revert\n        /* \"#utility.yul\":211:328   */\n    tag_53:\n        /* \"#utility.yul\":320:321   */\n      0x00\n        /* \"#utility.yul\":317:318   */\n      dup1\n        /* \"#utility.yul\":310:322   */\n      revert\n        /* \"#utility.yul\":334:411   */\n    tag_54:\n        /* \"#utility.yul\":371:378   */\n      0x00\n        /* \"#utility.yul\":400:405   */\n      dup2\n        /* \"#utility.yul\":389:405   */\n      swap1\n      pop\n        /* \"#utility.yul\":334:411   */\n      swap2\n      swap1\n      pop\n      jump\t// out\n        /* \"#utility.yul\":417:539   */\n    tag_55:\n        /* \"#utility.yul\":490:514   */\n      tag_91\n        /* \"#utility.yul\":508:513   */\n      dup2\n        /* \"#utility.yul\":490:514   */\n      tag_54\n      jump\t// in\n    tag_91:\n        /* \"#utility.yul\":483:488   */\n      dup2\n        /* \"#utility.yul\":480:515   */\n      eq\n        /* \"#utility.yul\":470:533   */\n      tag_92\n      jumpi\n        /* \"#utility.yul\":529:530   */\n      0x00\n        /* \"#utility.yul\":526:527   */\n      dup1\n        /* \"#utility.yul\":519:531   */\n      revert\n        /* \"#utility.yul\":470:533   */\n    tag_92:\n        /* \"#utility.yul\":417:539   */\n      pop\n      jump\t// out\n        /* \"#utility.yul\":545:684   */\n    tag_56:\n        /* \"#utility.yul\":591:596   */\n      0x00\n        /* \"#utility.yul\":629:635   */\n      dup2\n        /* \"#utility.yul\":616:636   */\n      calldataload\n        /* \"#utility.yul\":607:636   */\n      swap1\n      pop\n        /* \"#utility.yul\":645:678   */\n      tag_94\n        /* \"#utility.yul\":672:677   */\n      dup2\n        /* \"#utility.yul\":645:678   */\n      tag_55\n      jump\t// in\n    tag_94:\n        /* \"#utility.yul\":545:684   */\n      swap3\n      swap2\n      pop\n      pop\n      jump\t// out\n        /* \"#utility.yul\":690:1019   */\n    tag_11:\n        /* \"#utility.yul\":749:755   */\n      0x00\n        /* \"#utility.yul\":798:800   */\n      0x20\n        /* \"#utility.yul\":786:795   */\n      dup3\n        /* \"#utility.yul\":777:784   */\n      dup5\n        /* \"#utility.yul\":773:796   */\n      sub\n        /* \"#utility.yul\":769:801   */\n      slt\n        /* \"#utility.yul\":766:885   */\n      iszero\n      tag_96\n      jumpi\n        /* \"#utility.yul\":804:883   */\n      tag_97\n      tag_52\n      jump\t// in\n    tag_97:\n        /* \"#utility.yul\":766:885   */\n    tag_96:\n        /* \"#utility.yul\":924:925   */\n      0x00\n        /* \"#utility.yul\":949:1002   */\n      tag_98\n        /* \"#utility.yul\":994:1001   */\n      dup5\n        /* \"#utility.yul\":985:991   */\n      dup3\n        /* \"#utility.yul\":974:983   */\n      dup6\n        /* \"#utility.yul\":970:992   */\n      add\n        /* \"#utility.yul\":949:1002   */\n      tag_56\n      jump\t// in\n    tag_98:\n        /* \"#utility.yul\":939:1002   */\n      swap2\n      pop\n        /* \"#utility.yul\":895:1012   */\n      pop\n        /* \"#utility.yul\":690:1019   */\n      swap3\n      swap2\n      pop\n      pop\n      jump\t// out\n        /* \"#utility.yul\":1025:1151   */\n    tag_57:\n        /* \"#utility.yul\":1062:1069   */\n      0x00\n        /* \"#utility.yul\":1102:1144   */\n      0xffffffffffffffffffffffffffffffffffffffff\n        /* \"#utility.yul\":1095:1100   */\n      dup3\n        /* \"#utility.yul\":1091:1145   */\n      and\n        /* \"#utility.yul\":1080:1145   */\n      swap1\n      pop\n        /* \"#utility.yul\":1025:1151   */\n      swap2\n      swap1\n      pop\n      jump\t// out\n        /* \"#utility.yul\":1157:1217   */\n    tag_58:\n        /* \"#utility.yul\":1185:1188   */\n      0x00\n        /* \"#utility.yul\":1206:1211   */\n      dup2\n        /* \"#utility.yul\":1199:1211   */\n      swap1\n      pop\n        /* \"#utility.yul\":1157:1217   */\n      swap2\n      swap1\n      pop\n      jump\t// out\n        /* \"#utility.yul\":1223:1365   */\n    tag_59:\n        /* \"#utility.yul\":1273:1282   */\n      0x00\n        /* \"#utility.yul\":1306:1359   */\n      tag_102\n        /* \"#utility.yul\":1324:1358   */\n      tag_103\n        /* \"#utility.yul\":1333:1357   */\n      tag_104\n        /* \"#utility.yul\":1351:1356   */\n      dup5\n        /* \"#utility.yul\":1333:1357   */\n      tag_57\n      jump\t// in\n    tag_104:\n        /* \"#utility.yul\":1324:1358   */\n      tag_58\n      jump\t// in\n    tag_103:\n        /* \"#utility.yul\":1306:1359   */\n      tag_57\n      jump\t// in\n    tag_102:\n        /* \"#utility.yul\":1293:1359   */\n      swap1\n      pop\n        /* \"#utility.yul\":1223:1365   */\n      swap2\n      swap1\n      pop\n      jump\t// out\n        /* \"#utility.yul\":1371:1497   */\n    tag_60:\n        /* \"#utility.yul\":1421:1430   */\n      0x00\n        /* \"#utility.yul\":1454:1491   */\n      tag_106\n        /* \"#utility.yul\":1485:1490   */\n      dup3\n        /* \"#utility.yul\":1454:1491   */\n      tag_59\n      jump\t// in\n    tag_106:\n        /* \"#utility.yul\":1441:1491   */\n      swap1\n      pop\n        /* \"#utility.yul\":1371:1497   */\n      swap2\n      swap1\n      pop\n      jump\t// out\n        /* \"#utility.yul\":1503:1649   */\n    tag_61:\n        /* \"#utility.yul\":1573:1582   */\n      0x00\n        /* \"#utility.yul\":1606:1643   */\n      tag_108\n        /* \"#utility.yul\":1637:1642   */\n      dup3\n        /* \"#utility.yul\":1606:1643   */\n      tag_60\n      jump\t// in\n    tag_108:\n        /* \"#utility.yul\":1593:1643   */\n      swap1\n      pop\n        /* \"#utility.yul\":1503:1649   */\n      swap2\n      swap1\n      pop\n      jump\t// out\n        /* \"#utility.yul\":1655:1826   */\n    tag_62:\n        /* \"#utility.yul\":1762:1819   */\n      tag_110\n        /* \"#utility.yul\":1813:1818   */\n      dup2\n        /* \"#utility.yul\":1762:1819   */\n      tag_61\n      jump\t// in\n    tag_110:\n        /* \"#utility.yul\":1757:1760   */\n      dup3\n        /* \"#utility.yul\":1750:1820   */\n      mstore\n        /* \"#utility.yul\":1655:1826   */\n      pop\n      pop\n      jump\t// out\n        /* \"#utility.yul\":1832:2094   */\n    tag_14:\n        /* \"#utility.yul\":1945:1949   */\n      0x00\n        /* \"#utility.yul\":1983:1985   */\n      0x20\n        /* \"#utility.yul\":1972:1981   */\n      dup3\n        /* \"#utility.yul\":1968:1986   */\n      add\n        /* \"#utility.yul\":1960:1986   */\n      swap1\n      pop\n        /* \"#utility.yul\":1996:2087   */\n      tag_112\n        /* \"#utility.yul\":2084:2085   */\n      0x00\n        /* \"#utility.yul\":2073:2082   */\n      dup4\n        /* \"#utility.yul\":2069:2086   */\n      add\n        /* \"#utility.yul\":2060:2066   */\n      dup5\n        /* \"#utility.yul\":1996:2087   */\n      tag_62\n      jump\t// in\n    tag_112:\n        /* \"#utility.yul\":1832:2094   */\n      swap3\n      swap2\n      pop\n      pop\n      jump\t// out\n        /* \"#utility.yul\":2100:2217   */\n    tag_63:\n        /* \"#utility.yul\":2209:2210   */\n      0x00\n        /* \"#utility.yul\":2206:2207   */\n      dup1\n        /* \"#utility.yul\":2199:2211   */\n      revert\n        /* \"#utility.yul\":2223:2340   */\n    tag_64:\n        /* \"#utility.yul\":2332:2333   */\n      0x00\n        /* \"#utility.yul\":2329:2330   */\n      dup1\n        /* \"#utility.yul\":2322:2334   */\n      revert\n        /* \"#utility.yul\":2346:2463   */\n    tag_65:\n        /* \"#utility.yul\":2455:2456   */\n      0x00\n        /* \"#utility.yul\":2452:2453   */\n      dup1\n        /* \"#utility.yul\":2445:2457   */\n      revert\n        /* \"#utility.yul\":2483:3036   */\n    tag_66:\n        /* \"#utility.yul\":2541:2549   */\n      0x00\n        /* \"#utility.yul\":2551:2557   */\n      dup1\n        /* \"#utility.yul\":2601:2604   */\n      dup4\n        /* \"#utility.yul\":2594:2598   */\n      0x1f\n        /* \"#utility.yul\":2586:2592   */\n      dup5\n        /* \"#utility.yul\":2582:2599   */\n      add\n        /* \"#utility.yul\":2578:2605   */\n      slt\n        /* \"#utility.yul\":2568:2690   */\n      tag_117\n      jumpi\n        /* \"#utility.yul\":2609:2688   */\n      tag_118\n      tag_63\n      jump\t// in\n    tag_118:\n        /* \"#utility.yul\":2568:2690   */\n    tag_117:\n        /* \"#utility.yul\":2722:2728   */\n      dup3\n        /* \"#utility.yul\":2709:2729   */\n      calldataload\n        /* \"#utility.yul\":2699:2729   */\n      swap1\n      pop\n        /* \"#utility.yul\":2752:2770   */\n      0xffffffffffffffff\n        /* \"#utility.yul\":2744:2750   */\n      dup2\n        /* \"#utility.yul\":2741:2771   */\n      gt\n        /* \"#utility.yul\":2738:2855   */\n      iszero\n      tag_119\n      jumpi\n        /* \"#utility.yul\":2774:2853   */\n      tag_120\n      tag_64\n      jump\t// in\n    tag_120:\n        /* \"#utility.yul\":2738:2855   */\n    tag_119:\n        /* \"#utility.yul\":2888:2892   */\n      0x20\n        /* \"#utility.yul\":2880:2886   */\n      dup4\n        /* \"#utility.yul\":2876:2893   */\n      add\n        /* \"#utility.yul\":2864:2893   */\n      swap2\n      pop\n        /* \"#utility.yul\":2942:2945   */\n      dup4\n        /* \"#utility.yul\":2934:2938   */\n      0x01\n        /* \"#utility.yul\":2926:2932   */\n      dup3\n        /* \"#utility.yul\":2922:2939   */\n      mul\n        /* \"#utility.yul\":2912:2920   */\n      dup4\n        /* \"#utility.yul\":2908:2940   */\n      add\n        /* \"#utility.yul\":2905:2946   */\n      gt\n        /* \"#utility.yul\":2902:3030   */\n      iszero\n      tag_121\n      jumpi\n        /* \"#utility.yul\":2949:3028   */\n      tag_122\n      tag_65\n      jump\t// in\n    tag_122:\n        /* \"#utility.yul\":2902:3030   */\n    tag_121:\n        /* \"#utility.yul\":2483:3036   */\n      swap3\n      pop\n      swap3\n      swap1\n      pop\n      jump\t// out\n        /* \"#utility.yul\":3042:3861   */\n    tag_17:\n        /* \"#utility.yul\":3131:3137   */\n      0x00\n        /* \"#utility.yul\":3139:3145   */\n      dup1\n        /* \"#utility.yul\":3147:3153   */\n      0x00\n        /* \"#utility.yul\":3155:3161   */\n      dup1\n        /* \"#utility.yul\":3204:3206   */\n      0x60\n        /* \"#utility.yul\":3192:3201   */\n      dup6\n        /* \"#utility.yul\":3183:3190   */\n      dup8\n        /* \"#utility.yul\":3179:3202   */\n      sub\n        /* \"#utility.yul\":3175:3207   */\n      slt\n        /* \"#utility.yul\":3172:3291   */\n      iszero\n      tag_124\n      jumpi\n        /* \"#utility.yul\":3210:3289   */\n      tag_125\n      tag_52\n      jump\t// in\n    tag_125:\n        /* \"#utility.yul\":3172:3291   */\n    tag_124:\n        /* \"#utility.yul\":3330:3331   */\n      0x00\n        /* \"#utility.yul\":3355:3408   */\n      tag_126\n        /* \"#utility.yul\":3400:3407   */\n      dup8\n        /* \"#utility.yul\":3391:3397   */\n      dup3\n        /* \"#utility.yul\":3380:3389   */\n      dup9\n        /* \"#utility.yul\":3376:3398   */\n      add\n        /* \"#utility.yul\":3355:3408   */\n      tag_56\n      jump\t// in\n    tag_126:\n        /* \"#utility.yul\":3345:3408   */\n      swap5\n      pop\n        /* \"#utility.yul\":3301:3418   */\n      pop\n        /* \"#utility.yul\":3485:3487   */\n      0x20\n        /* \"#utility.yul\":3474:3483   */\n      dup6\n        /* \"#utility.yul\":3470:3488   */\n      add\n        /* \"#utility.yul\":3457:3489   */\n      calldataload\n        /* \"#utility.yul\":3516:3534   */\n      0xffffffffffffffff\n        /* \"#utility.yul\":3508:3514   */\n      dup2\n        /* \"#utility.yul\":3505:3535   */\n      gt\n        /* \"#utility.yul\":3502:3619   */\n      iszero\n      tag_127\n      jumpi\n        /* \"#utility.yul\":3538:3617   */\n      tag_128\n      tag_53\n      jump\t// in\n    tag_128:\n        /* \"#utility.yul\":3502:3619   */\n    tag_127:\n        /* \"#utility.yul\":3651:3716   */\n      tag_129\n        /* \"#utility.yul\":3708:3715   */\n      dup8\n        /* \"#utility.yul\":3699:3705   */\n      dup3\n        /* \"#utility.yul\":3688:3697   */\n      dup9\n        /* \"#utility.yul\":3684:3706   */\n      add\n        /* \"#utility.yul\":3651:3716   */\n      tag_66\n      jump\t// in\n    tag_129:\n        /* \"#utility.yul\":3633:3716   */\n      swap4\n      pop\n      swap4\n      pop\n        /* \"#utility.yul\":3428:3726   */\n      pop\n        /* \"#utility.yul\":3765:3767   */\n      0x40\n        /* \"#utility.yul\":3791:3844   */\n      tag_130\n        /* \"#utility.yul\":3836:3843   */\n      dup8\n        /* \"#utility.yul\":3827:3833   */\n      dup3\n        /* \"#utility.yul\":3816:3825   */\n      dup9\n        /* \"#utility.yul\":3812:3834   */\n      add\n        /* \"#utility.yul\":3791:3844   */\n      tag_56\n      jump\t// in\n    tag_130:\n        /* \"#utility.yul\":3781:3844   */\n      swap2\n      pop\n        /* \"#utility.yul\":3736:3854   */\n      pop\n        /* \"#utility.yul\":3042:3861   */\n      swap3\n      swap6\n      swap2\n      swap5\n      pop\n      swap3\n      pop\n      jump\t// out\n        /* \"#utility.yul\":3867:3966   */\n    tag_67:\n        /* \"#utility.yul\":3919:3925   */\n      0x00\n        /* \"#utility.yul\":3953:3958   */\n      dup2\n        /* \"#utility.yul\":3947:3959   */\n      mload\n        /* \"#utility.yul\":3937:3959   */\n      swap1\n      pop\n        /* \"#utility.yul\":3867:3966   */\n      swap2\n      swap1\n      pop\n      jump\t// out\n        /* \"#utility.yul\":3972:4141   */\n    tag_68:\n        /* \"#utility.yul\":4056:4067   */\n      0x00\n        /* \"#utility.yul\":4090:4096   */\n      dup3\n        /* \"#utility.yul\":4085:4088   */\n      dup3\n        /* \"#utility.yul\":4078:4097   */\n      mstore\n        /* \"#utility.yul\":4130:4134   */\n      0x20\n        /* \"#utility.yul\":4125:4128   */\n      dup3\n        /* \"#utility.yul\":4121:4135   */\n      add\n        /* \"#utility.yul\":4106:4135   */\n      swap1\n      pop\n        /* \"#utility.yul\":3972:4141   */\n      swap3\n      swap2\n      pop\n      pop\n      jump\t// out\n        /* \"#utility.yul\":4147:4286   */\n    tag_69:\n        /* \"#utility.yul\":4236:4242   */\n      dup3\n        /* \"#utility.yul\":4231:4234   */\n      dup2\n        /* \"#utility.yul\":4226:4229   */\n      dup4\n        /* \"#utility.yul\":4220:4243   */\n      mcopy\n        /* \"#utility.yul\":4277:4278   */\n      0x00\n        /* \"#utility.yul\":4268:4274   */\n      dup4\n        /* \"#utility.yul\":4263:4266   */\n      dup4\n        /* \"#utility.yul\":4259:4275   */\n      add\n        /* \"#utility.yul\":4252:4279   */\n      mstore\n        /* \"#utility.yul\":4147:4286   */\n      pop\n      pop\n      pop\n      jump\t// out\n        /* \"#utility.yul\":4292:4394   */\n    tag_70:\n        /* \"#utility.yul\":4333:4339   */\n      0x00\n        /* \"#utility.yul\":4384:4386   */\n      0x1f\n        /* \"#utility.yul\":4380:4387   */\n      not\n        /* \"#utility.yul\":4375:4377   */\n      0x1f\n        /* \"#utility.yul\":4368:4373   */\n      dup4\n        /* \"#utility.yul\":4364:4378   */\n      add\n        /* \"#utility.yul\":4360:4388   */\n      and\n        /* \"#utility.yul\":4350:4388   */\n      swap1\n      pop\n        /* \"#utility.yul\":4292:4394   */\n      swap2\n      swap1\n      pop\n      jump\t// out\n        /* \"#utility.yul\":4400:4777   */\n    tag_71:\n        /* \"#utility.yul\":4488:4491   */\n      0x00\n        /* \"#utility.yul\":4516:4555   */\n      tag_136\n        /* \"#utility.yul\":4549:4554   */\n      dup3\n        /* \"#utility.yul\":4516:4555   */\n      tag_67\n      jump\t// in\n    tag_136:\n        /* \"#utility.yul\":4571:4642   */\n      tag_137\n        /* \"#utility.yul\":4635:4641   */\n      dup2\n        /* \"#utility.yul\":4630:4633   */\n      dup6\n        /* \"#utility.yul\":4571:4642   */\n      tag_68\n      jump\t// in\n    tag_137:\n        /* \"#utility.yul\":4564:4642   */\n      swap4\n      pop\n        /* \"#utility.yul\":4651:4716   */\n      tag_138\n        /* \"#utility.yul\":4709:4715   */\n      dup2\n        /* \"#utility.yul\":4704:4707   */\n      dup6\n        /* \"#utility.yul\":4697:4701   */\n      0x20\n        /* \"#utility.yul\":4690:4695   */\n      dup7\n        /* \"#utility.yul\":4686:4702   */\n      add\n        /* \"#utility.yul\":4651:4716   */\n      tag_69\n      jump\t// in\n    tag_138:\n        /* \"#utility.yul\":4741:4770   */\n      tag_139\n        /* \"#utility.yul\":4763:4769   */\n      dup2\n        /* \"#utility.yul\":4741:4770   */\n      tag_70\n      jump\t// in\n    tag_139:\n        /* \"#utility.yul\":4736:4739   */\n      dup5\n        /* \"#utility.yul\":4732:4771   */\n      add\n        /* \"#utility.yul\":4725:4771   */\n      swap2\n      pop\n        /* \"#utility.yul\":4492:4777   */\n      pop\n        /* \"#utility.yul\":4400:4777   */\n      swap3\n      swap2\n      pop\n      pop\n      jump\t// out\n        /* \"#utility.yul\":4783:5096   */\n    tag_23:\n        /* \"#utility.yul\":4896:4900   */\n      0x00\n        /* \"#utility.yul\":4934:4936   */\n      0x20\n        /* \"#utility.yul\":4923:4932   */\n      dup3\n        /* \"#utility.yul\":4919:4937   */\n      add\n        /* \"#utility.yul\":4911:4937   */\n      swap1\n      pop\n        /* \"#utility.yul\":4983:4992   */\n      dup2\n        /* \"#utility.yul\":4977:4981   */\n      dup2\n        /* \"#utility.yul\":4973:4993   */\n      sub\n        /* \"#utility.yul\":4969:4970   */\n      0x00\n        /* \"#utility.yul\":4958:4967   */\n      dup4\n        /* \"#utility.yul\":4954:4971   */\n      add\n        /* \"#utility.yul\":4947:4994   */\n      mstore\n        /* \"#utility.yul\":5011:5089   */\n      tag_141\n        /* \"#utility.yul\":5084:5088   */\n      dup2\n        /* \"#utility.yul\":5075:5081   */\n      dup5\n        /* \"#utility.yul\":5011:5089   */\n      tag_71\n      jump\t// in\n    tag_141:\n        /* \"#utility.yul\":5003:5089   */\n      swap1\n      pop\n        /* \"#utility.yul\":4783:5096   */\n      swap3\n      swap2\n      pop\n      pop\n      jump\t// out\n        /* \"#utility.yul\":5102:5282   */\n    tag_34:\n        /* \"#utility.yul\":5150:5227   */\n      0x4e487b7100000000000000000000000000000000000000000000000000000000\n        /* \"#utility.yul\":5147:5148   */\n      0x00\n        /* \"#utility.yul\":5140:5228   */\n      mstore\n        /* \"#utility.yul\":5247:5251   */\n      0x32\n        /* \"#utility.yul\":5244:5245   */\n      0x04\n        /* \"#utility.yul\":5237:5252   */\n      mstore\n        /* \"#utility.yul\":5271:5275   */\n      0x24\n        /* \"#utility.yul\":5268:5269   */\n      0x00\n        /* \"#utility.yul\":5261:5276   */\n      revert\n        /* \"#utility.yul\":5288:5406   */\n    tag_72:\n        /* \"#utility.yul\":5375:5399   */\n      tag_144\n        /* \"#utility.yul\":5393:5398   */\n      dup2\n        /* \"#utility.yul\":5375:5399   */\n      tag_54\n      jump\t// in\n    tag_144:\n        /* \"#utility.yul\":5370:5373   */\n      dup3\n        /* \"#utility.yul\":5363:5400   */\n      mstore\n        /* \"#utility.yul\":5288:5406   */\n      pop\n      pop\n      jump\t// out\n        /* \"#utility.yul\":5412:5560   */\n    tag_73:\n        /* \"#utility.yul\":5510:5516   */\n      dup3\n        /* \"#utility.yul\":5505:5508   */\n      dup2\n        /* \"#utility.yul\":5500:5503   */\n      dup4\n        /* \"#utility.yul\":5487:5517   */\n      calldatacopy\n        /* \"#utility.yul\":5551:5552   */\n      0x00\n        /* \"#utility.yul\":5542:5548   */\n      dup4\n        /* \"#utility.yul\":5537:5540   */\n      dup4\n        /* \"#utility.yul\":5533:5549   */\n      add\n        /* \"#utility.yul\":5526:5553   */\n      mstore\n        /* \"#utility.yul\":5412:5560   */\n      pop\n      pop\n      pop\n      jump\t// out\n        /* \"#utility.yul\":5590:5907   */\n    tag_74:\n        /* \"#utility.yul\":5688:5691   */\n      0x00\n        /* \"#utility.yul\":5709:5780   */\n      tag_147\n        /* \"#utility.yul\":5773:5779   */\n      dup4\n        /* \"#utility.yul\":5768:5771   */\n      dup6\n        /* \"#utility.yul\":5709:5780   */\n      tag_68\n      jump\t// in\n    tag_147:\n        /* \"#utility.yul\":5702:5780   */\n      swap4\n      pop\n        /* \"#utility.yul\":5790:5846   */\n      tag_148\n        /* \"#utility.yul\":5839:5845   */\n      dup4\n        /* \"#utility.yul\":5834:5837   */\n      dup6\n        /* \"#utility.yul\":5827:5832   */\n      dup5\n        /* \"#utility.yul\":5790:5846   */\n      tag_73\n      jump\t// in\n    tag_148:\n        /* \"#utility.yul\":5871:5900   */\n      tag_149\n        /* \"#utility.yul\":5893:5899   */\n      dup4\n        /* \"#utility.yul\":5871:5900   */\n      tag_70\n      jump\t// in\n    tag_149:\n        /* \"#utility.yul\":5866:5869   */\n      dup5\n        /* \"#utility.yul\":5862:5901   */\n      add\n        /* \"#utility.yul\":5855:5901   */\n      swap1\n      pop\n        /* \"#utility.yul\":5590:5907   */\n      swap4\n      swap3\n      pop\n      pop\n      pop\n      jump\t// out\n        /* \"#utility.yul\":5913:6356   */\n    tag_37:\n        /* \"#utility.yul\":6064:6068   */\n      0x00\n        /* \"#utility.yul\":6102:6104   */\n      0x40\n        /* \"#utility.yul\":6091:6100   */\n      dup3\n        /* \"#utility.yul\":6087:6105   */\n      add\n        /* \"#utility.yul\":6079:6105   */\n      swap1\n      pop\n        /* \"#utility.yul\":6115:6186   */\n      tag_151\n        /* \"#utility.yul\":6183:6184   */\n      0x00\n        /* \"#utility.yul\":6172:6181   */\n      dup4\n        /* \"#utility.yul\":6168:6185   */\n      add\n        /* \"#utility.yul\":6159:6165   */\n      dup7\n        /* \"#utility.yul\":6115:6186   */\n      tag_72\n      jump\t// in\n    tag_151:\n        /* \"#utility.yul\":6233:6242   */\n      dup2\n        /* \"#utility.yul\":6227:6231   */\n      dup2\n        /* \"#utility.yul\":6223:6243   */\n      sub\n        /* \"#utility.yul\":6218:6220   */\n      0x20\n        /* \"#utility.yul\":6207:6216   */\n      dup4\n        /* \"#utility.yul\":6203:6221   */\n      add\n        /* \"#utility.yul\":6196:6244   */\n      mstore\n        /* \"#utility.yul\":6261:6349   */\n      tag_152\n        /* \"#utility.yul\":6344:6348   */\n      dup2\n        /* \"#utility.yul\":6335:6341   */\n      dup5\n        /* \"#utility.yul\":6327:6333   */\n      dup7\n        /* \"#utility.yul\":6261:6349   */\n      tag_74\n      jump\t// in\n    tag_152:\n        /* \"#utility.yul\":6253:6349   */\n      swap1\n      pop\n        /* \"#utility.yul\":5913:6356   */\n      swap5\n      swap4\n      pop\n      pop\n      pop\n      pop\n      jump\t// out\n        /* \"#utility.yul\":6362:6447   */\n    tag_75:\n        /* \"#utility.yul\":6407:6414   */\n      0x00\n        /* \"#utility.yul\":6436:6441   */\n      dup2\n        /* \"#utility.yul\":6425:6441   */\n      swap1\n      pop\n        /* \"#utility.yul\":6362:6447   */\n      swap2\n      swap1\n      pop\n      jump\t// out\n        /* \"#utility.yul\":6453:6611   */\n    tag_76:\n        /* \"#utility.yul\":6511:6520   */\n      0x00\n        /* \"#utility.yul\":6544:6605   */\n      tag_155\n        /* \"#utility.yul\":6562:6604   */\n      tag_156\n        /* \"#utility.yul\":6571:6603   */\n      tag_157\n        /* \"#utility.yul\":6597:6602   */\n      dup5\n        /* \"#utility.yul\":6571:6603   */\n      tag_75\n      jump\t// in\n    tag_157:\n        /* \"#utility.yul\":6562:6604   */\n      tag_58\n      jump\t// in\n    tag_156:\n        /* \"#utility.yul\":6544:6605   */\n      tag_54\n      jump\t// in\n    tag_155:\n        /* \"#utility.yul\":6531:6605   */\n      swap1\n      pop\n        /* \"#utility.yul\":6453:6611   */\n      swap2\n      swap1\n      pop\n      jump\t// out\n        /* \"#utility.yul\":6617:6764   */\n    tag_77:\n        /* \"#utility.yul\":6712:6757   */\n      tag_159\n        /* \"#utility.yul\":6751:6756   */\n      dup2\n        /* \"#utility.yul\":6712:6757   */\n      tag_76\n      jump\t// in\n    tag_159:\n        /* \"#utility.yul\":6707:6710   */\n      dup3\n        /* \"#utility.yul\":6700:6758   */\n      mstore\n        /* \"#utility.yul\":6617:6764   */\n      pop\n      pop\n      jump\t// out\n        /* \"#utility.yul\":6770:7008   */\n    tag_46:\n        /* \"#utility.yul\":6871:6875   */\n      0x00\n        /* \"#utility.yul\":6909:6911   */\n      0x20\n        /* \"#utility.yul\":6898:6907   */\n      dup3\n        /* \"#utility.yul\":6894:6912   */\n      add\n        /* \"#utility.yul\":6886:6912   */\n      swap1\n      pop\n        /* \"#utility.yul\":6922:7001   */\n      tag_161\n        /* \"#utility.yul\":6998:6999   */\n      0x00\n        /* \"#utility.yul\":6987:6996   */\n      dup4\n        /* \"#utility.yul\":6983:7000   */\n      add\n        /* \"#utility.yul\":6974:6980   */\n      dup5\n        /* \"#utility.yul\":6922:7001   */\n      tag_77\n      jump\t// in\n    tag_161:\n        /* \"#utility.yul\":6770:7008   */\n      swap3\n      swap2\n      pop\n      pop\n      jump\t// out\n        /* \"#utility.yul\":7014:7131   */\n    tag_78:\n        /* \"#utility.yul\":7123:7124   */\n      0x00\n        /* \"#utility.yul\":7120:7121   */\n      dup1\n        /* \"#utility.yul\":7113:7125   */\n      revert\n        /* \"#utility.yul\":7137:7317   */\n    tag_79:\n        /* \"#utility.yul\":7185:7262   */\n      0x4e487b7100000000000000000000000000000000000000000000000000000000\n        /* \"#utility.yul\":7182:7183   */\n      0x00\n        /* \"#utility.yul\":7175:7263   */\n      mstore\n        /* \"#utility.yul\":7282:7286   */\n      0x41\n        /* \"#utility.yul\":7279:7280   */\n      0x04\n        /* \"#utility.yul\":7272:7287   */\n      mstore\n        /* \"#utility.yul\":7306:7310   */\n      0x24\n        /* \"#utility.yul\":7303:7304   */\n      0x00\n        /* \"#utility.yul\":7296:7311   */\n      revert\n        /* \"#utility.yul\":7323:7604   */\n    tag_80:\n        /* \"#utility.yul\":7406:7433   */\n      tag_165\n        /* \"#utility.yul\":7428:7432   */\n      dup3\n        /* \"#utility.yul\":7406:7433   */\n      tag_70\n      jump\t// in\n    tag_165:\n        /* \"#utility.yul\":7398:7404   */\n      dup2\n        /* \"#utility.yul\":7394:7434   */\n      add\n        /* \"#utility.yul\":7536:7542   */\n      dup2\n        /* \"#utility.yul\":7524:7534   */\n      dup2\n        /* \"#utility.yul\":7521:7543   */\n      lt\n        /* \"#utility.yul\":7500:7518   */\n      0xffffffffffffffff\n        /* \"#utility.yul\":7488:7498   */\n      dup3\n        /* \"#utility.yul\":7485:7519   */\n      gt\n        /* \"#utility.yul\":7482:7544   */\n      or\n        /* \"#utility.yul\":7479:7567   */\n      iszero\n      tag_166\n      jumpi\n        /* \"#utility.yul\":7547:7565   */\n      tag_167\n      tag_79\n      jump\t// in\n    tag_167:\n        /* \"#utility.yul\":7479:7567   */\n    tag_166:\n        /* \"#utility.yul\":7587:7597   */\n      dup1\n        /* \"#utility.yul\":7583:7585   */\n      0x40\n        /* \"#utility.yul\":7576:7598   */\n      mstore\n        /* \"#utility.yul\":7366:7604   */\n      pop\n        /* \"#utility.yul\":7323:7604   */\n      pop\n      pop\n      jump\t// out\n        /* \"#utility.yul\":7610:7739   */\n    tag_81:\n        /* \"#utility.yul\":7644:7650   */\n      0x00\n        /* \"#utility.yul\":7671:7691   */\n      tag_169\n      tag_51\n      jump\t// in\n    tag_169:\n        /* \"#utility.yul\":7661:7691   */\n      swap1\n      pop\n        /* \"#utility.yul\":7700:7733   */\n      tag_170\n        /* \"#utility.yul\":7728:7732   */\n      dup3\n        /* \"#utility.yul\":7720:7726   */\n      dup3\n        /* \"#utility.yul\":7700:7733   */\n      tag_80\n      jump\t// in\n    tag_170:\n        /* \"#utility.yul\":7610:7739   */\n      swap2\n      swap1\n      pop\n      jump\t// out\n        /* \"#utility.yul\":7745:8053   */\n    tag_82:\n        /* \"#utility.yul\":7807:7811   */\n      0x00\n        /* \"#utility.yul\":7897:7915   */\n      0xffffffffffffffff\n        /* \"#utility.yul\":7889:7895   */\n      dup3\n        /* \"#utility.yul\":7886:7916   */\n      gt\n        /* \"#utility.yul\":7883:7939   */\n      iszero\n      tag_172\n      jumpi\n        /* \"#utility.yul\":7919:7937   */\n      tag_173\n      tag_79\n      jump\t// in\n    tag_173:\n        /* \"#utility.yul\":7883:7939   */\n    tag_172:\n        /* \"#utility.yul\":7957:7986   */\n      tag_174\n        /* \"#utility.yul\":7979:7985   */\n      dup3\n        /* \"#utility.yul\":7957:7986   */\n      tag_70\n      jump\t// in\n    tag_174:\n        /* \"#utility.yul\":7949:7986   */\n      swap1\n      pop\n        /* \"#utility.yul\":8041:8045   */\n      0x20\n        /* \"#utility.yul\":8035:8039   */\n      dup2\n        /* \"#utility.yul\":8031:8046   */\n      add\n        /* \"#utility.yul\":8023:8046   */\n      swap1\n      pop\n        /* \"#utility.yul\":7745:8053   */\n      swap2\n      swap1\n      pop\n      jump\t// out\n        /* \"#utility.yul\":8059:8493   */\n    tag_83:\n        /* \"#utility.yul\":8148:8153   */\n      0x00\n        /* \"#utility.yul\":8173:8239   */\n      tag_176\n        /* \"#utility.yul\":8189:8238   */\n      tag_177\n        /* \"#utility.yul\":8231:8237   */\n      dup5\n        /* \"#utility.yul\":8189:8238   */\n      tag_82\n      jump\t// in\n    tag_177:\n        /* \"#utility.yul\":8173:8239   */\n      tag_81\n      jump\t// in\n    tag_176:\n        /* \"#utility.yul\":8164:8239   */\n      swap1\n      pop\n        /* \"#utility.yul\":8262:8268   */\n      dup3\n        /* \"#utility.yul\":8255:8260   */\n      dup2\n        /* \"#utility.yul\":8248:8269   */\n      mstore\n        /* \"#utility.yul\":8300:8304   */\n      0x20\n        /* \"#utility.yul\":8293:8298   */\n      dup2\n        /* \"#utility.yul\":8289:8305   */\n      add\n        /* \"#utility.yul\":8338:8341   */\n      dup5\n        /* \"#utility.yul\":8329:8335   */\n      dup5\n        /* \"#utility.yul\":8324:8327   */\n      dup5\n        /* \"#utility.yul\":8320:8336   */\n      add\n        /* \"#utility.yul\":8317:8342   */\n      gt\n        /* \"#utility.yul\":8314:8426   */\n      iszero\n      tag_178\n      jumpi\n        /* \"#utility.yul\":8345:8424   */\n      tag_179\n      tag_78\n      jump\t// in\n    tag_179:\n        /* \"#utility.yul\":8314:8426   */\n    tag_178:\n        /* \"#utility.yul\":8435:8487   */\n      tag_180\n        /* \"#utility.yul\":8480:8486   */\n      dup5\n        /* \"#utility.yul\":8475:8478   */\n      dup3\n        /* \"#utility.yul\":8470:8473   */\n      dup6\n        /* \"#utility.yul\":8435:8487   */\n      tag_69\n      jump\t// in\n    tag_180:\n        /* \"#utility.yul\":8154:8493   */\n      pop\n        /* \"#utility.yul\":8059:8493   */\n      swap4\n      swap3\n      pop\n      pop\n      pop\n      jump\t// out\n        /* \"#utility.yul\":8513:8868   */\n    tag_84:\n        /* \"#utility.yul\":8580:8585   */\n      0x00\n        /* \"#utility.yul\":8629:8632   */\n      dup3\n        /* \"#utility.yul\":8622:8626   */\n      0x1f\n        /* \"#utility.yul\":8614:8620   */\n      dup4\n        /* \"#utility.yul\":8610:8627   */\n      add\n        /* \"#utility.yul\":8606:8633   */\n      slt\n        /* \"#utility.yul\":8596:8718   */\n      tag_182\n      jumpi\n        /* \"#utility.yul\":8637:8716   */\n      tag_183\n      tag_63\n      jump\t// in\n    tag_183:\n        /* \"#utility.yul\":8596:8718   */\n    tag_182:\n        /* \"#utility.yul\":8747:8753   */\n      dup2\n        /* \"#utility.yul\":8741:8754   */\n      mload\n        /* \"#utility.yul\":8772:8862   */\n      tag_184\n        /* \"#utility.yul\":8858:8861   */\n      dup5\n        /* \"#utility.yul\":8850:8856   */\n      dup3\n        /* \"#utility.yul\":8843:8847   */\n      0x20\n        /* \"#utility.yul\":8835:8841   */\n      dup7\n        /* \"#utility.yul\":8831:8848   */\n      add\n        /* \"#utility.yul\":8772:8862   */\n      tag_83\n      jump\t// in\n    tag_184:\n        /* \"#utility.yul\":8763:8862   */\n      swap2\n      pop\n        /* \"#utility.yul\":8586:8868   */\n      pop\n        /* \"#utility.yul\":8513:8868   */\n      swap3\n      swap2\n      pop\n      pop\n      jump\t// out\n        /* \"#utility.yul\":8874:9398   */\n    tag_50:\n        /* \"#utility.yul\":8954:8960   */\n      0x00\n        /* \"#utility.yul\":9003:9005   */\n      0x20\n        /* \"#utility.yul\":8991:9000   */\n      dup3\n        /* \"#utility.yul\":8982:8989   */\n      dup5\n        /* \"#utility.yul\":8978:9001   */\n      sub\n        /* \"#utility.yul\":8974:9006   */\n      slt\n        /* \"#utility.yul\":8971:9090   */\n      iszero\n      tag_186\n      jumpi\n        /* \"#utility.yul\":9009:9088   */\n      tag_187\n      tag_52\n      jump\t// in\n    tag_187:\n        /* \"#utility.yul\":8971:9090   */\n    tag_186:\n        /* \"#utility.yul\":9150:9151   */\n      0x00\n        /* \"#utility.yul\":9139:9148   */\n      dup3\n        /* \"#utility.yul\":9135:9152   */\n      add\n        /* \"#utility.yul\":9129:9153   */\n      mload\n        /* \"#utility.yul\":9180:9198   */\n      0xffffffffffffffff\n        /* \"#utility.yul\":9172:9178   */\n      dup2\n        /* \"#utility.yul\":9169:9199   */\n      gt\n        /* \"#utility.yul\":9166:9283   */\n      iszero\n      tag_188\n      jumpi\n        /* \"#utility.yul\":9202:9281   */\n      tag_189\n      tag_53\n      jump\t// in\n    tag_189:\n        /* \"#utility.yul\":9166:9283   */\n    tag_188:\n        /* \"#utility.yul\":9307:9381   */\n      tag_190\n        /* \"#utility.yul\":9373:9380   */\n      dup5\n        /* \"#utility.yul\":9364:9370   */\n      dup3\n        /* \"#utility.yul\":9353:9362   */\n      dup6\n        /* \"#utility.yul\":9349:9371   */\n      add\n        /* \"#utility.yul\":9307:9381   */\n      tag_84\n      jump\t// in\n    tag_190:\n        /* \"#utility.yul\":9297:9381   */\n      swap2\n      pop\n        /* \"#utility.yul\":9100:9391   */\n      pop\n        /* \"#utility.yul\":8874:9398   */\n      swap3\n      swap2\n      pop\n      pop\n      jump\t// out\n    stop\n\n    sub_0: assembly {\n            /* \"contracts/SimpleStorage.sol\":57:793  contract SimpleStorage {... */\n          mstore(0x40, 0x80)\n          callvalue\n          dup1\n          iszero\n          tag_1\n          jumpi\n          0x00\n          dup1\n          revert\n        tag_1:\n          pop\n          dataSize(sub_0)\n          dup1\n          dataOffset(sub_0)\n          0x00\n          codecopy\n          0x00\n          return\n        stop\n\n        sub_0: assembly {\n                /* \"contracts/SimpleStorage.sol\":57:793  contract SimpleStorage {... */\n              mstore(0x40, 0x80)\n              callvalue\n              dup1\n              iszero\n              tag_1\n              jumpi\n              0x00\n              dup1\n              revert\n            tag_1:\n              pop\n              jumpi(tag_2, lt(calldatasize, 0x04))\n              shr(0xe0, calldataload(0x00))\n              dup1\n              0x10b4801a\n              eq\n              tag_3\n              jumpi\n              dup1\n              0x39d515e2\n              eq\n              tag_4\n              jumpi\n              dup1\n              0x40ab422e\n              eq\n              tag_5\n              jumpi\n              dup1\n              0x8f7d59b8\n              eq\n              tag_6\n              jumpi\n              dup1\n              0xa87d942c\n              eq\n              tag_7\n              jumpi\n              dup1\n              0xda2dc4eb\n              eq\n              tag_8\n              jumpi\n            tag_2:\n              0x00\n              dup1\n              revert\n                /* \"contracts/SimpleStorage.sol\":310:421  function getPeople(uint256 index) public view returns (People memory) {... */\n            tag_3:\n              tag_9\n              0x04\n              dup1\n              calldatasize\n              sub\n              dup2\n              add\n              swap1\n              tag_10\n              swap2\n              swap1\n              tag_11\n              jump\t// in\n            tag_10:\n              tag_12\n              jump\t// in\n            tag_9:\n              mload(0x40)\n              tag_13\n              swap2\n              swap1\n              tag_14\n              jump\t// in\n            tag_13:\n              mload(0x40)\n              dup1\n              swap2\n              sub\n              swap1\n              return\n                /* \"contracts/SimpleStorage.sol\":159:185  People[] public peopleList */\n            tag_4:\n              tag_15\n              0x04\n              dup1\n              calldatasize\n              sub\n              dup2\n              add\n              swap1\n              tag_16\n              swap2\n              swap1\n              tag_11\n              jump\t// in\n            tag_16:\n              tag_17\n              jump\t// in\n            tag_15:\n              mload(0x40)\n              tag_18\n              swap3\n              swap2\n              swap1\n              tag_19\n              jump\t// in\n            tag_18:\n              mload(0x40)\n              dup1\n              swap2\n              sub\n              swap1\n              return\n                /* \"contracts/SimpleStorage.sol\":427:549  function getPersonName(uint256 index) public  view returns (string memory) {... */\n            tag_5:\n              tag_20\n              0x04\n              dup1\n              calldatasize\n              sub\n              dup2\n              add\n              swap1\n              tag_21\n              swap2\n              swap1\n              tag_11\n              jump\t// in\n            tag_21:\n              tag_22\n              jump\t// in\n            tag_20:\n              mload(0x40)\n              tag_23\n              swap2\n              swap1\n              tag_24\n              jump\t// in\n            tag_23:\n              mload(0x40)\n              dup1\n              swap2\n              sub\n              swap1\n              return\n                /* \"contracts/SimpleStorage.sol\":192:304  function addPeople(uint256 _id, string memory _name) public {... */\n            tag_6:\n              tag_25\n              0x04\n              dup1\n              calldatasize\n              sub\n              dup2\n              add\n              swap1\n              tag_26\n              swap2\n              swap1\n              tag_27\n              jump\t// in\n            tag_26:\n              tag_28\n              jump\t// in\n            tag_25:\n              stop\n                /* \"contracts/SimpleStorage.sol\":698:789  function getCount() public view returns(uint256) {... */\n            tag_7:\n              tag_29\n              tag_30\n              jump\t// in\n            tag_29:\n              mload(0x40)\n              tag_31\n              swap2\n              swap1\n              tag_32\n              jump\t// in\n            tag_31:\n              mload(0x40)\n              dup1\n              swap2\n              sub\n              swap1\n              return\n                /* \"contracts/SimpleStorage.sol\":555:692  function deleteAtIndex(uint256 index) public {... */\n            tag_8:\n              tag_33\n              0x04\n              dup1\n              calldatasize\n              sub\n              dup2\n              add\n              swap1\n              tag_34\n              swap2\n              swap1\n              tag_11\n              jump\t// in\n            tag_34:\n              tag_35\n              jump\t// in\n            tag_33:\n              stop\n                /* \"contracts/SimpleStorage.sol\":310:421  function getPeople(uint256 index) public view returns (People memory) {... */\n            tag_12:\n                /* \"contracts/SimpleStorage.sol\":365:378  People memory */\n              tag_36\n              tag_37\n              jump\t// in\n            tag_36:\n                /* \"contracts/SimpleStorage.sol\":397:407  peopleList */\n              0x00\n                /* \"contracts/SimpleStorage.sol\":408:413  index */\n              dup3\n                /* \"contracts/SimpleStorage.sol\":397:414  peopleList[index] */\n              dup2\n              sload\n              dup2\n              lt\n              tag_39\n              jumpi\n              tag_40\n              tag_41\n              jump\t// in\n            tag_40:\n            tag_39:\n              swap1\n              0x00\n              mstore\n              keccak256(0x00, 0x20)\n              swap1\n              0x02\n              mul\n              add\n                /* \"contracts/SimpleStorage.sol\":390:414  return peopleList[index] */\n              mload(0x40)\n              dup1\n              0x40\n              add\n              0x40\n              mstore\n              swap1\n              dup2\n              0x00\n              dup3\n              add\n              sload\n              dup2\n              mstore\n              0x20\n              add\n              0x01\n              dup3\n              add\n              dup1\n              sload\n              tag_43\n              swap1\n              tag_44\n              jump\t// in\n            tag_43:\n              dup1\n              0x1f\n              add\n              0x20\n              dup1\n              swap2\n              div\n              mul\n              0x20\n              add\n              mload(0x40)\n              swap1\n              dup2\n              add\n              0x40\n              mstore\n              dup1\n              swap3\n              swap2\n              swap1\n              dup2\n              dup2\n              mstore\n              0x20\n              add\n              dup3\n              dup1\n              sload\n              tag_45\n              swap1\n              tag_44\n              jump\t// in\n            tag_45:\n              dup1\n              iszero\n              tag_46\n              jumpi\n              dup1\n              0x1f\n              lt\n              tag_47\n              jumpi\n              0x0100\n              dup1\n              dup4\n              sload\n              div\n              mul\n              dup4\n              mstore\n              swap2\n              0x20\n              add\n              swap2\n              jump(tag_46)\n            tag_47:\n              dup3\n              add\n              swap2\n              swap1\n              0x00\n              mstore\n              keccak256(0x00, 0x20)\n              swap1\n            tag_48:\n              dup2\n              sload\n              dup2\n              mstore\n              swap1\n              0x01\n              add\n              swap1\n              0x20\n              add\n              dup1\n              dup4\n              gt\n              tag_48\n              jumpi\n              dup3\n              swap1\n              sub\n              0x1f\n              and\n              dup3\n              add\n              swap2\n            tag_46:\n              pop\n              pop\n              pop\n              pop\n              pop\n              dup2\n              mstore\n              pop\n              pop\n              swap1\n              pop\n                /* \"contracts/SimpleStorage.sol\":310:421  function getPeople(uint256 index) public view returns (People memory) {... */\n              swap2\n              swap1\n              pop\n              jump\t// out\n                /* \"contracts/SimpleStorage.sol\":159:185  People[] public peopleList */\n            tag_17:\n              0x00\n              dup2\n              dup2\n              sload\n              dup2\n              lt\n              tag_49\n              jumpi\n              0x00\n              dup1\n              revert\n            tag_49:\n              swap1\n              0x00\n              mstore\n              keccak256(0x00, 0x20)\n              swap1\n              0x02\n              mul\n              add\n              0x00\n              swap2\n              pop\n              swap1\n              pop\n              dup1\n              0x00\n              add\n              sload\n              swap1\n              dup1\n              0x01\n              add\n              dup1\n              sload\n              tag_51\n              swap1\n              tag_44\n              jump\t// in\n            tag_51:\n              dup1\n              0x1f\n              add\n              0x20\n              dup1\n              swap2\n              div\n              mul\n              0x20\n              add\n              mload(0x40)\n              swap1\n              dup2\n              add\n              0x40\n              mstore\n              dup1\n              swap3\n              swap2\n              swap1\n              dup2\n              dup2\n              mstore\n              0x20\n              add\n              dup3\n              dup1\n              sload\n              tag_52\n              swap1\n              tag_44\n              jump\t// in\n            tag_52:\n              dup1\n              iszero\n              tag_53\n              jumpi\n              dup1\n              0x1f\n              lt\n              tag_54\n              jumpi\n              0x0100\n              dup1\n              dup4\n              sload\n              div\n              mul\n              dup4\n              mstore\n              swap2\n              0x20\n              add\n              swap2\n              jump(tag_53)\n            tag_54:\n              dup3\n              add\n              swap2\n              swap1\n              0x00\n              mstore\n              keccak256(0x00, 0x20)\n              swap1\n            tag_55:\n              dup2\n              sload\n              dup2\n              mstore\n              swap1\n              0x01\n              add\n              swap1\n              0x20\n              add\n              dup1\n              dup4\n              gt\n              tag_55\n              jumpi\n              dup3\n              swap1\n              sub\n              0x1f\n              and\n              dup3\n              add\n              swap2\n            tag_53:\n              pop\n              pop\n              pop\n              pop\n              pop\n              swap1\n              pop\n              dup3\n              jump\t// out\n                /* \"contracts/SimpleStorage.sol\":427:549  function getPersonName(uint256 index) public  view returns (string memory) {... */\n            tag_22:\n                /* \"contracts/SimpleStorage.sol\":487:500  string memory */\n              0x60\n                /* \"contracts/SimpleStorage.sol\":520:530  peopleList */\n              0x00\n                /* \"contracts/SimpleStorage.sol\":531:536  index */\n              dup3\n                /* \"contracts/SimpleStorage.sol\":520:537  peopleList[index] */\n              dup2\n              sload\n              dup2\n              lt\n              tag_57\n              jumpi\n              tag_58\n              tag_41\n              jump\t// in\n            tag_58:\n            tag_57:\n              swap1\n              0x00\n              mstore\n              keccak256(0x00, 0x20)\n              swap1\n              0x02\n              mul\n              add\n                /* \"contracts/SimpleStorage.sol\":520:542  peopleList[index].name */\n              0x01\n              add\n                /* \"contracts/SimpleStorage.sol\":512:542  return  peopleList[index].name */\n              dup1\n              sload\n              tag_60\n              swap1\n              tag_44\n              jump\t// in\n            tag_60:\n              dup1\n              0x1f\n              add\n              0x20\n              dup1\n              swap2\n              div\n              mul\n              0x20\n              add\n              mload(0x40)\n              swap1\n              dup2\n              add\n              0x40\n              mstore\n              dup1\n              swap3\n              swap2\n              swap1\n              dup2\n              dup2\n              mstore\n              0x20\n              add\n              dup3\n              dup1\n              sload\n              tag_61\n              swap1\n              tag_44\n              jump\t// in\n            tag_61:\n              dup1\n              iszero\n              tag_62\n              jumpi\n              dup1\n              0x1f\n              lt\n              tag_63\n              jumpi\n              0x0100\n              dup1\n              dup4\n              sload\n              div\n              mul\n              dup4\n              mstore\n              swap2\n              0x20\n              add\n              swap2\n              jump(tag_62)\n            tag_63:\n              dup3\n              add\n              swap2\n              swap1\n              0x00\n              mstore\n              keccak256(0x00, 0x20)\n              swap1\n            tag_64:\n              dup2\n              sload\n              dup2\n              mstore\n              swap1\n              0x01\n              add\n              swap1\n              0x20\n              add\n              dup1\n              dup4\n              gt\n              tag_64\n              jumpi\n              dup3\n              swap1\n              sub\n              0x1f\n              and\n              dup3\n              add\n              swap2\n            tag_62:\n              pop\n              pop\n              pop\n              pop\n              pop\n              swap1\n              pop\n                /* \"contracts/SimpleStorage.sol\":427:549  function getPersonName(uint256 index) public  view returns (string memory) {... */\n              swap2\n              swap1\n              pop\n              jump\t// out\n                /* \"contracts/SimpleStorage.sol\":192:304  function addPeople(uint256 _id, string memory _name) public {... */\n            tag_28:\n                /* \"contracts/SimpleStorage.sol\":262:272  peopleList */\n              0x00\n                /* \"contracts/SimpleStorage.sol\":278:296  People(_id, _name) */\n              mload(0x40)\n              dup1\n              0x40\n              add\n              0x40\n              mstore\n              dup1\n                /* \"contracts/SimpleStorage.sol\":285:288  _id */\n              dup5\n                /* \"contracts/SimpleStorage.sol\":278:296  People(_id, _name) */\n              dup2\n              mstore\n              0x20\n              add\n                /* \"contracts/SimpleStorage.sol\":290:295  _name */\n              dup4\n                /* \"contracts/SimpleStorage.sol\":278:296  People(_id, _name) */\n              dup2\n              mstore\n              pop\n                /* \"contracts/SimpleStorage.sol\":262:297  peopleList.push(People(_id, _name)) */\n              swap1\n              dup1\n              0x01\n              dup2\n              sload\n              add\n              dup1\n              dup3\n              sstore\n              dup1\n              swap2\n              pop\n              pop\n              0x01\n              swap1\n              sub\n              swap1\n              0x00\n              mstore\n              keccak256(0x00, 0x20)\n              swap1\n              0x02\n              mul\n              add\n              0x00\n              swap1\n              swap2\n              swap1\n              swap2\n              swap1\n              swap2\n              pop\n              0x00\n              dup3\n              add\n              mload\n              dup2\n              0x00\n              add\n              sstore\n              0x20\n              dup3\n              add\n              mload\n              dup2\n              0x01\n              add\n              swap1\n              dup2\n              tag_67\n              swap2\n              swap1\n              tag_68\n              jump\t// in\n            tag_67:\n              pop\n              pop\n              pop\n                /* \"contracts/SimpleStorage.sol\":192:304  function addPeople(uint256 _id, string memory _name) public {... */\n              pop\n              pop\n              jump\t// out\n                /* \"contracts/SimpleStorage.sol\":698:789  function getCount() public view returns(uint256) {... */\n            tag_30:\n                /* \"contracts/SimpleStorage.sol\":738:745  uint256 */\n              0x00\n                /* \"contracts/SimpleStorage.sol\":765:775  peopleList */\n              dup1\n                /* \"contracts/SimpleStorage.sol\":765:782  peopleList.length */\n              dup1\n              sload\n              swap1\n              pop\n                /* \"contracts/SimpleStorage.sol\":757:782  return  peopleList.length */\n              swap1\n              pop\n                /* \"contracts/SimpleStorage.sol\":698:789  function getCount() public view returns(uint256) {... */\n              swap1\n              jump\t// out\n                /* \"contracts/SimpleStorage.sol\":555:692  function deleteAtIndex(uint256 index) public {... */\n            tag_35:\n                /* \"contracts/SimpleStorage.sol\":634:639  index */\n              dup1\n                /* \"contracts/SimpleStorage.sol\":614:624  peopleList */\n              0x00\n                /* \"contracts/SimpleStorage.sol\":614:631  peopleList.length */\n              dup1\n              sload\n              swap1\n              pop\n                /* \"contracts/SimpleStorage.sol\":614:639  peopleList.length > index */\n              gt\n                /* \"contracts/SimpleStorage.sol\":610:686  if (peopleList.length > index) {... */\n              iszero\n              tag_71\n              jumpi\n                /* \"contracts/SimpleStorage.sol\":658:668  peopleList */\n              0x00\n                /* \"contracts/SimpleStorage.sol\":669:674  index */\n              dup2\n                /* \"contracts/SimpleStorage.sol\":658:675  peopleList[index] */\n              dup2\n              sload\n              dup2\n              lt\n              tag_72\n              jumpi\n              tag_73\n              tag_41\n              jump\t// in\n            tag_73:\n            tag_72:\n              swap1\n              0x00\n              mstore\n              keccak256(0x00, 0x20)\n              swap1\n              0x02\n              mul\n              add\n              0x00\n                /* \"contracts/SimpleStorage.sol\":651:675  delete peopleList[index] */\n              dup1\n              dup3\n              add\n              0x00\n              swap1\n              sstore\n              0x01\n              dup3\n              add\n              0x00\n              tag_75\n              swap2\n              swap1\n              tag_76\n              jump\t// in\n            tag_75:\n              pop\n              pop\n                /* \"contracts/SimpleStorage.sol\":610:686  if (peopleList.length > index) {... */\n            tag_71:\n                /* \"contracts/SimpleStorage.sol\":555:692  function deleteAtIndex(uint256 index) public {... */\n              pop\n              jump\t// out\n            tag_37:\n              mload(0x40)\n              dup1\n              0x40\n              add\n              0x40\n              mstore\n              dup1\n              0x00\n              dup2\n              mstore\n              0x20\n              add\n              0x60\n              dup2\n              mstore\n              pop\n              swap1\n              jump\t// out\n            tag_76:\n              pop\n              dup1\n              sload\n              tag_77\n              swap1\n              tag_44\n              jump\t// in\n            tag_77:\n              0x00\n              dup3\n              sstore\n              dup1\n              0x1f\n              lt\n              tag_79\n              jumpi\n              pop\n              jump(tag_78)\n            tag_79:\n              0x1f\n              add\n              0x20\n              swap1\n              div\n              swap1\n              0x00\n              mstore\n              keccak256(0x00, 0x20)\n              swap1\n              dup2\n              add\n              swap1\n              tag_80\n              swap2\n              swap1\n              tag_81\n              jump\t// in\n            tag_80:\n            tag_78:\n              pop\n              jump\t// out\n            tag_81:\n            tag_82:\n              dup1\n              dup3\n              gt\n              iszero\n              tag_83\n              jumpi\n              0x00\n              dup2\n              0x00\n              swap1\n              sstore\n              pop\n              0x01\n              add\n              jump(tag_82)\n            tag_83:\n              pop\n              swap1\n              jump\t// out\n                /* \"#utility.yul\":7:82   */\n            tag_84:\n                /* \"#utility.yul\":40:46   */\n              0x00\n                /* \"#utility.yul\":73:75   */\n              0x40\n                /* \"#utility.yul\":67:76   */\n              mload\n                /* \"#utility.yul\":57:76   */\n              swap1\n              pop\n                /* \"#utility.yul\":7:82   */\n              swap1\n              jump\t// out\n                /* \"#utility.yul\":88:205   */\n            tag_85:\n                /* \"#utility.yul\":197:198   */\n              0x00\n                /* \"#utility.yul\":194:195   */\n              dup1\n                /* \"#utility.yul\":187:199   */\n              revert\n                /* \"#utility.yul\":211:328   */\n            tag_86:\n                /* \"#utility.yul\":320:321   */\n              0x00\n                /* \"#utility.yul\":317:318   */\n              dup1\n                /* \"#utility.yul\":310:322   */\n              revert\n                /* \"#utility.yul\":334:411   */\n            tag_87:\n                /* \"#utility.yul\":371:378   */\n              0x00\n                /* \"#utility.yul\":400:405   */\n              dup2\n                /* \"#utility.yul\":389:405   */\n              swap1\n              pop\n                /* \"#utility.yul\":334:411   */\n              swap2\n              swap1\n              pop\n              jump\t// out\n                /* \"#utility.yul\":417:539   */\n            tag_88:\n                /* \"#utility.yul\":490:514   */\n              tag_131\n                /* \"#utility.yul\":508:513   */\n              dup2\n                /* \"#utility.yul\":490:514   */\n              tag_87\n              jump\t// in\n            tag_131:\n                /* \"#utility.yul\":483:488   */\n              dup2\n                /* \"#utility.yul\":480:515   */\n              eq\n                /* \"#utility.yul\":470:533   */\n              tag_132\n              jumpi\n                /* \"#utility.yul\":529:530   */\n              0x00\n                /* \"#utility.yul\":526:527   */\n              dup1\n                /* \"#utility.yul\":519:531   */\n              revert\n                /* \"#utility.yul\":470:533   */\n            tag_132:\n                /* \"#utility.yul\":417:539   */\n              pop\n              jump\t// out\n                /* \"#utility.yul\":545:684   */\n            tag_89:\n                /* \"#utility.yul\":591:596   */\n              0x00\n                /* \"#utility.yul\":629:635   */\n              dup2\n                /* \"#utility.yul\":616:636   */\n              calldataload\n                /* \"#utility.yul\":607:636   */\n              swap1\n              pop\n                /* \"#utility.yul\":645:678   */\n              tag_134\n                /* \"#utility.yul\":672:677   */\n              dup2\n                /* \"#utility.yul\":645:678   */\n              tag_88\n              jump\t// in\n            tag_134:\n                /* \"#utility.yul\":545:684   */\n              swap3\n              swap2\n              pop\n              pop\n              jump\t// out\n                /* \"#utility.yul\":690:1019   */\n            tag_11:\n                /* \"#utility.yul\":749:755   */\n              0x00\n                /* \"#utility.yul\":798:800   */\n              0x20\n                /* \"#utility.yul\":786:795   */\n              dup3\n                /* \"#utility.yul\":777:784   */\n              dup5\n                /* \"#utility.yul\":773:796   */\n              sub\n                /* \"#utility.yul\":769:801   */\n              slt\n                /* \"#utility.yul\":766:885   */\n              iszero\n              tag_136\n              jumpi\n                /* \"#utility.yul\":804:883   */\n              tag_137\n              tag_85\n              jump\t// in\n            tag_137:\n                /* \"#utility.yul\":766:885   */\n            tag_136:\n                /* \"#utility.yul\":924:925   */\n              0x00\n                /* \"#utility.yul\":949:1002   */\n              tag_138\n                /* \"#utility.yul\":994:1001   */\n              dup5\n                /* \"#utility.yul\":985:991   */\n              dup3\n                /* \"#utility.yul\":974:983   */\n              dup6\n                /* \"#utility.yul\":970:992   */\n              add\n                /* \"#utility.yul\":949:1002   */\n              tag_89\n              jump\t// in\n            tag_138:\n                /* \"#utility.yul\":939:1002   */\n              swap2\n              pop\n                /* \"#utility.yul\":895:1012   */\n              pop\n                /* \"#utility.yul\":690:1019   */\n              swap3\n              swap2\n              pop\n              pop\n              jump\t// out\n                /* \"#utility.yul\":1025:1133   */\n            tag_90:\n                /* \"#utility.yul\":1102:1126   */\n              tag_140\n                /* \"#utility.yul\":1120:1125   */\n              dup2\n                /* \"#utility.yul\":1102:1126   */\n              tag_87\n              jump\t// in\n            tag_140:\n                /* \"#utility.yul\":1097:1100   */\n              dup3\n                /* \"#utility.yul\":1090:1127   */\n              mstore\n                /* \"#utility.yul\":1025:1133   */\n              pop\n              pop\n              jump\t// out\n                /* \"#utility.yul\":1139:1238   */\n            tag_91:\n                /* \"#utility.yul\":1191:1197   */\n              0x00\n                /* \"#utility.yul\":1225:1230   */\n              dup2\n                /* \"#utility.yul\":1219:1231   */\n              mload\n                /* \"#utility.yul\":1209:1231   */\n              swap1\n              pop\n                /* \"#utility.yul\":1139:1238   */\n              swap2\n              swap1\n              pop\n              jump\t// out\n                /* \"#utility.yul\":1244:1403   */\n            tag_92:\n                /* \"#utility.yul\":1318:1329   */\n              0x00\n                /* \"#utility.yul\":1352:1358   */\n              dup3\n                /* \"#utility.yul\":1347:1350   */\n              dup3\n                /* \"#utility.yul\":1340:1359   */\n              mstore\n                /* \"#utility.yul\":1392:1396   */\n              0x20\n                /* \"#utility.yul\":1387:1390   */\n              dup3\n                /* \"#utility.yul\":1383:1397   */\n              add\n                /* \"#utility.yul\":1368:1397   */\n              swap1\n              pop\n                /* \"#utility.yul\":1244:1403   */\n              swap3\n              swap2\n              pop\n              pop\n              jump\t// out\n                /* \"#utility.yul\":1409:1548   */\n            tag_93:\n                /* \"#utility.yul\":1498:1504   */\n              dup3\n                /* \"#utility.yul\":1493:1496   */\n              dup2\n                /* \"#utility.yul\":1488:1491   */\n              dup4\n                /* \"#utility.yul\":1482:1505   */\n              mcopy\n                /* \"#utility.yul\":1539:1540   */\n              0x00\n                /* \"#utility.yul\":1530:1536   */\n              dup4\n                /* \"#utility.yul\":1525:1528   */\n              dup4\n                /* \"#utility.yul\":1521:1537   */\n              add\n                /* \"#utility.yul\":1514:1541   */\n              mstore\n                /* \"#utility.yul\":1409:1548   */\n              pop\n              pop\n              pop\n              jump\t// out\n                /* \"#utility.yul\":1554:1656   */\n            tag_94:\n                /* \"#utility.yul\":1595:1601   */\n              0x00\n                /* \"#utility.yul\":1646:1648   */\n              0x1f\n                /* \"#utility.yul\":1642:1649   */\n              not\n                /* \"#utility.yul\":1637:1639   */\n              0x1f\n                /* \"#utility.yul\":1630:1635   */\n              dup4\n                /* \"#utility.yul\":1626:1640   */\n              add\n                /* \"#utility.yul\":1622:1650   */\n              and\n                /* \"#utility.yul\":1612:1650   */\n              swap1\n              pop\n                /* \"#utility.yul\":1554:1656   */\n              swap2\n              swap1\n              pop\n              jump\t// out\n                /* \"#utility.yul\":1662:2019   */\n            tag_95:\n                /* \"#utility.yul\":1740:1743   */\n              0x00\n                /* \"#utility.yul\":1768:1807   */\n              tag_146\n                /* \"#utility.yul\":1801:1806   */\n              dup3\n                /* \"#utility.yul\":1768:1807   */\n              tag_91\n              jump\t// in\n            tag_146:\n                /* \"#utility.yul\":1823:1884   */\n              tag_147\n                /* \"#utility.yul\":1877:1883   */\n              dup2\n                /* \"#utility.yul\":1872:1875   */\n              dup6\n                /* \"#utility.yul\":1823:1884   */\n              tag_92\n              jump\t// in\n            tag_147:\n                /* \"#utility.yul\":1816:1884   */\n              swap4\n              pop\n                /* \"#utility.yul\":1893:1958   */\n              tag_148\n                /* \"#utility.yul\":1951:1957   */\n              dup2\n                /* \"#utility.yul\":1946:1949   */\n              dup6\n                /* \"#utility.yul\":1939:1943   */\n              0x20\n                /* \"#utility.yul\":1932:1937   */\n              dup7\n                /* \"#utility.yul\":1928:1944   */\n              add\n                /* \"#utility.yul\":1893:1958   */\n              tag_93\n              jump\t// in\n            tag_148:\n                /* \"#utility.yul\":1983:2012   */\n              tag_149\n                /* \"#utility.yul\":2005:2011   */\n              dup2\n                /* \"#utility.yul\":1983:2012   */\n              tag_94\n              jump\t// in\n            tag_149:\n                /* \"#utility.yul\":1978:1981   */\n              dup5\n                /* \"#utility.yul\":1974:2013   */\n              add\n                /* \"#utility.yul\":1967:2013   */\n              swap2\n              pop\n                /* \"#utility.yul\":1744:2019   */\n              pop\n                /* \"#utility.yul\":1662:2019   */\n              swap3\n              swap2\n              pop\n              pop\n              jump\t// out\n                /* \"#utility.yul\":2091:2687   */\n            tag_96:\n                /* \"#utility.yul\":2202:2205   */\n              0x00\n                /* \"#utility.yul\":2238:2242   */\n              0x40\n                /* \"#utility.yul\":2233:2236   */\n              dup4\n                /* \"#utility.yul\":2229:2243   */\n              add\n                /* \"#utility.yul\":2323:2327   */\n              0x00\n                /* \"#utility.yul\":2316:2321   */\n              dup4\n                /* \"#utility.yul\":2312:2328   */\n              add\n                /* \"#utility.yul\":2306:2329   */\n              mload\n                /* \"#utility.yul\":2342:2405   */\n              tag_151\n                /* \"#utility.yul\":2399:2403   */\n              0x00\n                /* \"#utility.yul\":2394:2397   */\n              dup7\n                /* \"#utility.yul\":2390:2404   */\n              add\n                /* \"#utility.yul\":2376:2388   */\n              dup3\n                /* \"#utility.yul\":2342:2405   */\n              tag_90\n              jump\t// in\n            tag_151:\n                /* \"#utility.yul\":2253:2415   */\n              pop\n                /* \"#utility.yul\":2497:2501   */\n              0x20\n                /* \"#utility.yul\":2490:2495   */\n              dup4\n                /* \"#utility.yul\":2486:2502   */\n              add\n                /* \"#utility.yul\":2480:2503   */\n              mload\n                /* \"#utility.yul\":2550:2553   */\n              dup5\n                /* \"#utility.yul\":2544:2548   */\n              dup3\n                /* \"#utility.yul\":2540:2554   */\n              sub\n                /* \"#utility.yul\":2533:2537   */\n              0x20\n                /* \"#utility.yul\":2528:2531   */\n              dup7\n                /* \"#utility.yul\":2524:2538   */\n              add\n                /* \"#utility.yul\":2517:2555   */\n              mstore\n                /* \"#utility.yul\":2576:2649   */\n              tag_152\n                /* \"#utility.yul\":2644:2648   */\n              dup3\n                /* \"#utility.yul\":2630:2642   */\n              dup3\n                /* \"#utility.yul\":2576:2649   */\n              tag_95\n              jump\t// in\n            tag_152:\n                /* \"#utility.yul\":2568:2649   */\n              swap2\n              pop\n                /* \"#utility.yul\":2425:2660   */\n              pop\n                /* \"#utility.yul\":2677:2681   */\n              dup1\n                /* \"#utility.yul\":2670:2681   */\n              swap2\n              pop\n                /* \"#utility.yul\":2207:2687   */\n              pop\n                /* \"#utility.yul\":2091:2687   */\n              swap3\n              swap2\n              pop\n              pop\n              jump\t// out\n                /* \"#utility.yul\":2693:3050   */\n            tag_14:\n                /* \"#utility.yul\":2828:2832   */\n              0x00\n                /* \"#utility.yul\":2866:2868   */\n              0x20\n                /* \"#utility.yul\":2855:2864   */\n              dup3\n                /* \"#utility.yul\":2851:2869   */\n              add\n                /* \"#utility.yul\":2843:2869   */\n              swap1\n              pop\n                /* \"#utility.yul\":2915:2924   */\n              dup2\n                /* \"#utility.yul\":2909:2913   */\n              dup2\n                /* \"#utility.yul\":2905:2925   */\n              sub\n                /* \"#utility.yul\":2901:2902   */\n              0x00\n                /* \"#utility.yul\":2890:2899   */\n              dup4\n                /* \"#utility.yul\":2886:2903   */\n              add\n                /* \"#utility.yul\":2879:2926   */\n              mstore\n                /* \"#utility.yul\":2943:3043   */\n              tag_154\n                /* \"#utility.yul\":3038:3042   */\n              dup2\n                /* \"#utility.yul\":3029:3035   */\n              dup5\n                /* \"#utility.yul\":2943:3043   */\n              tag_96\n              jump\t// in\n            tag_154:\n                /* \"#utility.yul\":2935:3043   */\n              swap1\n              pop\n                /* \"#utility.yul\":2693:3050   */\n              swap3\n              swap2\n              pop\n              pop\n              jump\t// out\n                /* \"#utility.yul\":3056:3174   */\n            tag_97:\n                /* \"#utility.yul\":3143:3167   */\n              tag_156\n                /* \"#utility.yul\":3161:3166   */\n              dup2\n                /* \"#utility.yul\":3143:3167   */\n              tag_87\n              jump\t// in\n            tag_156:\n                /* \"#utility.yul\":3138:3141   */\n              dup3\n                /* \"#utility.yul\":3131:3168   */\n              mstore\n                /* \"#utility.yul\":3056:3174   */\n              pop\n              pop\n              jump\t// out\n                /* \"#utility.yul\":3180:3349   */\n            tag_98:\n                /* \"#utility.yul\":3264:3275   */\n              0x00\n                /* \"#utility.yul\":3298:3304   */\n              dup3\n                /* \"#utility.yul\":3293:3296   */\n              dup3\n                /* \"#utility.yul\":3286:3305   */\n              mstore\n                /* \"#utility.yul\":3338:3342   */\n              0x20\n                /* \"#utility.yul\":3333:3336   */\n              dup3\n                /* \"#utility.yul\":3329:3343   */\n              add\n                /* \"#utility.yul\":3314:3343   */\n              swap1\n              pop\n                /* \"#utility.yul\":3180:3349   */\n              swap3\n              swap2\n              pop\n              pop\n              jump\t// out\n                /* \"#utility.yul\":3355:3732   */\n            tag_99:\n                /* \"#utility.yul\":3443:3446   */\n              0x00\n                /* \"#utility.yul\":3471:3510   */\n              tag_159\n                /* \"#utility.yul\":3504:3509   */\n              dup3\n                /* \"#utility.yul\":3471:3510   */\n              tag_91\n              jump\t// in\n            tag_159:\n                /* \"#utility.yul\":3526:3597   */\n              tag_160\n                /* \"#utility.yul\":3590:3596   */\n              dup2\n                /* \"#utility.yul\":3585:3588   */\n              dup6\n                /* \"#utility.yul\":3526:3597   */\n              tag_98\n              jump\t// in\n            tag_160:\n                /* \"#utility.yul\":3519:3597   */\n              swap4\n              pop\n                /* \"#utility.yul\":3606:3671   */\n              tag_161\n                /* \"#utility.yul\":3664:3670   */\n              dup2\n                /* \"#utility.yul\":3659:3662   */\n              dup6\n                /* \"#utility.yul\":3652:3656   */\n              0x20\n                /* \"#utility.yul\":3645:3650   */\n              dup7\n                /* \"#utility.yul\":3641:3657   */\n              add\n                /* \"#utility.yul\":3606:3671   */\n              tag_93\n              jump\t// in\n            tag_161:\n                /* \"#utility.yul\":3696:3725   */\n              tag_162\n                /* \"#utility.yul\":3718:3724   */\n              dup2\n                /* \"#utility.yul\":3696:3725   */\n              tag_94\n              jump\t// in\n            tag_162:\n                /* \"#utility.yul\":3691:3694   */\n              dup5\n                /* \"#utility.yul\":3687:3726   */\n              add\n                /* \"#utility.yul\":3680:3726   */\n              swap2\n              pop\n                /* \"#utility.yul\":3447:3732   */\n              pop\n                /* \"#utility.yul\":3355:3732   */\n              swap3\n              swap2\n              pop\n              pop\n              jump\t// out\n                /* \"#utility.yul\":3738:4161   */\n            tag_19:\n                /* \"#utility.yul\":3879:3883   */\n              0x00\n                /* \"#utility.yul\":3917:3919   */\n              0x40\n                /* \"#utility.yul\":3906:3915   */\n              dup3\n                /* \"#utility.yul\":3902:3920   */\n              add\n                /* \"#utility.yul\":3894:3920   */\n              swap1\n              pop\n                /* \"#utility.yul\":3930:4001   */\n              tag_164\n                /* \"#utility.yul\":3998:3999   */\n              0x00\n                /* \"#utility.yul\":3987:3996   */\n              dup4\n                /* \"#utility.yul\":3983:4000   */\n              add\n                /* \"#utility.yul\":3974:3980   */\n              dup6\n                /* \"#utility.yul\":3930:4001   */\n              tag_97\n              jump\t// in\n            tag_164:\n                /* \"#utility.yul\":4048:4057   */\n              dup2\n                /* \"#utility.yul\":4042:4046   */\n              dup2\n                /* \"#utility.yul\":4038:4058   */\n              sub\n                /* \"#utility.yul\":4033:4035   */\n              0x20\n                /* \"#utility.yul\":4022:4031   */\n              dup4\n                /* \"#utility.yul\":4018:4036   */\n              add\n                /* \"#utility.yul\":4011:4059   */\n              mstore\n                /* \"#utility.yul\":4076:4154   */\n              tag_165\n                /* \"#utility.yul\":4149:4153   */\n              dup2\n                /* \"#utility.yul\":4140:4146   */\n              dup5\n                /* \"#utility.yul\":4076:4154   */\n              tag_99\n              jump\t// in\n            tag_165:\n                /* \"#utility.yul\":4068:4154   */\n              swap1\n              pop\n                /* \"#utility.yul\":3738:4161   */\n              swap4\n              swap3\n              pop\n              pop\n              pop\n              jump\t// out\n                /* \"#utility.yul\":4167:4480   */\n            tag_24:\n                /* \"#utility.yul\":4280:4284   */\n              0x00\n                /* \"#utility.yul\":4318:4320   */\n              0x20\n                /* \"#utility.yul\":4307:4316   */\n              dup3\n                /* \"#utility.yul\":4303:4321   */\n              add\n                /* \"#utility.yul\":4295:4321   */\n              swap1\n              pop\n                /* \"#utility.yul\":4367:4376   */\n              dup2\n                /* \"#utility.yul\":4361:4365   */\n              dup2\n                /* \"#utility.yul\":4357:4377   */\n              sub\n                /* \"#utility.yul\":4353:4354   */\n              0x00\n                /* \"#utility.yul\":4342:4351   */\n              dup4\n                /* \"#utility.yul\":4338:4355   */\n              add\n                /* \"#utility.yul\":4331:4378   */\n              mstore\n                /* \"#utility.yul\":4395:4473   */\n              tag_167\n                /* \"#utility.yul\":4468:4472   */\n              dup2\n                /* \"#utility.yul\":4459:4465   */\n              dup5\n                /* \"#utility.yul\":4395:4473   */\n              tag_99\n              jump\t// in\n            tag_167:\n                /* \"#utility.yul\":4387:4473   */\n              swap1\n              pop\n                /* \"#utility.yul\":4167:4480   */\n              swap3\n              swap2\n              pop\n              pop\n              jump\t// out\n                /* \"#utility.yul\":4486:4603   */\n            tag_100:\n                /* \"#utility.yul\":4595:4596   */\n              0x00\n                /* \"#utility.yul\":4592:4593   */\n              dup1\n                /* \"#utility.yul\":4585:4597   */\n              revert\n                /* \"#utility.yul\":4609:4726   */\n            tag_101:\n                /* \"#utility.yul\":4718:4719   */\n              0x00\n                /* \"#utility.yul\":4715:4716   */\n              dup1\n                /* \"#utility.yul\":4708:4720   */\n              revert\n                /* \"#utility.yul\":4732:4912   */\n            tag_102:\n                /* \"#utility.yul\":4780:4857   */\n              0x4e487b7100000000000000000000000000000000000000000000000000000000\n                /* \"#utility.yul\":4777:4778   */\n              0x00\n                /* \"#utility.yul\":4770:4858   */\n              mstore\n                /* \"#utility.yul\":4877:4881   */\n              0x41\n                /* \"#utility.yul\":4874:4875   */\n              0x04\n                /* \"#utility.yul\":4867:4882   */\n              mstore\n                /* \"#utility.yul\":4901:4905   */\n              0x24\n                /* \"#utility.yul\":4898:4899   */\n              0x00\n                /* \"#utility.yul\":4891:4906   */\n              revert\n                /* \"#utility.yul\":4918:5199   */\n            tag_103:\n                /* \"#utility.yul\":5001:5028   */\n              tag_172\n                /* \"#utility.yul\":5023:5027   */\n              dup3\n                /* \"#utility.yul\":5001:5028   */\n              tag_94\n              jump\t// in\n            tag_172:\n                /* \"#utility.yul\":4993:4999   */\n              dup2\n                /* \"#utility.yul\":4989:5029   */\n              add\n                /* \"#utility.yul\":5131:5137   */\n              dup2\n                /* \"#utility.yul\":5119:5129   */\n              dup2\n                /* \"#utility.yul\":5116:5138   */\n              lt\n                /* \"#utility.yul\":5095:5113   */\n              0xffffffffffffffff\n                /* \"#utility.yul\":5083:5093   */\n              dup3\n                /* \"#utility.yul\":5080:5114   */\n              gt\n                /* \"#utility.yul\":5077:5139   */\n              or\n                /* \"#utility.yul\":5074:5162   */\n              iszero\n              tag_173\n              jumpi\n                /* \"#utility.yul\":5142:5160   */\n              tag_174\n              tag_102\n              jump\t// in\n            tag_174:\n                /* \"#utility.yul\":5074:5162   */\n            tag_173:\n                /* \"#utility.yul\":5182:5192   */\n              dup1\n                /* \"#utility.yul\":5178:5180   */\n              0x40\n                /* \"#utility.yul\":5171:5193   */\n              mstore\n                /* \"#utility.yul\":4961:5199   */\n              pop\n                /* \"#utility.yul\":4918:5199   */\n              pop\n              pop\n              jump\t// out\n                /* \"#utility.yul\":5205:5334   */\n            tag_104:\n                /* \"#utility.yul\":5239:5245   */\n              0x00\n                /* \"#utility.yul\":5266:5286   */\n              tag_176\n              tag_84\n              jump\t// in\n            tag_176:\n                /* \"#utility.yul\":5256:5286   */\n              swap1\n              pop\n                /* \"#utility.yul\":5295:5328   */\n              tag_177\n                /* \"#utility.yul\":5323:5327   */\n              dup3\n                /* \"#utility.yul\":5315:5321   */\n              dup3\n                /* \"#utility.yul\":5295:5328   */\n              tag_103\n              jump\t// in\n            tag_177:\n                /* \"#utility.yul\":5205:5334   */\n              swap2\n              swap1\n              pop\n              jump\t// out\n                /* \"#utility.yul\":5340:5648   */\n            tag_105:\n                /* \"#utility.yul\":5402:5406   */\n              0x00\n                /* \"#utility.yul\":5492:5510   */\n              0xffffffffffffffff\n                /* \"#utility.yul\":5484:5490   */\n              dup3\n                /* \"#utility.yul\":5481:5511   */\n              gt\n                /* \"#utility.yul\":5478:5534   */\n              iszero\n              tag_179\n              jumpi\n                /* \"#utility.yul\":5514:5532   */\n              tag_180\n              tag_102\n              jump\t// in\n            tag_180:\n                /* \"#utility.yul\":5478:5534   */\n            tag_179:\n                /* \"#utility.yul\":5552:5581   */\n              tag_181\n                /* \"#utility.yul\":5574:5580   */\n              dup3\n                /* \"#utility.yul\":5552:5581   */\n              tag_94\n              jump\t// in\n            tag_181:\n                /* \"#utility.yul\":5544:5581   */\n              swap1\n              pop\n                /* \"#utility.yul\":5636:5640   */\n              0x20\n                /* \"#utility.yul\":5630:5634   */\n              dup2\n                /* \"#utility.yul\":5626:5641   */\n              add\n                /* \"#utility.yul\":5618:5641   */\n              swap1\n              pop\n                /* \"#utility.yul\":5340:5648   */\n              swap2\n              swap1\n              pop\n              jump\t// out\n                /* \"#utility.yul\":5654:5802   */\n            tag_106:\n                /* \"#utility.yul\":5752:5758   */\n              dup3\n                /* \"#utility.yul\":5747:5750   */\n              dup2\n                /* \"#utility.yul\":5742:5745   */\n              dup4\n                /* \"#utility.yul\":5729:5759   */\n              calldatacopy\n                /* \"#utility.yul\":5793:5794   */\n              0x00\n                /* \"#utility.yul\":5784:5790   */\n              dup4\n                /* \"#utility.yul\":5779:5782   */\n              dup4\n                /* \"#utility.yul\":5775:5791   */\n              add\n                /* \"#utility.yul\":5768:5795   */\n              mstore\n                /* \"#utility.yul\":5654:5802   */\n              pop\n              pop\n              pop\n              jump\t// out\n                /* \"#utility.yul\":5808:6233   */\n            tag_107:\n                /* \"#utility.yul\":5886:5891   */\n              0x00\n                /* \"#utility.yul\":5911:5977   */\n              tag_184\n                /* \"#utility.yul\":5927:5976   */\n              tag_185\n                /* \"#utility.yul\":5969:5975   */\n              dup5\n                /* \"#utility.yul\":5927:5976   */\n              tag_105\n              jump\t// in\n            tag_185:\n                /* \"#utility.yul\":5911:5977   */\n              tag_104\n              jump\t// in\n            tag_184:\n                /* \"#utility.yul\":5902:5977   */\n              swap1\n              pop\n                /* \"#utility.yul\":6000:6006   */\n              dup3\n                /* \"#utility.yul\":5993:5998   */\n              dup2\n                /* \"#utility.yul\":5986:6007   */\n              mstore\n                /* \"#utility.yul\":6038:6042   */\n              0x20\n                /* \"#utility.yul\":6031:6036   */\n              dup2\n                /* \"#utility.yul\":6027:6043   */\n              add\n                /* \"#utility.yul\":6076:6079   */\n              dup5\n                /* \"#utility.yul\":6067:6073   */\n              dup5\n                /* \"#utility.yul\":6062:6065   */\n              dup5\n                /* \"#utility.yul\":6058:6074   */\n              add\n                /* \"#utility.yul\":6055:6080   */\n              gt\n                /* \"#utility.yul\":6052:6164   */\n              iszero\n              tag_186\n              jumpi\n                /* \"#utility.yul\":6083:6162   */\n              tag_187\n              tag_101\n              jump\t// in\n            tag_187:\n                /* \"#utility.yul\":6052:6164   */\n            tag_186:\n                /* \"#utility.yul\":6173:6227   */\n              tag_188\n                /* \"#utility.yul\":6220:6226   */\n              dup5\n                /* \"#utility.yul\":6215:6218   */\n              dup3\n                /* \"#utility.yul\":6210:6213   */\n              dup6\n                /* \"#utility.yul\":6173:6227   */\n              tag_106\n              jump\t// in\n            tag_188:\n                /* \"#utility.yul\":5892:6233   */\n              pop\n                /* \"#utility.yul\":5808:6233   */\n              swap4\n              swap3\n              pop\n              pop\n              pop\n              jump\t// out\n                /* \"#utility.yul\":6253:6593   */\n            tag_108:\n                /* \"#utility.yul\":6309:6314   */\n              0x00\n                /* \"#utility.yul\":6358:6361   */\n              dup3\n                /* \"#utility.yul\":6351:6355   */\n              0x1f\n                /* \"#utility.yul\":6343:6349   */\n              dup4\n                /* \"#utility.yul\":6339:6356   */\n              add\n                /* \"#utility.yul\":6335:6362   */\n              slt\n                /* \"#utility.yul\":6325:6447   */\n              tag_190\n              jumpi\n                /* \"#utility.yul\":6366:6445   */\n              tag_191\n              tag_100\n              jump\t// in\n            tag_191:\n                /* \"#utility.yul\":6325:6447   */\n            tag_190:\n                /* \"#utility.yul\":6483:6489   */\n              dup2\n                /* \"#utility.yul\":6470:6490   */\n              calldataload\n                /* \"#utility.yul\":6508:6587   */\n              tag_192\n                /* \"#utility.yul\":6583:6586   */\n              dup5\n                /* \"#utility.yul\":6575:6581   */\n              dup3\n                /* \"#utility.yul\":6568:6572   */\n              0x20\n                /* \"#utility.yul\":6560:6566   */\n              dup7\n                /* \"#utility.yul\":6556:6573   */\n              add\n                /* \"#utility.yul\":6508:6587   */\n              tag_107\n              jump\t// in\n            tag_192:\n                /* \"#utility.yul\":6499:6587   */\n              swap2\n              pop\n                /* \"#utility.yul\":6315:6593   */\n              pop\n                /* \"#utility.yul\":6253:6593   */\n              swap3\n              swap2\n              pop\n              pop\n              jump\t// out\n                /* \"#utility.yul\":6599:7253   */\n            tag_27:\n                /* \"#utility.yul\":6677:6683   */\n              0x00\n                /* \"#utility.yul\":6685:6691   */\n              dup1\n                /* \"#utility.yul\":6734:6736   */\n              0x40\n                /* \"#utility.yul\":6722:6731   */\n              dup4\n                /* \"#utility.yul\":6713:6720   */\n              dup6\n                /* \"#utility.yul\":6709:6732   */\n              sub\n                /* \"#utility.yul\":6705:6737   */\n              slt\n                /* \"#utility.yul\":6702:6821   */\n              iszero\n              tag_194\n              jumpi\n                /* \"#utility.yul\":6740:6819   */\n              tag_195\n              tag_85\n              jump\t// in\n            tag_195:\n                /* \"#utility.yul\":6702:6821   */\n            tag_194:\n                /* \"#utility.yul\":6860:6861   */\n              0x00\n                /* \"#utility.yul\":6885:6938   */\n              tag_196\n                /* \"#utility.yul\":6930:6937   */\n              dup6\n                /* \"#utility.yul\":6921:6927   */\n              dup3\n                /* \"#utility.yul\":6910:6919   */\n              dup7\n                /* \"#utility.yul\":6906:6928   */\n              add\n                /* \"#utility.yul\":6885:6938   */\n              tag_89\n              jump\t// in\n            tag_196:\n                /* \"#utility.yul\":6875:6938   */\n              swap3\n              pop\n                /* \"#utility.yul\":6831:6948   */\n              pop\n                /* \"#utility.yul\":7015:7017   */\n              0x20\n                /* \"#utility.yul\":7004:7013   */\n              dup4\n                /* \"#utility.yul\":7000:7018   */\n              add\n                /* \"#utility.yul\":6987:7019   */\n              calldataload\n                /* \"#utility.yul\":7046:7064   */\n              0xffffffffffffffff\n                /* \"#utility.yul\":7038:7044   */\n              dup2\n                /* \"#utility.yul\":7035:7065   */\n              gt\n                /* \"#utility.yul\":7032:7149   */\n              iszero\n              tag_197\n              jumpi\n                /* \"#utility.yul\":7068:7147   */\n              tag_198\n              tag_86\n              jump\t// in\n            tag_198:\n                /* \"#utility.yul\":7032:7149   */\n            tag_197:\n                /* \"#utility.yul\":7173:7236   */\n              tag_199\n                /* \"#utility.yul\":7228:7235   */\n              dup6\n                /* \"#utility.yul\":7219:7225   */\n              dup3\n                /* \"#utility.yul\":7208:7217   */\n              dup7\n                /* \"#utility.yul\":7204:7226   */\n              add\n                /* \"#utility.yul\":7173:7236   */\n              tag_108\n              jump\t// in\n            tag_199:\n                /* \"#utility.yul\":7163:7236   */\n              swap2\n              pop\n                /* \"#utility.yul\":6958:7246   */\n              pop\n                /* \"#utility.yul\":6599:7253   */\n              swap3\n              pop\n              swap3\n              swap1\n              pop\n              jump\t// out\n                /* \"#utility.yul\":7259:7481   */\n            tag_32:\n                /* \"#utility.yul\":7352:7356   */\n              0x00\n                /* \"#utility.yul\":7390:7392   */\n              0x20\n                /* \"#utility.yul\":7379:7388   */\n              dup3\n                /* \"#utility.yul\":7375:7393   */\n              add\n                /* \"#utility.yul\":7367:7393   */\n              swap1\n              pop\n                /* \"#utility.yul\":7403:7474   */\n              tag_201\n                /* \"#utility.yul\":7471:7472   */\n              0x00\n                /* \"#utility.yul\":7460:7469   */\n              dup4\n                /* \"#utility.yul\":7456:7473   */\n              add\n                /* \"#utility.yul\":7447:7453   */\n              dup5\n                /* \"#utility.yul\":7403:7474   */\n              tag_97\n              jump\t// in\n            tag_201:\n                /* \"#utility.yul\":7259:7481   */\n              swap3\n              swap2\n              pop\n              pop\n              jump\t// out\n                /* \"#utility.yul\":7487:7667   */\n            tag_41:\n                /* \"#utility.yul\":7535:7612   */\n              0x4e487b7100000000000000000000000000000000000000000000000000000000\n                /* \"#utility.yul\":7532:7533   */\n              0x00\n                /* \"#utility.yul\":7525:7613   */\n              mstore\n                /* \"#utility.yul\":7632:7636   */\n              0x32\n                /* \"#utility.yul\":7629:7630   */\n              0x04\n                /* \"#utility.yul\":7622:7637   */\n              mstore\n                /* \"#utility.yul\":7656:7660   */\n              0x24\n                /* \"#utility.yul\":7653:7654   */\n              0x00\n                /* \"#utility.yul\":7646:7661   */\n              revert\n                /* \"#utility.yul\":7673:7853   */\n            tag_109:\n                /* \"#utility.yul\":7721:7798   */\n              0x4e487b7100000000000000000000000000000000000000000000000000000000\n                /* \"#utility.yul\":7718:7719   */\n              0x00\n                /* \"#utility.yul\":7711:7799   */\n              mstore\n                /* \"#utility.yul\":7818:7822   */\n              0x22\n                /* \"#utility.yul\":7815:7816   */\n              0x04\n                /* \"#utility.yul\":7808:7823   */\n              mstore\n                /* \"#utility.yul\":7842:7846   */\n              0x24\n                /* \"#utility.yul\":7839:7840   */\n              0x00\n                /* \"#utility.yul\":7832:7847   */\n              revert\n                /* \"#utility.yul\":7859:8179   */\n            tag_44:\n                /* \"#utility.yul\":7903:7909   */\n              0x00\n                /* \"#utility.yul\":7940:7941   */\n              0x02\n                /* \"#utility.yul\":7934:7938   */\n              dup3\n                /* \"#utility.yul\":7930:7942   */\n              div\n                /* \"#utility.yul\":7920:7942   */\n              swap1\n              pop\n                /* \"#utility.yul\":7987:7988   */\n              0x01\n                /* \"#utility.yul\":7981:7985   */\n              dup3\n                /* \"#utility.yul\":7977:7989   */\n              and\n                /* \"#utility.yul\":8008:8026   */\n              dup1\n                /* \"#utility.yul\":7998:8079   */\n              tag_205\n              jumpi\n                /* \"#utility.yul\":8064:8068   */\n              0x7f\n                /* \"#utility.yul\":8056:8062   */\n              dup3\n                /* \"#utility.yul\":8052:8069   */\n              and\n                /* \"#utility.yul\":8042:8069   */\n              swap2\n              pop\n                /* \"#utility.yul\":7998:8079   */\n            tag_205:\n                /* \"#utility.yul\":8126:8128   */\n              0x20\n                /* \"#utility.yul\":8118:8124   */\n              dup3\n                /* \"#utility.yul\":8115:8129   */\n              lt\n                /* \"#utility.yul\":8095:8113   */\n              dup2\n                /* \"#utility.yul\":8092:8130   */\n              sub\n                /* \"#utility.yul\":8089:8173   */\n              tag_206\n              jumpi\n                /* \"#utility.yul\":8145:8163   */\n              tag_207\n              tag_109\n              jump\t// in\n            tag_207:\n                /* \"#utility.yul\":8089:8173   */\n            tag_206:\n                /* \"#utility.yul\":7910:8179   */\n              pop\n                /* \"#utility.yul\":7859:8179   */\n              swap2\n              swap1\n              pop\n              jump\t// out\n                /* \"#utility.yul\":8185:8326   */\n            tag_110:\n                /* \"#utility.yul\":8234:8238   */\n              0x00\n                /* \"#utility.yul\":8257:8260   */\n              dup2\n                /* \"#utility.yul\":8249:8260   */\n              swap1\n              pop\n                /* \"#utility.yul\":8280:8283   */\n              dup2\n                /* \"#utility.yul\":8277:8278   */\n              0x00\n                /* \"#utility.yul\":8270:8284   */\n              mstore\n                /* \"#utility.yul\":8314:8318   */\n              0x20\n                /* \"#utility.yul\":8311:8312   */\n              0x00\n                /* \"#utility.yul\":8301:8319   */\n              keccak256\n                /* \"#utility.yul\":8293:8319   */\n              swap1\n              pop\n                /* \"#utility.yul\":8185:8326   */\n              swap2\n              swap1\n              pop\n              jump\t// out\n                /* \"#utility.yul\":8332:8425   */\n            tag_111:\n                /* \"#utility.yul\":8369:8375   */\n              0x00\n                /* \"#utility.yul\":8416:8418   */\n              0x20\n                /* \"#utility.yul\":8411:8413   */\n              0x1f\n                /* \"#utility.yul\":8404:8409   */\n              dup4\n                /* \"#utility.yul\":8400:8414   */\n              add\n                /* \"#utility.yul\":8396:8419   */\n              div\n                /* \"#utility.yul\":8386:8419   */\n              swap1\n              pop\n                /* \"#utility.yul\":8332:8425   */\n              swap2\n              swap1\n              pop\n              jump\t// out\n                /* \"#utility.yul\":8431:8538   */\n            tag_112:\n                /* \"#utility.yul\":8475:8483   */\n              0x00\n                /* \"#utility.yul\":8525:8530   */\n              dup3\n                /* \"#utility.yul\":8519:8523   */\n              dup3\n                /* \"#utility.yul\":8515:8531   */\n              shl\n                /* \"#utility.yul\":8494:8531   */\n              swap1\n              pop\n                /* \"#utility.yul\":8431:8538   */\n              swap3\n              swap2\n              pop\n              pop\n              jump\t// out\n                /* \"#utility.yul\":8544:8937   */\n            tag_113:\n                /* \"#utility.yul\":8613:8619   */\n              0x00\n                /* \"#utility.yul\":8663:8664   */\n              0x08\n                /* \"#utility.yul\":8651:8661   */\n              dup4\n                /* \"#utility.yul\":8647:8665   */\n              mul\n                /* \"#utility.yul\":8686:8783   */\n              tag_212\n                /* \"#utility.yul\":8716:8782   */\n              0xffffffffffffffffffffffffffffffffffffffffffffffffffffffffffffffff\n                /* \"#utility.yul\":8705:8714   */\n              dup3\n                /* \"#utility.yul\":8686:8783   */\n              tag_112\n              jump\t// in\n            tag_212:\n                /* \"#utility.yul\":8804:8843   */\n              tag_213\n                /* \"#utility.yul\":8834:8842   */\n              dup7\n                /* \"#utility.yul\":8823:8832   */\n              dup4\n                /* \"#utility.yul\":8804:8843   */\n              tag_112\n              jump\t// in\n            tag_213:\n                /* \"#utility.yul\":8792:8843   */\n              swap6\n              pop\n                /* \"#utility.yul\":8876:8880   */\n              dup1\n                /* \"#utility.yul\":8872:8881   */\n              not\n                /* \"#utility.yul\":8865:8870   */\n              dup5\n                /* \"#utility.yul\":8861:8882   */\n              and\n                /* \"#utility.yul\":8852:8882   */\n              swap4\n              pop\n                /* \"#utility.yul\":8925:8929   */\n              dup1\n                /* \"#utility.yul\":8915:8923   */\n              dup7\n                /* \"#utility.yul\":8911:8930   */\n              and\n                /* \"#utility.yul\":8904:8909   */\n              dup5\n                /* \"#utility.yul\":8901:8931   */\n              or\n                /* \"#utility.yul\":8891:8931   */\n              swap3\n              pop\n                /* \"#utility.yul\":8620:8937   */\n              pop\n              pop\n                /* \"#utility.yul\":8544:8937   */\n              swap4\n              swap3\n              pop\n              pop\n              pop\n              jump\t// out\n                /* \"#utility.yul\":8943:9003   */\n            tag_114:\n                /* \"#utility.yul\":8971:8974   */\n              0x00\n                /* \"#utility.yul\":8992:8997   */\n              dup2\n                /* \"#utility.yul\":8985:8997   */\n              swap1\n              pop\n                /* \"#utility.yul\":8943:9003   */\n              swap2\n              swap1\n              pop\n              jump\t// out\n                /* \"#utility.yul\":9009:9151   */\n            tag_115:\n                /* \"#utility.yul\":9059:9068   */\n              0x00\n                /* \"#utility.yul\":9092:9145   */\n              tag_216\n                /* \"#utility.yul\":9110:9144   */\n              tag_217\n                /* \"#utility.yul\":9119:9143   */\n              tag_218\n                /* \"#utility.yul\":9137:9142   */\n              dup5\n                /* \"#utility.yul\":9119:9143   */\n              tag_87\n              jump\t// in\n            tag_218:\n                /* \"#utility.yul\":9110:9144   */\n              tag_114\n              jump\t// in\n            tag_217:\n                /* \"#utility.yul\":9092:9145   */\n              tag_87\n              jump\t// in\n            tag_216:\n                /* \"#utility.yul\":9079:9145   */\n              swap1\n              pop\n                /* \"#utility.yul\":9009:9151   */\n              swap2\n              swap1\n              pop\n              jump\t// out\n                /* \"#utility.yul\":9157:9232   */\n            tag_116:\n                /* \"#utility.yul\":9200:9203   */\n              0x00\n                /* \"#utility.yul\":9221:9226   */\n              dup2\n                /* \"#utility.yul\":9214:9226   */\n              swap1\n              pop\n                /* \"#utility.yul\":9157:9232   */\n              swap2\n              swap1\n              pop\n              jump\t// out\n                /* \"#utility.yul\":9238:9507   */\n            tag_117:\n                /* \"#utility.yul\":9348:9387   */\n              tag_221\n                /* \"#utility.yul\":9379:9386   */\n              dup4\n                /* \"#utility.yul\":9348:9387   */\n              tag_115\n              jump\t// in\n            tag_221:\n                /* \"#utility.yul\":9409:9500   */\n              tag_222\n                /* \"#utility.yul\":9458:9499   */\n              tag_223\n                /* \"#utility.yul\":9482:9498   */\n              dup3\n                /* \"#utility.yul\":9458:9499   */\n              tag_116\n              jump\t// in\n            tag_223:\n                /* \"#utility.yul\":9450:9456   */\n              dup5\n                /* \"#utility.yul\":9443:9447   */\n              dup5\n                /* \"#utility.yul\":9437:9448   */\n              sload\n                /* \"#utility.yul\":9409:9500   */\n              tag_113\n              jump\t// in\n            tag_222:\n                /* \"#utility.yul\":9403:9407   */\n              dup3\n                /* \"#utility.yul\":9396:9501   */\n              sstore\n                /* \"#utility.yul\":9314:9507   */\n              pop\n                /* \"#utility.yul\":9238:9507   */\n              pop\n              pop\n              pop\n              jump\t// out\n                /* \"#utility.yul\":9513:9586   */\n            tag_118:\n                /* \"#utility.yul\":9558:9561   */\n              0x00\n                /* \"#utility.yul\":9513:9586   */\n              swap1\n              jump\t// out\n                /* \"#utility.yul\":9592:9781   */\n            tag_119:\n                /* \"#utility.yul\":9669:9701   */\n              tag_226\n              tag_118\n              jump\t// in\n            tag_226:\n                /* \"#utility.yul\":9710:9775   */\n              tag_227\n                /* \"#utility.yul\":9768:9774   */\n              dup2\n                /* \"#utility.yul\":9760:9766   */\n              dup5\n                /* \"#utility.yul\":9754:9758   */\n              dup5\n                /* \"#utility.yul\":9710:9775   */\n              tag_117\n              jump\t// in\n            tag_227:\n                /* \"#utility.yul\":9645:9781   */\n              pop\n                /* \"#utility.yul\":9592:9781   */\n              pop\n              pop\n              jump\t// out\n                /* \"#utility.yul\":9787:9973   */\n            tag_120:\n                /* \"#utility.yul\":9847:9967   */\n            tag_229:\n                /* \"#utility.yul\":9864:9867   */\n              dup2\n                /* \"#utility.yul\":9857:9862   */\n              dup2\n                /* \"#utility.yul\":9854:9868   */\n              lt\n                /* \"#utility.yul\":9847:9967   */\n              iszero\n              tag_231\n              jumpi\n                /* \"#utility.yul\":9918:9957   */\n              tag_232\n                /* \"#utility.yul\":9955:9956   */\n              0x00\n                /* \"#utility.yul\":9948:9953   */\n              dup3\n                /* \"#utility.yul\":9918:9957   */\n              tag_119\n              jump\t// in\n            tag_232:\n                /* \"#utility.yul\":9891:9892   */\n              0x01\n                /* \"#utility.yul\":9884:9889   */\n              dup2\n                /* \"#utility.yul\":9880:9893   */\n              add\n                /* \"#utility.yul\":9871:9893   */\n              swap1\n              pop\n                /* \"#utility.yul\":9847:9967   */\n              jump(tag_229)\n            tag_231:\n                /* \"#utility.yul\":9787:9973   */\n              pop\n              pop\n              jump\t// out\n                /* \"#utility.yul\":9979:10522   */\n            tag_121:\n                /* \"#utility.yul\":10080:10082   */\n              0x1f\n                /* \"#utility.yul\":10075:10078   */\n              dup3\n                /* \"#utility.yul\":10072:10083   */\n              gt\n                /* \"#utility.yul\":10069:10515   */\n              iszero\n              tag_234\n              jumpi\n                /* \"#utility.yul\":10114:10152   */\n              tag_235\n                /* \"#utility.yul\":10146:10151   */\n              dup2\n                /* \"#utility.yul\":10114:10152   */\n              tag_110\n              jump\t// in\n            tag_235:\n                /* \"#utility.yul\":10198:10227   */\n              tag_236\n                /* \"#utility.yul\":10216:10226   */\n              dup5\n                /* \"#utility.yul\":10198:10227   */\n              tag_111\n              jump\t// in\n            tag_236:\n                /* \"#utility.yul\":10188:10196   */\n              dup2\n                /* \"#utility.yul\":10184:10228   */\n              add\n                /* \"#utility.yul\":10381:10383   */\n              0x20\n                /* \"#utility.yul\":10369:10379   */\n              dup6\n                /* \"#utility.yul\":10366:10384   */\n              lt\n                /* \"#utility.yul\":10363:10412   */\n              iszero\n              tag_237\n              jumpi\n                /* \"#utility.yul\":10402:10410   */\n              dup2\n                /* \"#utility.yul\":10387:10410   */\n              swap1\n              pop\n                /* \"#utility.yul\":10363:10412   */\n            tag_237:\n                /* \"#utility.yul\":10425:10505   */\n              tag_238\n                /* \"#utility.yul\":10481:10503   */\n              tag_239\n                /* \"#utility.yul\":10499:10502   */\n              dup6\n                /* \"#utility.yul\":10481:10503   */\n              tag_111\n              jump\t// in\n            tag_239:\n                /* \"#utility.yul\":10471:10479   */\n              dup4\n                /* \"#utility.yul\":10467:10504   */\n              add\n                /* \"#utility.yul\":10454:10465   */\n              dup3\n                /* \"#utility.yul\":10425:10505   */\n              tag_120\n              jump\t// in\n            tag_238:\n                /* \"#utility.yul\":10084:10515   */\n              pop\n              pop\n                /* \"#utility.yul\":10069:10515   */\n            tag_234:\n                /* \"#utility.yul\":9979:10522   */\n              pop\n              pop\n              pop\n              jump\t// out\n                /* \"#utility.yul\":10528:10645   */\n            tag_122:\n                /* \"#utility.yul\":10582:10590   */\n              0x00\n                /* \"#utility.yul\":10632:10637   */\n              dup3\n                /* \"#utility.yul\":10626:10630   */\n              dup3\n                /* \"#utility.yul\":10622:10638   */\n              shr\n                /* \"#utility.yul\":10601:10638   */\n              swap1\n              pop\n                /* \"#utility.yul\":10528:10645   */\n              swap3\n              swap2\n              pop\n              pop\n              jump\t// out\n                /* \"#utility.yul\":10651:10820   */\n            tag_123:\n                /* \"#utility.yul\":10695:10701   */\n              0x00\n                /* \"#utility.yul\":10728:10779   */\n              tag_242\n                /* \"#utility.yul\":10776:10777   */\n              0x00\n                /* \"#utility.yul\":10772:10778   */\n              not\n                /* \"#utility.yul\":10764:10769   */\n              dup5\n                /* \"#utility.yul\":10761:10762   */\n              0x08\n                /* \"#utility.yul\":10757:10770   */\n              mul\n                /* \"#utility.yul\":10728:10779   */\n              tag_122\n              jump\t// in\n            tag_242:\n                /* \"#utility.yul\":10724:10780   */\n              not\n                /* \"#utility.yul\":10809:10813   */\n              dup1\n                /* \"#utility.yul\":10803:10807   */\n              dup4\n                /* \"#utility.yul\":10799:10814   */\n              and\n                /* \"#utility.yul\":10789:10814   */\n              swap2\n              pop\n                /* \"#utility.yul\":10702:10820   */\n              pop\n                /* \"#utility.yul\":10651:10820   */\n              swap3\n              swap2\n              pop\n              pop\n              jump\t// out\n                /* \"#utility.yul\":10825:11120   */\n            tag_124:\n                /* \"#utility.yul\":10901:10905   */\n              0x00\n                /* \"#utility.yul\":11047:11076   */\n              tag_244\n                /* \"#utility.yul\":11072:11075   */\n              dup4\n                /* \"#utility.yul\":11066:11070   */\n              dup4\n                /* \"#utility.yul\":11047:11076   */\n              tag_123\n              jump\t// in\n            tag_244:\n                /* \"#utility.yul\":11039:11076   */\n              swap2\n              pop\n                /* \"#utility.yul\":11109:11112   */\n              dup3\n                /* \"#utility.yul\":11106:11107   */\n              0x02\n                /* \"#utility.yul\":11102:11113   */\n              mul\n                /* \"#utility.yul\":11096:11100   */\n              dup3\n                /* \"#utility.yul\":11093:11114   */\n              or\n                /* \"#utility.yul\":11085:11114   */\n              swap1\n              pop\n                /* \"#utility.yul\":10825:11120   */\n              swap3\n              swap2\n              pop\n              pop\n              jump\t// out\n                /* \"#utility.yul\":11125:12520   */\n            tag_68:\n                /* \"#utility.yul\":11242:11279   */\n              tag_246\n                /* \"#utility.yul\":11275:11278   */\n              dup3\n                /* \"#utility.yul\":11242:11279   */\n              tag_91\n              jump\t// in\n            tag_246:\n                /* \"#utility.yul\":11344:11362   */\n              0xffffffffffffffff\n                /* \"#utility.yul\":11336:11342   */\n              dup2\n                /* \"#utility.yul\":11333:11363   */\n              gt\n                /* \"#utility.yul\":11330:11386   */\n              iszero\n              tag_247\n              jumpi\n                /* \"#utility.yul\":11366:11384   */\n              tag_248\n              tag_102\n              jump\t// in\n            tag_248:\n                /* \"#utility.yul\":11330:11386   */\n            tag_247:\n                /* \"#utility.yul\":11410:11448   */\n              tag_249\n                /* \"#utility.yul\":11442:11446   */\n              dup3\n                /* \"#utility.yul\":11436:11447   */\n              sload\n                /* \"#utility.yul\":11410:11448   */\n              tag_44\n              jump\t// in\n            tag_249:\n                /* \"#utility.yul\":11495:11562   */\n              tag_250\n                /* \"#utility.yul\":11555:11561   */\n              dup3\n                /* \"#utility.yul\":11547:11553   */\n              dup3\n                /* \"#utility.yul\":11541:11545   */\n              dup6\n                /* \"#utility.yul\":11495:11562   */\n              tag_121\n              jump\t// in\n            tag_250:\n                /* \"#utility.yul\":11589:11590   */\n              0x00\n                /* \"#utility.yul\":11613:11617   */\n              0x20\n                /* \"#utility.yul\":11600:11617   */\n              swap1\n              pop\n                /* \"#utility.yul\":11645:11647   */\n              0x1f\n                /* \"#utility.yul\":11637:11643   */\n              dup4\n                /* \"#utility.yul\":11634:11648   */\n              gt\n                /* \"#utility.yul\":11662:11663   */\n              0x01\n                /* \"#utility.yul\":11657:12275   */\n              dup2\n              eq\n              tag_252\n              jumpi\n                /* \"#utility.yul\":12319:12320   */\n              0x00\n                /* \"#utility.yul\":12336:12342   */\n              dup5\n                /* \"#utility.yul\":12333:12410   */\n              iszero\n              tag_253\n              jumpi\n                /* \"#utility.yul\":12385:12394   */\n              dup3\n                /* \"#utility.yul\":12380:12383   */\n              dup8\n                /* \"#utility.yul\":12376:12395   */\n              add\n                /* \"#utility.yul\":12370:12396   */\n              mload\n                /* \"#utility.yul\":12361:12396   */\n              swap1\n              pop\n                /* \"#utility.yul\":12333:12410   */\n            tag_253:\n                /* \"#utility.yul\":12436:12503   */\n              tag_254\n                /* \"#utility.yul\":12496:12502   */\n              dup6\n                /* \"#utility.yul\":12489:12494   */\n              dup3\n                /* \"#utility.yul\":12436:12503   */\n              tag_124\n              jump\t// in\n            tag_254:\n                /* \"#utility.yul\":12430:12434   */\n              dup7\n                /* \"#utility.yul\":12423:12504   */\n              sstore\n                /* \"#utility.yul\":12292:12514   */\n              pop\n                /* \"#utility.yul\":11627:12514   */\n              jump(tag_251)\n                /* \"#utility.yul\":11657:12275   */\n            tag_252:\n                /* \"#utility.yul\":11709:11713   */\n              0x1f\n                /* \"#utility.yul\":11705:11714   */\n              not\n                /* \"#utility.yul\":11697:11703   */\n              dup5\n                /* \"#utility.yul\":11693:11715   */\n              and\n                /* \"#utility.yul\":11743:11780   */\n              tag_255\n                /* \"#utility.yul\":11775:11779   */\n              dup7\n                /* \"#utility.yul\":11743:11780   */\n              tag_110\n              jump\t// in\n            tag_255:\n                /* \"#utility.yul\":11802:11803   */\n              0x00\n                /* \"#utility.yul\":11816:12024   */\n            tag_256:\n                /* \"#utility.yul\":11830:11837   */\n              dup3\n                /* \"#utility.yul\":11827:11828   */\n              dup2\n                /* \"#utility.yul\":11824:11838   */\n              lt\n                /* \"#utility.yul\":11816:12024   */\n              iszero\n              tag_258\n              jumpi\n                /* \"#utility.yul\":11909:11918   */\n              dup5\n                /* \"#utility.yul\":11904:11907   */\n              dup10\n                /* \"#utility.yul\":11900:11919   */\n              add\n                /* \"#utility.yul\":11894:11920   */\n              mload\n                /* \"#utility.yul\":11886:11892   */\n              dup3\n                /* \"#utility.yul\":11879:11921   */\n              sstore\n                /* \"#utility.yul\":11960:11961   */\n              0x01\n                /* \"#utility.yul\":11952:11958   */\n              dup3\n                /* \"#utility.yul\":11948:11962   */\n              add\n                /* \"#utility.yul\":11938:11962   */\n              swap2\n              pop\n                /* \"#utility.yul\":12007:12009   */\n              0x20\n                /* \"#utility.yul\":11996:12005   */\n              dup6\n                /* \"#utility.yul\":11992:12010   */\n              add\n                /* \"#utility.yul\":11979:12010   */\n              swap5\n              pop\n                /* \"#utility.yul\":11853:11857   */\n              0x20\n                /* \"#utility.yul\":11850:11851   */\n              dup2\n                /* \"#utility.yul\":11846:11858   */\n              add\n                /* \"#utility.yul\":11841:11858   */\n              swap1\n              pop\n                /* \"#utility.yul\":11816:12024   */\n              jump(tag_256)\n            tag_258:\n                /* \"#utility.yul\":12052:12058   */\n              dup7\n                /* \"#utility.yul\":12043:12050   */\n              dup4\n                /* \"#utility.yul\":12040:12059   */\n              lt\n                /* \"#utility.yul\":12037:12216   */\n              iszero\n              tag_259\n              jumpi\n                /* \"#utility.yul\":12110:12119   */\n              dup5\n                /* \"#utility.yul\":12105:12108   */\n              dup10\n                /* \"#utility.yul\":12101:12120   */\n              add\n                /* \"#utility.yul\":12095:12121   */\n              mload\n                /* \"#utility.yul\":12153:12201   */\n              tag_260\n                /* \"#utility.yul\":12195:12199   */\n              0x1f\n                /* \"#utility.yul\":12187:12193   */\n              dup10\n                /* \"#utility.yul\":12183:12200   */\n              and\n                /* \"#utility.yul\":12172:12181   */\n              dup3\n                /* \"#utility.yul\":12153:12201   */\n              tag_123\n              jump\t// in\n            tag_260:\n                /* \"#utility.yul\":12145:12151   */\n              dup4\n                /* \"#utility.yul\":12138:12202   */\n              sstore\n                /* \"#utility.yul\":12060:12216   */\n              pop\n                /* \"#utility.yul\":12037:12216   */\n            tag_259:\n                /* \"#utility.yul\":12262:12263   */\n              0x01\n                /* \"#utility.yul\":12258:12259   */\n              0x02\n                /* \"#utility.yul\":12250:12256   */\n              dup9\n                /* \"#utility.yul\":12246:12260   */\n              mul\n                /* \"#utility.yul\":12242:12264   */\n              add\n                /* \"#utility.yul\":12236:12240   */\n              dup9\n                /* \"#utility.yul\":12229:12265   */\n              sstore\n                /* \"#utility.yul\":11664:12275   */\n              pop\n              pop\n              pop\n                /* \"#utility.yul\":11627:12514   */\n            tag_251:\n              pop\n                /* \"#utility.yul\":11217:12520   */\n              pop\n              pop\n              pop\n                /* \"#utility.yul\":11125:12520   */\n              pop\n              pop\n              jump\t// out\n\n            auxdata: 0xa26469706673582212205e935dc2148dcb9ed3e8e1ae54fe32670fee0d112c96060abeaced0bccb5c28c64736f6c634300081a0033\n        }\n    }\n\n    auxdata: 0xa2646970667358221220876ab584a0a6ea382bf22a5335cbd5c2e07ca20b509c86a33841eb9857b1f9d664736f6c634300081a0033\n}\n",
				"bytecode": {
					"linkReferences": {},
					"object": "6080604052348015600e575f80fd5b506113858061001c5f395ff3fe608060405234801561000f575f80fd5b506004361061004a575f3560e01c80631dda65411461004e57806364591bf11461005857806379fa171814610088578063c5f19c20146100a4575b5f80fd5b6100566100d4565b005b610072600480360381019061006d919061035c565b61015f565b60405161007f9190610401565b60405180910390f35b6100a2600480360381019061009d919061047b565b610199565b005b6100be60048036038101906100b9919061035c565b610248565b6040516100cb919061055c565b60405180910390f35b5f6040516100e19061030b565b604051809103905ff0801580156100fa573d5f803e3d5ffd5b5090505f81908060018154018082558091505060019003905f5260205f20015f9091909190916101000a81548173ffffffffffffffffffffffffffffffffffffffff021916908373ffffffffffffffffffffffffffffffffffffffff16021790555050565b5f818154811061016d575f80fd5b905f5260205f20015f915054906101000a900473ffffffffffffffffffffffffffffffffffffffff1681565b5f8082815481106101ad576101ac61057c565b5b905f5260205f20015f9054906101000a900473ffffffffffffffffffffffffffffffffffffffff1690508073ffffffffffffffffffffffffffffffffffffffff16638f7d59b88686866040518463ffffffff1660e01b8152600401610214939291906105f2565b5f604051808303815f87803b15801561022b575f80fd5b505af115801561023d573d5f803e3d5ffd5b505050505050505050565b60605f80838154811061025e5761025d61057c565b5b905f5260205f20015f9054906101000a900473ffffffffffffffffffffffffffffffffffffffff1690508073ffffffffffffffffffffffffffffffffffffffff166340ab422e5f6040518263ffffffff1660e01b81526004016102c1919061065b565b5f60405180830381865afa1580156102db573d5f803e3d5ffd5b505050506040513d5f823e3d601f19601f82011682018060405250810190610303919061078e565b915050919050565b610b7a806107d683390190565b5f604051905090565b5f80fd5b5f80fd5b5f819050919050565b61033b81610329565b8114610345575f80fd5b50565b5f8135905061035681610332565b92915050565b5f6020828403121561037157610370610321565b5b5f61037e84828501610348565b91505092915050565b5f73ffffffffffffffffffffffffffffffffffffffff82169050919050565b5f819050919050565b5f6103c96103c46103bf84610387565b6103a6565b610387565b9050919050565b5f6103da826103af565b9050919050565b5f6103eb826103d0565b9050919050565b6103fb816103e1565b82525050565b5f6020820190506104145f8301846103f2565b92915050565b5f80fd5b5f80fd5b5f80fd5b5f8083601f84011261043b5761043a61041a565b5b8235905067ffffffffffffffff8111156104585761045761041e565b5b60208301915083600182028301111561047457610473610422565b5b9250929050565b5f805f806060858703121561049357610492610321565b5b5f6104a087828801610348565b945050602085013567ffffffffffffffff8111156104c1576104c0610325565b5b6104cd87828801610426565b935093505060406104e087828801610348565b91505092959194509250565b5f81519050919050565b5f82825260208201905092915050565b8281835e5f83830152505050565b5f601f19601f8301169050919050565b5f61052e826104ec565b61053881856104f6565b9350610548818560208601610506565b61055181610514565b840191505092915050565b5f6020820190508181035f8301526105748184610524565b905092915050565b7f4e487b71000000000000000000000000000000000000000000000000000000005f52603260045260245ffd5b6105b281610329565b82525050565b828183375f83830152505050565b5f6105d183856104f6565b93506105de8385846105b8565b6105e783610514565b840190509392505050565b5f6040820190506106055f8301866105a9565b81810360208301526106188184866105c6565b9050949350505050565b5f819050919050565b5f61064561064061063b84610622565b6103a6565b610329565b9050919050565b6106558161062b565b82525050565b5f60208201905061066e5f83018461064c565b92915050565b5f80fd5b7f4e487b71000000000000000000000000000000000000000000000000000000005f52604160045260245ffd5b6106ae82610514565b810181811067ffffffffffffffff821117156106cd576106cc610678565b5b80604052505050565b5f6106df610318565b90506106eb82826106a5565b919050565b5f67ffffffffffffffff82111561070a57610709610678565b5b61071382610514565b9050602081019050919050565b5f61073261072d846106f0565b6106d6565b90508281526020810184848401111561074e5761074d610674565b5b610759848285610506565b509392505050565b5f82601f8301126107755761077461041a565b5b8151610785848260208601610720565b91505092915050565b5f602082840312156107a3576107a2610321565b5b5f82015167ffffffffffffffff8111156107c0576107bf610325565b5b6107cc84828501610761565b9150509291505056fe6080604052348015600e575f80fd5b50610b5e8061001c5f395ff3fe608060405234801561000f575f80fd5b5060043610610060575f3560e01c806310b4801a1461006457806339d515e21461009457806340ab422e146100c55780638f7d59b8146100f5578063a87d942c14610111578063da2dc4eb1461012f575b5f80fd5b61007e600480360381019061007991906104ea565b61014b565b60405161008b91906105ce565b60405180910390f35b6100ae60048036038101906100a991906104ea565b61021d565b6040516100bc929190610645565b60405180910390f35b6100df60048036038101906100da91906104ea565b6102d1565b6040516100ec9190610673565b60405180910390f35b61010f600480360381019061010a91906107bf565b610383565b005b6101196103e3565b6040516101269190610819565b60405180910390f35b610149600480360381019061014491906104ea565b6103ee565b005b610153610435565b5f828154811061016657610165610832565b5b905f5260205f2090600202016040518060400160405290815f82015481526020016001820180546101969061088c565b80601f01602080910402602001604051908101604052809291908181526020018280546101c29061088c565b801561020d5780601f106101e45761010080835404028352916020019161020d565b820191905f5260205f20905b8154815290600101906020018083116101f057829003601f168201915b5050505050815250509050919050565b5f818154811061022b575f80fd5b905f5260205f2090600202015f91509050805f0154908060010180546102509061088c565b80601f016020809104026020016040519081016040528092919081815260200182805461027c9061088c565b80156102c75780601f1061029e576101008083540402835291602001916102c7565b820191905f5260205f20905b8154815290600101906020018083116102aa57829003601f168201915b5050505050905082565b60605f82815481106102e6576102e5610832565b5b905f5260205f20906002020160010180546103009061088c565b80601f016020809104026020016040519081016040528092919081815260200182805461032c9061088c565b80156103775780601f1061034e57610100808354040283529160200191610377565b820191905f5260205f20905b81548152906001019060200180831161035a57829003601f168201915b50505050509050919050565b5f604051806040016040528084815260200183815250908060018154018082558091505060019003905f5260205f2090600202015f909190919091505f820151815f015560208201518160010190816103dc9190610a59565b5050505050565b5f8080549050905090565b805f805490501115610432575f818154811061040d5761040c610832565b5b905f5260205f2090600202015f8082015f9055600182015f61042f919061044e565b50505b50565b60405180604001604052805f8152602001606081525090565b50805461045a9061088c565b5f825580601f1061046b5750610488565b601f0160209004905f5260205f2090810190610487919061048b565b5b50565b5b808211156104a2575f815f90555060010161048c565b5090565b5f604051905090565b5f80fd5b5f80fd5b5f819050919050565b6104c9816104b7565b81146104d3575f80fd5b50565b5f813590506104e4816104c0565b92915050565b5f602082840312156104ff576104fe6104af565b5b5f61050c848285016104d6565b91505092915050565b61051e816104b7565b82525050565b5f81519050919050565b5f82825260208201905092915050565b8281835e5f83830152505050565b5f601f19601f8301169050919050565b5f61056682610524565b610570818561052e565b935061058081856020860161053e565b6105898161054c565b840191505092915050565b5f604083015f8301516105a95f860182610515565b50602083015184820360208601526105c1828261055c565b9150508091505092915050565b5f6020820190508181035f8301526105e68184610594565b905092915050565b6105f7816104b7565b82525050565b5f82825260208201905092915050565b5f61061782610524565b61062181856105fd565b935061063181856020860161053e565b61063a8161054c565b840191505092915050565b5f6040820190506106585f8301856105ee565b818103602083015261066a818461060d565b90509392505050565b5f6020820190508181035f83015261068b818461060d565b905092915050565b5f80fd5b5f80fd5b7f4e487b71000000000000000000000000000000000000000000000000000000005f52604160045260245ffd5b6106d18261054c565b810181811067ffffffffffffffff821117156106f0576106ef61069b565b5b80604052505050565b5f6107026104a6565b905061070e82826106c8565b919050565b5f67ffffffffffffffff82111561072d5761072c61069b565b5b6107368261054c565b9050602081019050919050565b828183375f83830152505050565b5f61076361075e84610713565b6106f9565b90508281526020810184848401111561077f5761077e610697565b5b61078a848285610743565b509392505050565b5f82601f8301126107a6576107a5610693565b5b81356107b6848260208601610751565b91505092915050565b5f80604083850312156107d5576107d46104af565b5b5f6107e2858286016104d6565b925050602083013567ffffffffffffffff811115610803576108026104b3565b5b61080f85828601610792565b9150509250929050565b5f60208201905061082c5f8301846105ee565b92915050565b7f4e487b71000000000000000000000000000000000000000000000000000000005f52603260045260245ffd5b7f4e487b71000000000000000000000000000000000000000000000000000000005f52602260045260245ffd5b5f60028204905060018216806108a357607f821691505b6020821081036108b6576108b561085f565b5b50919050565b5f819050815f5260205f209050919050565b5f6020601f8301049050919050565b5f82821b905092915050565b5f600883026109187fffffffffffffffffffffffffffffffffffffffffffffffffffffffffffffffff826108dd565b61092286836108dd565b95508019841693508086168417925050509392505050565b5f819050919050565b5f61095d610958610953846104b7565b61093a565b6104b7565b9050919050565b5f819050919050565b61097683610943565b61098a61098282610964565b8484546108e9565b825550505050565b5f90565b61099e610992565b6109a981848461096d565b505050565b5b818110156109cc576109c15f82610996565b6001810190506109af565b5050565b601f821115610a11576109e2816108bc565b6109eb846108ce565b810160208510156109fa578190505b610a0e610a06856108ce565b8301826109ae565b50505b505050565b5f82821c905092915050565b5f610a315f1984600802610a16565b1980831691505092915050565b5f610a498383610a22565b9150826002028217905092915050565b610a6282610524565b67ffffffffffffffff811115610a7b57610a7a61069b565b5b610a85825461088c565b610a908282856109d0565b5f60209050601f831160018114610ac1575f8415610aaf578287015190505b610ab98582610a3e565b865550610b20565b601f198416610acf866108bc565b5f5b82811015610af657848901518255600182019150602085019450602081019050610ad1565b86831015610b135784890151610b0f601f891682610a22565b8355505b6001600288020188555050505b50505050505056fea26469706673582212205e935dc2148dcb9ed3e8e1ae54fe32670fee0d112c96060abeaced0bccb5c28c64736f6c634300081a0033a2646970667358221220876ab584a0a6ea382bf22a5335cbd5c2e07ca20b509c86a33841eb9857b1f9d664736f6c634300081a0033",
					"opcodes": "PUSH1 0x80 PUSH1 0x40 MSTORE CALLVALUE DUP1 ISZERO PUSH1 0xE JUMPI PUSH0 DUP1 REVERT JUMPDEST POP PUSH2 0x1385 DUP1 PUSH2 0x1C PUSH0 CODECOPY PUSH0 RETURN INVALID PUSH1 0x80 PUSH1 0x40 MSTORE CALLVALUE DUP1 ISZERO PUSH2 0xF JUMPI PUSH0 DUP1 REVERT JUMPDEST POP PUSH1 0x4 CALLDATASIZE LT PUSH2 0x4A JUMPI PUSH0 CALLDATALOAD PUSH1 0xE0 SHR DUP1 PUSH4 0x1DDA6541 EQ PUSH2 0x4E JUMPI DUP1 PUSH4 0x64591BF1 EQ PUSH2 0x58 JUMPI DUP1 PUSH4 0x79FA1718 EQ PUSH2 0x88 JUMPI DUP1 PUSH4 0xC5F19C20 EQ PUSH2 0xA4 JUMPI JUMPDEST PUSH0 DUP1 REVERT JUMPDEST PUSH2 0x56 PUSH2 0xD4 JUMP JUMPDEST STOP JUMPDEST PUSH2 0x72 PUSH1 0x4 DUP1 CALLDATASIZE SUB DUP2 ADD SWAP1 PUSH2 0x6D SWAP2 SWAP1 PUSH2 0x35C JUMP JUMPDEST PUSH2 0x15F JUMP JUMPDEST PUSH1 0x40 MLOAD PUSH2 0x7F SWAP2 SWAP1 PUSH2 0x401 JUMP JUMPDEST PUSH1 0x40 MLOAD DUP1 SWAP2 SUB SWAP1 RETURN JUMPDEST PUSH2 0xA2 PUSH1 0x4 DUP1 CALLDATASIZE SUB DUP2 ADD SWAP1 PUSH2 0x9D SWAP2 SWAP1 PUSH2 0x47B JUMP JUMPDEST PUSH2 0x199 JUMP JUMPDEST STOP JUMPDEST PUSH2 0xBE PUSH1 0x4 DUP1 CALLDATASIZE SUB DUP2 ADD SWAP1 PUSH2 0xB9 SWAP2 SWAP1 PUSH2 0x35C JUMP JUMPDEST PUSH2 0x248 JUMP JUMPDEST PUSH1 0x40 MLOAD PUSH2 0xCB SWAP2 SWAP1 PUSH2 0x55C JUMP JUMPDEST PUSH1 0x40 MLOAD DUP1 SWAP2 SUB SWAP1 RETURN JUMPDEST PUSH0 PUSH1 0x40 MLOAD PUSH2 0xE1 SWAP1 PUSH2 0x30B JUMP JUMPDEST PUSH1 0x40 MLOAD DUP1 SWAP2 SUB SWAP1 PUSH0 CREATE DUP1 ISZERO DUP1 ISZERO PUSH2 0xFA JUMPI RETURNDATASIZE PUSH0 DUP1 RETURNDATACOPY RETURNDATASIZE PUSH0 REVERT JUMPDEST POP SWAP1 POP PUSH0 DUP2 SWAP1 DUP1 PUSH1 0x1 DUP2 SLOAD ADD DUP1 DUP3 SSTORE DUP1 SWAP2 POP POP PUSH1 0x1 SWAP1 SUB SWAP1 PUSH0 MSTORE PUSH1 0x20 PUSH0 KECCAK256 ADD PUSH0 SWAP1 SWAP2 SWAP1 SWAP2 SWAP1 SWAP2 PUSH2 0x100 EXP DUP2 SLOAD DUP2 PUSH20 0xFFFFFFFFFFFFFFFFFFFFFFFFFFFFFFFFFFFFFFFF MUL NOT AND SWAP1 DUP4 PUSH20 0xFFFFFFFFFFFFFFFFFFFFFFFFFFFFFFFFFFFFFFFF AND MUL OR SWAP1 SSTORE POP POP JUMP JUMPDEST PUSH0 DUP2 DUP2 SLOAD DUP2 LT PUSH2 0x16D JUMPI PUSH0 DUP1 REVERT JUMPDEST SWAP1 PUSH0 MSTORE PUSH1 0x20 PUSH0 KECCAK256 ADD PUSH0 SWAP2 POP SLOAD SWAP1 PUSH2 0x100 EXP SWAP1 DIV PUSH20 0xFFFFFFFFFFFFFFFFFFFFFFFFFFFFFFFFFFFFFFFF AND DUP2 JUMP JUMPDEST PUSH0 DUP1 DUP3 DUP2 SLOAD DUP2 LT PUSH2 0x1AD JUMPI PUSH2 0x1AC PUSH2 0x57C JUMP JUMPDEST JUMPDEST SWAP1 PUSH0 MSTORE PUSH1 0x20 PUSH0 KECCAK256 ADD PUSH0 SWAP1 SLOAD SWAP1 PUSH2 0x100 EXP SWAP1 DIV PUSH20 0xFFFFFFFFFFFFFFFFFFFFFFFFFFFFFFFFFFFFFFFF AND SWAP1 POP DUP1 PUSH20 0xFFFFFFFFFFFFFFFFFFFFFFFFFFFFFFFFFFFFFFFF AND PUSH4 0x8F7D59B8 DUP7 DUP7 DUP7 PUSH1 0x40 MLOAD DUP5 PUSH4 0xFFFFFFFF AND PUSH1 0xE0 SHL DUP2 MSTORE PUSH1 0x4 ADD PUSH2 0x214 SWAP4 SWAP3 SWAP2 SWAP1 PUSH2 0x5F2 JUMP JUMPDEST PUSH0 PUSH1 0x40 MLOAD DUP1 DUP4 SUB DUP2 PUSH0 DUP8 DUP1 EXTCODESIZE ISZERO DUP1 ISZERO PUSH2 0x22B JUMPI PUSH0 DUP1 REVERT JUMPDEST POP GAS CALL ISZERO DUP1 ISZERO PUSH2 0x23D JUMPI RETURNDATASIZE PUSH0 DUP1 RETURNDATACOPY RETURNDATASIZE PUSH0 REVERT JUMPDEST POP POP POP POP POP POP POP POP POP JUMP JUMPDEST PUSH1 0x60 PUSH0 DUP1 DUP4 DUP2 SLOAD DUP2 LT PUSH2 0x25E JUMPI PUSH2 0x25D PUSH2 0x57C JUMP JUMPDEST JUMPDEST SWAP1 PUSH0 MSTORE PUSH1 0x20 PUSH0 KECCAK256 ADD PUSH0 SWAP1 SLOAD SWAP1 PUSH2 0x100 EXP SWAP1 DIV PUSH20 0xFFFFFFFFFFFFFFFFFFFFFFFFFFFFFFFFFFFFFFFF AND SWAP1 POP DUP1 PUSH20 0xFFFFFFFFFFFFFFFFFFFFFFFFFFFFFFFFFFFFFFFF AND PUSH4 0x40AB422E PUSH0 PUSH1 0x40 MLOAD DUP3 PUSH4 0xFFFFFFFF AND PUSH1 0xE0 SHL DUP2 MSTORE PUSH1 0x4 ADD PUSH2 0x2C1 SWAP2 SWAP1 PUSH2 0x65B JUMP JUMPDEST PUSH0 PUSH1 0x40 MLOAD DUP1 DUP4 SUB DUP2 DUP7 GAS STATICCALL ISZERO DUP1 ISZERO PUSH2 0x2DB JUMPI RETURNDATASIZE PUSH0 DUP1 RETURNDATACOPY RETURNDATASIZE PUSH0 REVERT JUMPDEST POP POP POP POP PUSH1 0x40 MLOAD RETURNDATASIZE PUSH0 DUP3 RETURNDATACOPY RETURNDATASIZE PUSH1 0x1F NOT PUSH1 0x1F DUP3 ADD AND DUP3 ADD DUP1 PUSH1 0x40 MSTORE POP DUP2 ADD SWAP1 PUSH2 0x303 SWAP2 SWAP1 PUSH2 0x78E JUMP JUMPDEST SWAP2 POP POP SWAP2 SWAP1 POP JUMP JUMPDEST PUSH2 0xB7A DUP1 PUSH2 0x7D6 DUP4 CODECOPY ADD SWAP1 JUMP JUMPDEST PUSH0 PUSH1 0x40 MLOAD SWAP1 POP SWAP1 JUMP JUMPDEST PUSH0 DUP1 REVERT JUMPDEST PUSH0 DUP1 REVERT JUMPDEST PUSH0 DUP2 SWAP1 POP SWAP2 SWAP1 POP JUMP JUMPDEST PUSH2 0x33B DUP2 PUSH2 0x329 JUMP JUMPDEST DUP2 EQ PUSH2 0x345 JUMPI PUSH0 DUP1 REVERT JUMPDEST POP JUMP JUMPDEST PUSH0 DUP2 CALLDATALOAD SWAP1 POP PUSH2 0x356 DUP2 PUSH2 0x332 JUMP JUMPDEST SWAP3 SWAP2 POP POP JUMP JUMPDEST PUSH0 PUSH1 0x20 DUP3 DUP5 SUB SLT ISZERO PUSH2 0x371 JUMPI PUSH2 0x370 PUSH2 0x321 JUMP JUMPDEST JUMPDEST PUSH0 PUSH2 0x37E DUP5 DUP3 DUP6 ADD PUSH2 0x348 JUMP JUMPDEST SWAP2 POP POP SWAP3 SWAP2 POP POP JUMP JUMPDEST PUSH0 PUSH20 0xFFFFFFFFFFFFFFFFFFFFFFFFFFFFFFFFFFFFFFFF DUP3 AND SWAP1 POP SWAP2 SWAP1 POP JUMP JUMPDEST PUSH0 DUP2 SWAP1 POP SWAP2 SWAP1 POP JUMP JUMPDEST PUSH0 PUSH2 0x3C9 PUSH2 0x3C4 PUSH2 0x3BF DUP5 PUSH2 0x387 JUMP JUMPDEST PUSH2 0x3A6 JUMP JUMPDEST PUSH2 0x387 JUMP JUMPDEST SWAP1 POP SWAP2 SWAP1 POP JUMP JUMPDEST PUSH0 PUSH2 0x3DA DUP3 PUSH2 0x3AF JUMP JUMPDEST SWAP1 POP SWAP2 SWAP1 POP JUMP JUMPDEST PUSH0 PUSH2 0x3EB DUP3 PUSH2 0x3D0 JUMP JUMPDEST SWAP1 POP SWAP2 SWAP1 POP JUMP JUMPDEST PUSH2 0x3FB DUP2 PUSH2 0x3E1 JUMP JUMPDEST DUP3 MSTORE POP POP JUMP JUMPDEST PUSH0 PUSH1 0x20 DUP3 ADD SWAP1 POP PUSH2 0x414 PUSH0 DUP4 ADD DUP5 PUSH2 0x3F2 JUMP JUMPDEST SWAP3 SWAP2 POP POP JUMP JUMPDEST PUSH0 DUP1 REVERT JUMPDEST PUSH0 DUP1 REVERT JUMPDEST PUSH0 DUP1 REVERT JUMPDEST PUSH0 DUP1 DUP4 PUSH1 0x1F DUP5 ADD SLT PUSH2 0x43B JUMPI PUSH2 0x43A PUSH2 0x41A JUMP JUMPDEST JUMPDEST DUP3 CALLDATALOAD SWAP1 POP PUSH8 0xFFFFFFFFFFFFFFFF DUP2 GT ISZERO PUSH2 0x458 JUMPI PUSH2 0x457 PUSH2 0x41E JUMP JUMPDEST JUMPDEST PUSH1 0x20 DUP4 ADD SWAP2 POP DUP4 PUSH1 0x1 DUP3 MUL DUP4 ADD GT ISZERO PUSH2 0x474 JUMPI PUSH2 0x473 PUSH2 0x422 JUMP JUMPDEST JUMPDEST SWAP3 POP SWAP3 SWAP1 POP JUMP JUMPDEST PUSH0 DUP1 PUSH0 DUP1 PUSH1 0x60 DUP6 DUP8 SUB SLT ISZERO PUSH2 0x493 JUMPI PUSH2 0x492 PUSH2 0x321 JUMP JUMPDEST JUMPDEST PUSH0 PUSH2 0x4A0 DUP8 DUP3 DUP9 ADD PUSH2 0x348 JUMP JUMPDEST SWAP5 POP POP PUSH1 0x20 DUP6 ADD CALLDATALOAD PUSH8 0xFFFFFFFFFFFFFFFF DUP2 GT ISZERO PUSH2 0x4C1 JUMPI PUSH2 0x4C0 PUSH2 0x325 JUMP JUMPDEST JUMPDEST PUSH2 0x4CD DUP8 DUP3 DUP9 ADD PUSH2 0x426 JUMP JUMPDEST SWAP4 POP SWAP4 POP POP PUSH1 0x40 PUSH2 0x4E0 DUP8 DUP3 DUP9 ADD PUSH2 0x348 JUMP JUMPDEST SWAP2 POP POP SWAP3 SWAP6 SWAP2 SWAP5 POP SWAP3 POP JUMP JUMPDEST PUSH0 DUP2 MLOAD SWAP1 POP SWAP2 SWAP1 POP JUMP JUMPDEST PUSH0 DUP3 DUP3 MSTORE PUSH1 0x20 DUP3 ADD SWAP1 POP SWAP3 SWAP2 POP POP JUMP JUMPDEST DUP3 DUP2 DUP4 MCOPY PUSH0 DUP4 DUP4 ADD MSTORE POP POP POP JUMP JUMPDEST PUSH0 PUSH1 0x1F NOT PUSH1 0x1F DUP4 ADD AND SWAP1 POP SWAP2 SWAP1 POP JUMP JUMPDEST PUSH0 PUSH2 0x52E DUP3 PUSH2 0x4EC JUMP JUMPDEST PUSH2 0x538 DUP2 DUP6 PUSH2 0x4F6 JUMP JUMPDEST SWAP4 POP PUSH2 0x548 DUP2 DUP6 PUSH1 0x20 DUP7 ADD PUSH2 0x506 JUMP JUMPDEST PUSH2 0x551 DUP2 PUSH2 0x514 JUMP JUMPDEST DUP5 ADD SWAP2 POP POP SWAP3 SWAP2 POP POP JUMP JUMPDEST PUSH0 PUSH1 0x20 DUP3 ADD SWAP1 POP DUP2 DUP2 SUB PUSH0 DUP4 ADD MSTORE PUSH2 0x574 DUP2 DUP5 PUSH2 0x524 JUMP JUMPDEST SWAP1 POP SWAP3 SWAP2 POP POP JUMP JUMPDEST PUSH32 0x4E487B7100000000000000000000000000000000000000000000000000000000 PUSH0 MSTORE PUSH1 0x32 PUSH1 0x4 MSTORE PUSH1 0x24 PUSH0 REVERT JUMPDEST PUSH2 0x5B2 DUP2 PUSH2 0x329 JUMP JUMPDEST DUP3 MSTORE POP POP JUMP JUMPDEST DUP3 DUP2 DUP4 CALLDATACOPY PUSH0 DUP4 DUP4 ADD MSTORE POP POP POP JUMP JUMPDEST PUSH0 PUSH2 0x5D1 DUP4 DUP6 PUSH2 0x4F6 JUMP JUMPDEST SWAP4 POP PUSH2 0x5DE DUP4 DUP6 DUP5 PUSH2 0x5B8 JUMP JUMPDEST PUSH2 0x5E7 DUP4 PUSH2 0x514 JUMP JUMPDEST DUP5 ADD SWAP1 POP SWAP4 SWAP3 POP POP POP JUMP JUMPDEST PUSH0 PUSH1 0x40 DUP3 ADD SWAP1 POP PUSH2 0x605 PUSH0 DUP4 ADD DUP7 PUSH2 0x5A9 JUMP JUMPDEST DUP2 DUP2 SUB PUSH1 0x20 DUP4 ADD MSTORE PUSH2 0x618 DUP2 DUP5 DUP7 PUSH2 0x5C6 JUMP JUMPDEST SWAP1 POP SWAP5 SWAP4 POP POP POP POP JUMP JUMPDEST PUSH0 DUP2 SWAP1 POP SWAP2 SWAP1 POP JUMP JUMPDEST PUSH0 PUSH2 0x645 PUSH2 0x640 PUSH2 0x63B DUP5 PUSH2 0x622 JUMP JUMPDEST PUSH2 0x3A6 JUMP JUMPDEST PUSH2 0x329 JUMP JUMPDEST SWAP1 POP SWAP2 SWAP1 POP JUMP JUMPDEST PUSH2 0x655 DUP2 PUSH2 0x62B JUMP JUMPDEST DUP3 MSTORE POP POP JUMP JUMPDEST PUSH0 PUSH1 0x20 DUP3 ADD SWAP1 POP PUSH2 0x66E PUSH0 DUP4 ADD DUP5 PUSH2 0x64C JUMP JUMPDEST SWAP3 SWAP2 POP POP JUMP JUMPDEST PUSH0 DUP1 REVERT JUMPDEST PUSH32 0x4E487B7100000000000000000000000000000000000000000000000000000000 PUSH0 MSTORE PUSH1 0x41 PUSH1 0x4 MSTORE PUSH1 0x24 PUSH0 REVERT JUMPDEST PUSH2 0x6AE DUP3 PUSH2 0x514 JUMP JUMPDEST DUP2 ADD DUP2 DUP2 LT PUSH8 0xFFFFFFFFFFFFFFFF DUP3 GT OR ISZERO PUSH2 0x6CD JUMPI PUSH2 0x6CC PUSH2 0x678 JUMP JUMPDEST JUMPDEST DUP1 PUSH1 0x40 MSTORE POP POP POP JUMP JUMPDEST PUSH0 PUSH2 0x6DF PUSH2 0x318 JUMP JUMPDEST SWAP1 POP PUSH2 0x6EB DUP3 DUP3 PUSH2 0x6A5 JUMP JUMPDEST SWAP2 SWAP1 POP JUMP JUMPDEST PUSH0 PUSH8 0xFFFFFFFFFFFFFFFF DUP3 GT ISZERO PUSH2 0x70A JUMPI PUSH2 0x709 PUSH2 0x678 JUMP JUMPDEST JUMPDEST PUSH2 0x713 DUP3 PUSH2 0x514 JUMP JUMPDEST SWAP1 POP PUSH1 0x20 DUP2 ADD SWAP1 POP SWAP2 SWAP1 POP JUMP JUMPDEST PUSH0 PUSH2 0x732 PUSH2 0x72D DUP5 PUSH2 0x6F0 JUMP JUMPDEST PUSH2 0x6D6 JUMP JUMPDEST SWAP1 POP DUP3 DUP2 MSTORE PUSH1 0x20 DUP2 ADD DUP5 DUP5 DUP5 ADD GT ISZERO PUSH2 0x74E JUMPI PUSH2 0x74D PUSH2 0x674 JUMP JUMPDEST JUMPDEST PUSH2 0x759 DUP5 DUP3 DUP6 PUSH2 0x506 JUMP JUMPDEST POP SWAP4 SWAP3 POP POP POP JUMP JUMPDEST PUSH0 DUP3 PUSH1 0x1F DUP4 ADD SLT PUSH2 0x775 JUMPI PUSH2 0x774 PUSH2 0x41A JUMP JUMPDEST JUMPDEST DUP2 MLOAD PUSH2 0x785 DUP5 DUP3 PUSH1 0x20 DUP7 ADD PUSH2 0x720 JUMP JUMPDEST SWAP2 POP POP SWAP3 SWAP2 POP POP JUMP JUMPDEST PUSH0 PUSH1 0x20 DUP3 DUP5 SUB SLT ISZERO PUSH2 0x7A3 JUMPI PUSH2 0x7A2 PUSH2 0x321 JUMP JUMPDEST JUMPDEST PUSH0 DUP3 ADD MLOAD PUSH8 0xFFFFFFFFFFFFFFFF DUP2 GT ISZERO PUSH2 0x7C0 JUMPI PUSH2 0x7BF PUSH2 0x325 JUMP JUMPDEST JUMPDEST PUSH2 0x7CC DUP5 DUP3 DUP6 ADD PUSH2 0x761 JUMP JUMPDEST SWAP2 POP POP SWAP3 SWAP2 POP POP JUMP INVALID PUSH1 0x80 PUSH1 0x40 MSTORE CALLVALUE DUP1 ISZERO PUSH1 0xE JUMPI PUSH0 DUP1 REVERT JUMPDEST POP PUSH2 0xB5E DUP1 PUSH2 0x1C PUSH0 CODECOPY PUSH0 RETURN INVALID PUSH1 0x80 PUSH1 0x40 MSTORE CALLVALUE DUP1 ISZERO PUSH2 0xF JUMPI PUSH0 DUP1 REVERT JUMPDEST POP PUSH1 0x4 CALLDATASIZE LT PUSH2 0x60 JUMPI PUSH0 CALLDATALOAD PUSH1 0xE0 SHR DUP1 PUSH4 0x10B4801A EQ PUSH2 0x64 JUMPI DUP1 PUSH4 0x39D515E2 EQ PUSH2 0x94 JUMPI DUP1 PUSH4 0x40AB422E EQ PUSH2 0xC5 JUMPI DUP1 PUSH4 0x8F7D59B8 EQ PUSH2 0xF5 JUMPI DUP1 PUSH4 0xA87D942C EQ PUSH2 0x111 JUMPI DUP1 PUSH4 0xDA2DC4EB EQ PUSH2 0x12F JUMPI JUMPDEST PUSH0 DUP1 REVERT JUMPDEST PUSH2 0x7E PUSH1 0x4 DUP1 CALLDATASIZE SUB DUP2 ADD SWAP1 PUSH2 0x79 SWAP2 SWAP1 PUSH2 0x4EA JUMP JUMPDEST PUSH2 0x14B JUMP JUMPDEST PUSH1 0x40 MLOAD PUSH2 0x8B SWAP2 SWAP1 PUSH2 0x5CE JUMP JUMPDEST PUSH1 0x40 MLOAD DUP1 SWAP2 SUB SWAP1 RETURN JUMPDEST PUSH2 0xAE PUSH1 0x4 DUP1 CALLDATASIZE SUB DUP2 ADD SWAP1 PUSH2 0xA9 SWAP2 SWAP1 PUSH2 0x4EA JUMP JUMPDEST PUSH2 0x21D JUMP JUMPDEST PUSH1 0x40 MLOAD PUSH2 0xBC SWAP3 SWAP2 SWAP1 PUSH2 0x645 JUMP JUMPDEST PUSH1 0x40 MLOAD DUP1 SWAP2 SUB SWAP1 RETURN JUMPDEST PUSH2 0xDF PUSH1 0x4 DUP1 CALLDATASIZE SUB DUP2 ADD SWAP1 PUSH2 0xDA SWAP2 SWAP1 PUSH2 0x4EA JUMP JUMPDEST PUSH2 0x2D1 JUMP JUMPDEST PUSH1 0x40 MLOAD PUSH2 0xEC SWAP2 SWAP1 PUSH2 0x673 JUMP JUMPDEST PUSH1 0x40 MLOAD DUP1 SWAP2 SUB SWAP1 RETURN JUMPDEST PUSH2 0x10F PUSH1 0x4 DUP1 CALLDATASIZE SUB DUP2 ADD SWAP1 PUSH2 0x10A SWAP2 SWAP1 PUSH2 0x7BF JUMP JUMPDEST PUSH2 0x383 JUMP JUMPDEST STOP JUMPDEST PUSH2 0x119 PUSH2 0x3E3 JUMP JUMPDEST PUSH1 0x40 MLOAD PUSH2 0x126 SWAP2 SWAP1 PUSH2 0x819 JUMP JUMPDEST PUSH1 0x40 MLOAD DUP1 SWAP2 SUB SWAP1 RETURN JUMPDEST PUSH2 0x149 PUSH1 0x4 DUP1 CALLDATASIZE SUB DUP2 ADD SWAP1 PUSH2 0x144 SWAP2 SWAP1 PUSH2 0x4EA JUMP JUMPDEST PUSH2 0x3EE JUMP JUMPDEST STOP JUMPDEST PUSH2 0x153 PUSH2 0x435 JUMP JUMPDEST PUSH0 DUP3 DUP2 SLOAD DUP2 LT PUSH2 0x166 JUMPI PUSH2 0x165 PUSH2 0x832 JUMP JUMPDEST JUMPDEST SWAP1 PUSH0 MSTORE PUSH1 0x20 PUSH0 KECCAK256 SWAP1 PUSH1 0x2 MUL ADD PUSH1 0x40 MLOAD DUP1 PUSH1 0x40 ADD PUSH1 0x40 MSTORE SWAP1 DUP2 PUSH0 DUP3 ADD SLOAD DUP2 MSTORE PUSH1 0x20 ADD PUSH1 0x1 DUP3 ADD DUP1 SLOAD PUSH2 0x196 SWAP1 PUSH2 0x88C JUMP JUMPDEST DUP1 PUSH1 0x1F ADD PUSH1 0x20 DUP1 SWAP2 DIV MUL PUSH1 0x20 ADD PUSH1 0x40 MLOAD SWAP1 DUP2 ADD PUSH1 0x40 MSTORE DUP1 SWAP3 SWAP2 SWAP1 DUP2 DUP2 MSTORE PUSH1 0x20 ADD DUP3 DUP1 SLOAD PUSH2 0x1C2 SWAP1 PUSH2 0x88C JUMP JUMPDEST DUP1 ISZERO PUSH2 0x20D JUMPI DUP1 PUSH1 0x1F LT PUSH2 0x1E4 JUMPI PUSH2 0x100 DUP1 DUP4 SLOAD DIV MUL DUP4 MSTORE SWAP2 PUSH1 0x20 ADD SWAP2 PUSH2 0x20D JUMP JUMPDEST DUP3 ADD SWAP2 SWAP1 PUSH0 MSTORE PUSH1 0x20 PUSH0 KECCAK256 SWAP1 JUMPDEST DUP2 SLOAD DUP2 MSTORE SWAP1 PUSH1 0x1 ADD SWAP1 PUSH1 0x20 ADD DUP1 DUP4 GT PUSH2 0x1F0 JUMPI DUP3 SWAP1 SUB PUSH1 0x1F AND DUP3 ADD SWAP2 JUMPDEST POP POP POP POP POP DUP2 MSTORE POP POP SWAP1 POP SWAP2 SWAP1 POP JUMP JUMPDEST PUSH0 DUP2 DUP2 SLOAD DUP2 LT PUSH2 0x22B JUMPI PUSH0 DUP1 REVERT JUMPDEST SWAP1 PUSH0 MSTORE PUSH1 0x20 PUSH0 KECCAK256 SWAP1 PUSH1 0x2 MUL ADD PUSH0 SWAP2 POP SWAP1 POP DUP1 PUSH0 ADD SLOAD SWAP1 DUP1 PUSH1 0x1 ADD DUP1 SLOAD PUSH2 0x250 SWAP1 PUSH2 0x88C JUMP JUMPDEST DUP1 PUSH1 0x1F ADD PUSH1 0x20 DUP1 SWAP2 DIV MUL PUSH1 0x20 ADD PUSH1 0x40 MLOAD SWAP1 DUP2 ADD PUSH1 0x40 MSTORE DUP1 SWAP3 SWAP2 SWAP1 DUP2 DUP2 MSTORE PUSH1 0x20 ADD DUP3 DUP1 SLOAD PUSH2 0x27C SWAP1 PUSH2 0x88C JUMP JUMPDEST DUP1 ISZERO PUSH2 0x2C7 JUMPI DUP1 PUSH1 0x1F LT PUSH2 0x29E JUMPI PUSH2 0x100 DUP1 DUP4 SLOAD DIV MUL DUP4 MSTORE SWAP2 PUSH1 0x20 ADD SWAP2 PUSH2 0x2C7 JUMP JUMPDEST DUP3 ADD SWAP2 SWAP1 PUSH0 MSTORE PUSH1 0x20 PUSH0 KECCAK256 SWAP1 JUMPDEST DUP2 SLOAD DUP2 MSTORE SWAP1 PUSH1 0x1 ADD SWAP1 PUSH1 0x20 ADD DUP1 DUP4 GT PUSH2 0x2AA JUMPI DUP3 SWAP1 SUB PUSH1 0x1F AND DUP3 ADD SWAP2 JUMPDEST POP POP POP POP POP SWAP1 POP DUP3 JUMP JUMPDEST PUSH1 0x60 PUSH0 DUP3 DUP2 SLOAD DUP2 LT PUSH2 0x2E6 JUMPI PUSH2 0x2E5 PUSH2 0x832 JUMP JUMPDEST JUMPDEST SWAP1 PUSH0 MSTORE PUSH1 0x20 PUSH0 KECCAK256 SWAP1 PUSH1 0x2 MUL ADD PUSH1 0x1 ADD DUP1 SLOAD PUSH2 0x300 SWAP1 PUSH2 0x88C JUMP JUMPDEST DUP1 PUSH1 0x1F ADD PUSH1 0x20 DUP1 SWAP2 DIV MUL PUSH1 0x20 ADD PUSH1 0x40 MLOAD SWAP1 DUP2 ADD PUSH1 0x40 MSTORE DUP1 SWAP3 SWAP2 SWAP1 DUP2 DUP2 MSTORE PUSH1 0x20 ADD DUP3 DUP1 SLOAD PUSH2 0x32C SWAP1 PUSH2 0x88C JUMP JUMPDEST DUP1 ISZERO PUSH2 0x377 JUMPI DUP1 PUSH1 0x1F LT PUSH2 0x34E JUMPI PUSH2 0x100 DUP1 DUP4 SLOAD DIV MUL DUP4 MSTORE SWAP2 PUSH1 0x20 ADD SWAP2 PUSH2 0x377 JUMP JUMPDEST DUP3 ADD SWAP2 SWAP1 PUSH0 MSTORE PUSH1 0x20 PUSH0 KECCAK256 SWAP1 JUMPDEST DUP2 SLOAD DUP2 MSTORE SWAP1 PUSH1 0x1 ADD SWAP1 PUSH1 0x20 ADD DUP1 DUP4 GT PUSH2 0x35A JUMPI DUP3 SWAP1 SUB PUSH1 0x1F AND DUP3 ADD SWAP2 JUMPDEST POP POP POP POP POP SWAP1 POP SWAP2 SWAP1 POP JUMP JUMPDEST PUSH0 PUSH1 0x40 MLOAD DUP1 PUSH1 0x40 ADD PUSH1 0x40 MSTORE DUP1 DUP5 DUP2 MSTORE PUSH1 0x20 ADD DUP4 DUP2 MSTORE POP SWAP1 DUP1 PUSH1 0x1 DUP2 SLOAD ADD DUP1 DUP3 SSTORE DUP1 SWAP2 POP POP PUSH1 0x1 SWAP1 SUB SWAP1 PUSH0 MSTORE PUSH1 0x20 PUSH0 KECCAK256 SWAP1 PUSH1 0x2 MUL ADD PUSH0 SWAP1 SWAP2 SWAP1 SWAP2 SWAP1 SWAP2 POP PUSH0 DUP3 ADD MLOAD DUP2 PUSH0 ADD SSTORE PUSH1 0x20 DUP3 ADD MLOAD DUP2 PUSH1 0x1 ADD SWAP1 DUP2 PUSH2 0x3DC SWAP2 SWAP1 PUSH2 0xA59 JUMP JUMPDEST POP POP POP POP POP JUMP JUMPDEST PUSH0 DUP1 DUP1 SLOAD SWAP1 POP SWAP1 POP SWAP1 JUMP JUMPDEST DUP1 PUSH0 DUP1 SLOAD SWAP1 POP GT ISZERO PUSH2 0x432 JUMPI PUSH0 DUP2 DUP2 SLOAD DUP2 LT PUSH2 0x40D JUMPI PUSH2 0x40C PUSH2 0x832 JUMP JUMPDEST JUMPDEST SWAP1 PUSH0 MSTORE PUSH1 0x20 PUSH0 KECCAK256 SWAP1 PUSH1 0x2 MUL ADD PUSH0 DUP1 DUP3 ADD PUSH0 SWAP1 SSTORE PUSH1 0x1 DUP3 ADD PUSH0 PUSH2 0x42F SWAP2 SWAP1 PUSH2 0x44E JUMP JUMPDEST POP POP JUMPDEST POP JUMP JUMPDEST PUSH1 0x40 MLOAD DUP1 PUSH1 0x40 ADD PUSH1 0x40 MSTORE DUP1 PUSH0 DUP2 MSTORE PUSH1 0x20 ADD PUSH1 0x60 DUP2 MSTORE POP SWAP1 JUMP JUMPDEST POP DUP1 SLOAD PUSH2 0x45A SWAP1 PUSH2 0x88C JUMP JUMPDEST PUSH0 DUP3 SSTORE DUP1 PUSH1 0x1F LT PUSH2 0x46B JUMPI POP PUSH2 0x488 JUMP JUMPDEST PUSH1 0x1F ADD PUSH1 0x20 SWAP1 DIV SWAP1 PUSH0 MSTORE PUSH1 0x20 PUSH0 KECCAK256 SWAP1 DUP2 ADD SWAP1 PUSH2 0x487 SWAP2 SWAP1 PUSH2 0x48B JUMP JUMPDEST JUMPDEST POP JUMP JUMPDEST JUMPDEST DUP1 DUP3 GT ISZERO PUSH2 0x4A2 JUMPI PUSH0 DUP2 PUSH0 SWAP1 SSTORE POP PUSH1 0x1 ADD PUSH2 0x48C JUMP JUMPDEST POP SWAP1 JUMP JUMPDEST PUSH0 PUSH1 0x40 MLOAD SWAP1 POP SWAP1 JUMP JUMPDEST PUSH0 DUP1 REVERT JUMPDEST PUSH0 DUP1 REVERT JUMPDEST PUSH0 DUP2 SWAP1 POP SWAP2 SWAP1 POP JUMP JUMPDEST PUSH2 0x4C9 DUP2 PUSH2 0x4B7 JUMP JUMPDEST DUP2 EQ PUSH2 0x4D3 JUMPI PUSH0 DUP1 REVERT JUMPDEST POP JUMP JUMPDEST PUSH0 DUP2 CALLDATALOAD SWAP1 POP PUSH2 0x4E4 DUP2 PUSH2 0x4C0 JUMP JUMPDEST SWAP3 SWAP2 POP POP JUMP JUMPDEST PUSH0 PUSH1 0x20 DUP3 DUP5 SUB SLT ISZERO PUSH2 0x4FF JUMPI PUSH2 0x4FE PUSH2 0x4AF JUMP JUMPDEST JUMPDEST PUSH0 PUSH2 0x50C DUP5 DUP3 DUP6 ADD PUSH2 0x4D6 JUMP JUMPDEST SWAP2 POP POP SWAP3 SWAP2 POP POP JUMP JUMPDEST PUSH2 0x51E DUP2 PUSH2 0x4B7 JUMP JUMPDEST DUP3 MSTORE POP POP JUMP JUMPDEST PUSH0 DUP2 MLOAD SWAP1 POP SWAP2 SWAP1 POP JUMP JUMPDEST PUSH0 DUP3 DUP3 MSTORE PUSH1 0x20 DUP3 ADD SWAP1 POP SWAP3 SWAP2 POP POP JUMP JUMPDEST DUP3 DUP2 DUP4 MCOPY PUSH0 DUP4 DUP4 ADD MSTORE POP POP POP JUMP JUMPDEST PUSH0 PUSH1 0x1F NOT PUSH1 0x1F DUP4 ADD AND SWAP1 POP SWAP2 SWAP1 POP JUMP JUMPDEST PUSH0 PUSH2 0x566 DUP3 PUSH2 0x524 JUMP JUMPDEST PUSH2 0x570 DUP2 DUP6 PUSH2 0x52E JUMP JUMPDEST SWAP4 POP PUSH2 0x580 DUP2 DUP6 PUSH1 0x20 DUP7 ADD PUSH2 0x53E JUMP JUMPDEST PUSH2 0x589 DUP2 PUSH2 0x54C JUMP JUMPDEST DUP5 ADD SWAP2 POP POP SWAP3 SWAP2 POP POP JUMP JUMPDEST PUSH0 PUSH1 0x40 DUP4 ADD PUSH0 DUP4 ADD MLOAD PUSH2 0x5A9 PUSH0 DUP7 ADD DUP3 PUSH2 0x515 JUMP JUMPDEST POP PUSH1 0x20 DUP4 ADD MLOAD DUP5 DUP3 SUB PUSH1 0x20 DUP7 ADD MSTORE PUSH2 0x5C1 DUP3 DUP3 PUSH2 0x55C JUMP JUMPDEST SWAP2 POP POP DUP1 SWAP2 POP POP SWAP3 SWAP2 POP POP JUMP JUMPDEST PUSH0 PUSH1 0x20 DUP3 ADD SWAP1 POP DUP2 DUP2 SUB PUSH0 DUP4 ADD MSTORE PUSH2 0x5E6 DUP2 DUP5 PUSH2 0x594 JUMP JUMPDEST SWAP1 POP SWAP3 SWAP2 POP POP JUMP JUMPDEST PUSH2 0x5F7 DUP2 PUSH2 0x4B7 JUMP JUMPDEST DUP3 MSTORE POP POP JUMP JUMPDEST PUSH0 DUP3 DUP3 MSTORE PUSH1 0x20 DUP3 ADD SWAP1 POP SWAP3 SWAP2 POP POP JUMP JUMPDEST PUSH0 PUSH2 0x617 DUP3 PUSH2 0x524 JUMP JUMPDEST PUSH2 0x621 DUP2 DUP6 PUSH2 0x5FD JUMP JUMPDEST SWAP4 POP PUSH2 0x631 DUP2 DUP6 PUSH1 0x20 DUP7 ADD PUSH2 0x53E JUMP JUMPDEST PUSH2 0x63A DUP2 PUSH2 0x54C JUMP JUMPDEST DUP5 ADD SWAP2 POP POP SWAP3 SWAP2 POP POP JUMP JUMPDEST PUSH0 PUSH1 0x40 DUP3 ADD SWAP1 POP PUSH2 0x658 PUSH0 DUP4 ADD DUP6 PUSH2 0x5EE JUMP JUMPDEST DUP2 DUP2 SUB PUSH1 0x20 DUP4 ADD MSTORE PUSH2 0x66A DUP2 DUP5 PUSH2 0x60D JUMP JUMPDEST SWAP1 POP SWAP4 SWAP3 POP POP POP JUMP JUMPDEST PUSH0 PUSH1 0x20 DUP3 ADD SWAP1 POP DUP2 DUP2 SUB PUSH0 DUP4 ADD MSTORE PUSH2 0x68B DUP2 DUP5 PUSH2 0x60D JUMP JUMPDEST SWAP1 POP SWAP3 SWAP2 POP POP JUMP JUMPDEST PUSH0 DUP1 REVERT JUMPDEST PUSH0 DUP1 REVERT JUMPDEST PUSH32 0x4E487B7100000000000000000000000000000000000000000000000000000000 PUSH0 MSTORE PUSH1 0x41 PUSH1 0x4 MSTORE PUSH1 0x24 PUSH0 REVERT JUMPDEST PUSH2 0x6D1 DUP3 PUSH2 0x54C JUMP JUMPDEST DUP2 ADD DUP2 DUP2 LT PUSH8 0xFFFFFFFFFFFFFFFF DUP3 GT OR ISZERO PUSH2 0x6F0 JUMPI PUSH2 0x6EF PUSH2 0x69B JUMP JUMPDEST JUMPDEST DUP1 PUSH1 0x40 MSTORE POP POP POP JUMP JUMPDEST PUSH0 PUSH2 0x702 PUSH2 0x4A6 JUMP JUMPDEST SWAP1 POP PUSH2 0x70E DUP3 DUP3 PUSH2 0x6C8 JUMP JUMPDEST SWAP2 SWAP1 POP JUMP JUMPDEST PUSH0 PUSH8 0xFFFFFFFFFFFFFFFF DUP3 GT ISZERO PUSH2 0x72D JUMPI PUSH2 0x72C PUSH2 0x69B JUMP JUMPDEST JUMPDEST PUSH2 0x736 DUP3 PUSH2 0x54C JUMP JUMPDEST SWAP1 POP PUSH1 0x20 DUP2 ADD SWAP1 POP SWAP2 SWAP1 POP JUMP JUMPDEST DUP3 DUP2 DUP4 CALLDATACOPY PUSH0 DUP4 DUP4 ADD MSTORE POP POP POP JUMP JUMPDEST PUSH0 PUSH2 0x763 PUSH2 0x75E DUP5 PUSH2 0x713 JUMP JUMPDEST PUSH2 0x6F9 JUMP JUMPDEST SWAP1 POP DUP3 DUP2 MSTORE PUSH1 0x20 DUP2 ADD DUP5 DUP5 DUP5 ADD GT ISZERO PUSH2 0x77F JUMPI PUSH2 0x77E PUSH2 0x697 JUMP JUMPDEST JUMPDEST PUSH2 0x78A DUP5 DUP3 DUP6 PUSH2 0x743 JUMP JUMPDEST POP SWAP4 SWAP3 POP POP POP JUMP JUMPDEST PUSH0 DUP3 PUSH1 0x1F DUP4 ADD SLT PUSH2 0x7A6 JUMPI PUSH2 0x7A5 PUSH2 0x693 JUMP JUMPDEST JUMPDEST DUP2 CALLDATALOAD PUSH2 0x7B6 DUP5 DUP3 PUSH1 0x20 DUP7 ADD PUSH2 0x751 JUMP JUMPDEST SWAP2 POP POP SWAP3 SWAP2 POP POP JUMP JUMPDEST PUSH0 DUP1 PUSH1 0x40 DUP4 DUP6 SUB SLT ISZERO PUSH2 0x7D5 JUMPI PUSH2 0x7D4 PUSH2 0x4AF JUMP JUMPDEST JUMPDEST PUSH0 PUSH2 0x7E2 DUP6 DUP3 DUP7 ADD PUSH2 0x4D6 JUMP JUMPDEST SWAP3 POP POP PUSH1 0x20 DUP4 ADD CALLDATALOAD PUSH8 0xFFFFFFFFFFFFFFFF DUP2 GT ISZERO PUSH2 0x803 JUMPI PUSH2 0x802 PUSH2 0x4B3 JUMP JUMPDEST JUMPDEST PUSH2 0x80F DUP6 DUP3 DUP7 ADD PUSH2 0x792 JUMP JUMPDEST SWAP2 POP POP SWAP3 POP SWAP3 SWAP1 POP JUMP JUMPDEST PUSH0 PUSH1 0x20 DUP3 ADD SWAP1 POP PUSH2 0x82C PUSH0 DUP4 ADD DUP5 PUSH2 0x5EE JUMP JUMPDEST SWAP3 SWAP2 POP POP JUMP JUMPDEST PUSH32 0x4E487B7100000000000000000000000000000000000000000000000000000000 PUSH0 MSTORE PUSH1 0x32 PUSH1 0x4 MSTORE PUSH1 0x24 PUSH0 REVERT JUMPDEST PUSH32 0x4E487B7100000000000000000000000000000000000000000000000000000000 PUSH0 MSTORE PUSH1 0x22 PUSH1 0x4 MSTORE PUSH1 0x24 PUSH0 REVERT JUMPDEST PUSH0 PUSH1 0x2 DUP3 DIV SWAP1 POP PUSH1 0x1 DUP3 AND DUP1 PUSH2 0x8A3 JUMPI PUSH1 0x7F DUP3 AND SWAP2 POP JUMPDEST PUSH1 0x20 DUP3 LT DUP2 SUB PUSH2 0x8B6 JUMPI PUSH2 0x8B5 PUSH2 0x85F JUMP JUMPDEST JUMPDEST POP SWAP2 SWAP1 POP JUMP JUMPDEST PUSH0 DUP2 SWAP1 POP DUP2 PUSH0 MSTORE PUSH1 0x20 PUSH0 KECCAK256 SWAP1 POP SWAP2 SWAP1 POP JUMP JUMPDEST PUSH0 PUSH1 0x20 PUSH1 0x1F DUP4 ADD DIV SWAP1 POP SWAP2 SWAP1 POP JUMP JUMPDEST PUSH0 DUP3 DUP3 SHL SWAP1 POP SWAP3 SWAP2 POP POP JUMP JUMPDEST PUSH0 PUSH1 0x8 DUP4 MUL PUSH2 0x918 PUSH32 0xFFFFFFFFFFFFFFFFFFFFFFFFFFFFFFFFFFFFFFFFFFFFFFFFFFFFFFFFFFFFFFFF DUP3 PUSH2 0x8DD JUMP JUMPDEST PUSH2 0x922 DUP7 DUP4 PUSH2 0x8DD JUMP JUMPDEST SWAP6 POP DUP1 NOT DUP5 AND SWAP4 POP DUP1 DUP7 AND DUP5 OR SWAP3 POP POP POP SWAP4 SWAP3 POP POP POP JUMP JUMPDEST PUSH0 DUP2 SWAP1 POP SWAP2 SWAP1 POP JUMP JUMPDEST PUSH0 PUSH2 0x95D PUSH2 0x958 PUSH2 0x953 DUP5 PUSH2 0x4B7 JUMP JUMPDEST PUSH2 0x93A JUMP JUMPDEST PUSH2 0x4B7 JUMP JUMPDEST SWAP1 POP SWAP2 SWAP1 POP JUMP JUMPDEST PUSH0 DUP2 SWAP1 POP SWAP2 SWAP1 POP JUMP JUMPDEST PUSH2 0x976 DUP4 PUSH2 0x943 JUMP JUMPDEST PUSH2 0x98A PUSH2 0x982 DUP3 PUSH2 0x964 JUMP JUMPDEST DUP5 DUP5 SLOAD PUSH2 0x8E9 JUMP JUMPDEST DUP3 SSTORE POP POP POP POP JUMP JUMPDEST PUSH0 SWAP1 JUMP JUMPDEST PUSH2 0x99E PUSH2 0x992 JUMP JUMPDEST PUSH2 0x9A9 DUP2 DUP5 DUP5 PUSH2 0x96D JUMP JUMPDEST POP POP POP JUMP JUMPDEST JUMPDEST DUP2 DUP2 LT ISZERO PUSH2 0x9CC JUMPI PUSH2 0x9C1 PUSH0 DUP3 PUSH2 0x996 JUMP JUMPDEST PUSH1 0x1 DUP2 ADD SWAP1 POP PUSH2 0x9AF JUMP JUMPDEST POP POP JUMP JUMPDEST PUSH1 0x1F DUP3 GT ISZERO PUSH2 0xA11 JUMPI PUSH2 0x9E2 DUP2 PUSH2 0x8BC JUMP JUMPDEST PUSH2 0x9EB DUP5 PUSH2 0x8CE JUMP JUMPDEST DUP2 ADD PUSH1 0x20 DUP6 LT ISZERO PUSH2 0x9FA JUMPI DUP2 SWAP1 POP JUMPDEST PUSH2 0xA0E PUSH2 0xA06 DUP6 PUSH2 0x8CE JUMP JUMPDEST DUP4 ADD DUP3 PUSH2 0x9AE JUMP JUMPDEST POP POP JUMPDEST POP POP POP JUMP JUMPDEST PUSH0 DUP3 DUP3 SHR SWAP1 POP SWAP3 SWAP2 POP POP JUMP JUMPDEST PUSH0 PUSH2 0xA31 PUSH0 NOT DUP5 PUSH1 0x8 MUL PUSH2 0xA16 JUMP JUMPDEST NOT DUP1 DUP4 AND SWAP2 POP POP SWAP3 SWAP2 POP POP JUMP JUMPDEST PUSH0 PUSH2 0xA49 DUP4 DUP4 PUSH2 0xA22 JUMP JUMPDEST SWAP2 POP DUP3 PUSH1 0x2 MUL DUP3 OR SWAP1 POP SWAP3 SWAP2 POP POP JUMP JUMPDEST PUSH2 0xA62 DUP3 PUSH2 0x524 JUMP JUMPDEST PUSH8 0xFFFFFFFFFFFFFFFF DUP2 GT ISZERO PUSH2 0xA7B JUMPI PUSH2 0xA7A PUSH2 0x69B JUMP JUMPDEST JUMPDEST PUSH2 0xA85 DUP3 SLOAD PUSH2 0x88C JUMP JUMPDEST PUSH2 0xA90 DUP3 DUP3 DUP6 PUSH2 0x9D0 JUMP JUMPDEST PUSH0 PUSH1 0x20 SWAP1 POP PUSH1 0x1F DUP4 GT PUSH1 0x1 DUP2 EQ PUSH2 0xAC1 JUMPI PUSH0 DUP5 ISZERO PUSH2 0xAAF JUMPI DUP3 DUP8 ADD MLOAD SWAP1 POP JUMPDEST PUSH2 0xAB9 DUP6 DUP3 PUSH2 0xA3E JUMP JUMPDEST DUP7 SSTORE POP PUSH2 0xB20 JUMP JUMPDEST PUSH1 0x1F NOT DUP5 AND PUSH2 0xACF DUP7 PUSH2 0x8BC JUMP JUMPDEST PUSH0 JUMPDEST DUP3 DUP2 LT ISZERO PUSH2 0xAF6 JUMPI DUP5 DUP10 ADD MLOAD DUP3 SSTORE PUSH1 0x1 DUP3 ADD SWAP2 POP PUSH1 0x20 DUP6 ADD SWAP5 POP PUSH1 0x20 DUP2 ADD SWAP1 POP PUSH2 0xAD1 JUMP JUMPDEST DUP7 DUP4 LT ISZERO PUSH2 0xB13 JUMPI DUP5 DUP10 ADD MLOAD PUSH2 0xB0F PUSH1 0x1F DUP10 AND DUP3 PUSH2 0xA22 JUMP JUMPDEST DUP4 SSTORE POP JUMPDEST PUSH1 0x1 PUSH1 0x2 DUP9 MUL ADD DUP9 SSTORE POP POP POP JUMPDEST POP POP POP POP POP POP JUMP INVALID LOG2 PUSH5 0x6970667358 0x22 SLT KECCAK256 MCOPY SWAP4 TSTORE 0xC2 EQ DUP14 0xCB SWAP15 0xD3 0xE8 0xE1 0xAE SLOAD INVALID ORIGIN PUSH8 0xFEE0D112C96060A 0xBE 0xAC 0xED SIGNEXTEND 0xCC 0xB5 0xC2 DUP13 PUSH5 0x736F6C6343 STOP ADDMOD BYTE STOP CALLER LOG2 PUSH5 0x6970667358 0x22 SLT KECCAK256 DUP8 PUSH11 0xB584A0A6EA382BF22A5335 0xCB 0xD5 0xC2 0xE0 PUSH29 0xA20B509C86A33841EB9857B1F9D664736F6C634300081A003300000000 "
				},
				"gasEstimates": {
					"creation": {
						"codeDepositCost": "999400",
						"executionCost": "1039",
						"totalCost": "1000439"
					},
					"external": {
						"createSimpleStorageContract()": "infinite",
						"sfGet(uint256)": "infinite",
						"sfStorage(uint256,string,uint256)": "infinite",
						"simpleStorageArray(uint256)": "infinite"
					}
				},
				"methodIdentifiers": {
					"createSimpleStorageContract()": "1dda6541",
					"sfGet(uint256)": "c5f19c20",
					"sfStorage(uint256,string,uint256)": "79fa1718",
					"simpleStorageArray(uint256)": "64591bf1"
				}
			},
			"storageLayout": {
				"storage": [
					{
						"astId": 87,
						"contract": "contracts/StorageFactory.sol:StorageFactory",
						"label": "simpleStorageArray",
						"offset": 0,
						"slot": "0",
						"type": "t_array(t_contract(SimpleStorage)80)dyn_storage"
					}
				],
				"types": {
					"t_array(t_contract(SimpleStorage)80)dyn_storage": {
						"base": "t_contract(SimpleStorage)80",
						"encoding": "dynamic_array",
						"label": "contract SimpleStorage[]",
						"numberOfBytes": "32"
					},
					"t_contract(SimpleStorage)80": {
						"encoding": "inplace",
						"label": "contract SimpleStorage",
						"numberOfBytes": "20"
					}
				}
			},
			"userdoc": {
				"kind": "user",
				"methods": {},
				"version": 1
			}
		}
	}
}