{
	"contracts/FundMe.sol": {
		"FundMe": {
			"abi": [
				{
					"inputs": [
						{
							"internalType": "address",
							"name": "",
							"type": "address"
						}
					],
					"name": "amountFundedByEachFunder",
					"outputs": [
						{
							"internalType": "uint256",
							"name": "",
							"type": "uint256"
						}
					],
					"stateMutability": "view",
					"type": "function"
				},
				{
					"inputs": [],
					"name": "fund",
					"outputs": [],
					"stateMutability": "payable",
					"type": "function"
				},
				{
					"inputs": [
						{
							"internalType": "uint256",
							"name": "",
							"type": "uint256"
						}
					],
					"name": "funders",
					"outputs": [
						{
							"internalType": "address",
							"name": "",
							"type": "address"
						}
					],
					"stateMutability": "view",
					"type": "function"
				},
				{
					"inputs": [],
					"name": "minimumUsd",
					"outputs": [
						{
							"internalType": "uint256",
							"name": "",
							"type": "uint256"
						}
					],
					"stateMutability": "view",
					"type": "function"
				}
			],
			"devdoc": {
				"kind": "dev",
				"methods": {},
				"version": 1
			},
			"evm": {
				"assembly": "    /* \"contracts/FundMe.sol\":89:514  contract FundMe {... */\n  mstore(0x40, 0x80)\n    /* \"contracts/FundMe.sol\":179:188  50 * 1e18 */\n  0x02b5e3af16b1880000\n    /* \"contracts/FundMe.sol\":151:188  uint256 public minimumUsd = 50 * 1e18 */\n  0x00\n  sstore\n    /* \"contracts/FundMe.sol\":89:514  contract FundMe {... */\n  callvalue\n  dup1\n  iszero\n  tag_1\n  jumpi\n  0x00\n  dup1\n  revert\ntag_1:\n  pop\n  dataSize(sub_0)\n  dup1\n  dataOffset(sub_0)\n  0x00\n  codecopy\n  0x00\n  return\nstop\n\nsub_0: assembly {\n        /* \"contracts/FundMe.sol\":89:514  contract FundMe {... */\n      mstore(0x40, 0x80)\n      jumpi(tag_1, lt(calldatasize, 0x04))\n      shr(0xe0, calldataload(0x00))\n      dup1\n      0x098de820\n      eq\n      tag_2\n      jumpi\n      dup1\n      0xb60d4288\n      eq\n      tag_3\n      jumpi\n      dup1\n      0xcc845996\n      eq\n      tag_4\n      jumpi\n      dup1\n      0xdc0d3dff\n      eq\n      tag_5\n      jumpi\n    tag_1:\n      0x00\n      dup1\n      revert\n        /* \"contracts/FundMe.sol\":151:188  uint256 public minimumUsd = 50 * 1e18 */\n    tag_2:\n      callvalue\n      dup1\n      iszero\n      tag_6\n      jumpi\n      0x00\n      dup1\n      revert\n    tag_6:\n      pop\n      tag_7\n      tag_8\n      jump\t// in\n    tag_7:\n      mload(0x40)\n      tag_9\n      swap2\n      swap1\n      tag_10\n      jump\t// in\n    tag_9:\n      mload(0x40)\n      dup1\n      swap2\n      sub\n      swap1\n      return\n        /* \"contracts/FundMe.sol\":292:507  function fund() public payable {... */\n    tag_3:\n      tag_11\n      tag_12\n      jump\t// in\n    tag_11:\n      stop\n        /* \"contracts/FundMe.sol\":224:284  mapping (address => uint256) public amountFundedByEachFunder */\n    tag_4:\n      callvalue\n      dup1\n      iszero\n      tag_13\n      jumpi\n      0x00\n      dup1\n      revert\n    tag_13:\n      pop\n      tag_14\n      0x04\n      dup1\n      calldatasize\n      sub\n      dup2\n      add\n      swap1\n      tag_15\n      swap2\n      swap1\n      tag_16\n      jump\t// in\n    tag_15:\n      tag_17\n      jump\t// in\n    tag_14:\n      mload(0x40)\n      tag_18\n      swap2\n      swap1\n      tag_10\n      jump\t// in\n    tag_18:\n      mload(0x40)\n      dup1\n      swap2\n      sub\n      swap1\n      return\n        /* \"contracts/FundMe.sol\":194:218  address[] public funders */\n    tag_5:\n      callvalue\n      dup1\n      iszero\n      tag_19\n      jumpi\n      0x00\n      dup1\n      revert\n    tag_19:\n      pop\n      tag_20\n      0x04\n      dup1\n      calldatasize\n      sub\n      dup2\n      add\n      swap1\n      tag_21\n      swap2\n      swap1\n      tag_22\n      jump\t// in\n    tag_21:\n      tag_23\n      jump\t// in\n    tag_20:\n      mload(0x40)\n      tag_24\n      swap2\n      swap1\n      tag_25\n      jump\t// in\n    tag_24:\n      mload(0x40)\n      dup1\n      swap2\n      sub\n      swap1\n      return\n        /* \"contracts/FundMe.sol\":151:188  uint256 public minimumUsd = 50 * 1e18 */\n    tag_8:\n      sload(0x00)\n      dup2\n      jump\t// out\n        /* \"contracts/FundMe.sol\":292:507  function fund() public payable {... */\n    tag_12:\n        /* \"contracts/FundMe.sol\":376:386  minimumUsd */\n      sload(0x00)\n        /* \"contracts/FundMe.sol\":341:372  msg.value.getConversationRate() */\n      tag_27\n        /* \"contracts/FundMe.sol\":341:350  msg.value */\n      callvalue\n        /* \"contracts/FundMe.sol\":341:370  msg.value.getConversationRate */\n      tag_28\n        /* \"contracts/FundMe.sol\":341:372  msg.value.getConversationRate() */\n      jump\t// in\n    tag_27:\n        /* \"contracts/FundMe.sol\":341:386  msg.value.getConversationRate() >= minimumUsd */\n      lt\n      iszero\n        /* \"contracts/FundMe.sol\":333:408  require(msg.value.getConversationRate() >= minimumUsd, \"Didnt send enough\") */\n      tag_29\n      jumpi\n      mload(0x40)\n      0x08c379a000000000000000000000000000000000000000000000000000000000\n      dup2\n      mstore\n      0x04\n      add\n      tag_30\n      swap1\n      tag_31\n      jump\t// in\n    tag_30:\n      mload(0x40)\n      dup1\n      swap2\n      sub\n      swap1\n      revert\n    tag_29:\n        /* \"contracts/FundMe.sol\":418:425  funders */\n      0x01\n        /* \"contracts/FundMe.sol\":431:441  msg.sender */\n      caller\n        /* \"contracts/FundMe.sol\":418:442  funders.push(msg.sender) */\n      swap1\n      dup1\n      0x01\n      dup2\n      sload\n      add\n      dup1\n      dup3\n      sstore\n      dup1\n      swap2\n      pop\n      pop\n      0x01\n      swap1\n      sub\n      swap1\n      0x00\n      mstore\n      keccak256(0x00, 0x20)\n      add\n      0x00\n      swap1\n      swap2\n      swap1\n      swap2\n      swap1\n      swap2\n      0x0100\n      exp\n      dup2\n      sload\n      dup2\n      0xffffffffffffffffffffffffffffffffffffffff\n      mul\n      not\n      and\n      swap1\n      dup4\n      0xffffffffffffffffffffffffffffffffffffffff\n      and\n      mul\n      or\n      swap1\n      sstore\n      pop\n        /* \"contracts/FundMe.sol\":491:500  msg.value */\n      callvalue\n        /* \"contracts/FundMe.sol\":452:476  amountFundedByEachFunder */\n      0x02\n        /* \"contracts/FundMe.sol\":452:488  amountFundedByEachFunder[msg.sender] */\n      0x00\n        /* \"contracts/FundMe.sol\":477:487  msg.sender */\n      caller\n        /* \"contracts/FundMe.sol\":452:488  amountFundedByEachFunder[msg.sender] */\n      0xffffffffffffffffffffffffffffffffffffffff\n      and\n      0xffffffffffffffffffffffffffffffffffffffff\n      and\n      dup2\n      mstore\n      0x20\n      add\n      swap1\n      dup2\n      mstore\n      0x20\n      add\n      0x00\n      keccak256\n        /* \"contracts/FundMe.sol\":452:500  amountFundedByEachFunder[msg.sender] = msg.value */\n      dup2\n      swap1\n      sstore\n      pop\n        /* \"contracts/FundMe.sol\":292:507  function fund() public payable {... */\n      jump\t// out\n        /* \"contracts/FundMe.sol\":224:284  mapping (address => uint256) public amountFundedByEachFunder */\n    tag_17:\n      mstore(0x20, 0x02)\n      dup1\n      0x00\n      mstore\n      keccak256(0x00, 0x40)\n      0x00\n      swap2\n      pop\n      swap1\n      pop\n      sload\n      dup2\n      jump\t// out\n        /* \"contracts/FundMe.sol\":194:218  address[] public funders */\n    tag_23:\n      0x01\n      dup2\n      dup2\n      sload\n      dup2\n      lt\n      tag_33\n      jumpi\n      0x00\n      dup1\n      revert\n    tag_33:\n      swap1\n      0x00\n      mstore\n      keccak256(0x00, 0x20)\n      add\n      0x00\n      swap2\n      pop\n      sload\n      swap1\n      0x0100\n      exp\n      swap1\n      div\n      0xffffffffffffffffffffffffffffffffffffffff\n      and\n      dup2\n      jump\t// out\n        /* \"contracts/PriceConvertor.sol\":435:656  function getConversationRate(uint256 ethAmount) internal view returns(uint256) {... */\n    tag_28:\n        /* \"contracts/PriceConvertor.sol\":505:512  uint256 */\n      0x00\n        /* \"contracts/PriceConvertor.sol\":525:541  uint256 ethPrice */\n      dup1\n        /* \"contracts/PriceConvertor.sol\":544:554  getPrice() */\n      tag_36\n        /* \"contracts/PriceConvertor.sol\":544:552  getPrice */\n      tag_37\n        /* \"contracts/PriceConvertor.sol\":544:554  getPrice() */\n      jump\t// in\n    tag_36:\n        /* \"contracts/PriceConvertor.sol\":525:554  uint256 ethPrice = getPrice() */\n      swap1\n      pop\n        /* \"contracts/PriceConvertor.sol\":565:586  uint256 ethValueInUSD */\n      0x00\n        /* \"contracts/PriceConvertor.sol\":614:618  1e18 */\n      0x0de0b6b3a7640000\n        /* \"contracts/PriceConvertor.sol\":602:610  ethPrice */\n      dup3\n        /* \"contracts/PriceConvertor.sol\":590:599  ethAmount */\n      dup6\n        /* \"contracts/PriceConvertor.sol\":590:610  ethAmount * ethPrice */\n      tag_38\n      swap2\n      swap1\n      tag_39\n      jump\t// in\n    tag_38:\n        /* \"contracts/PriceConvertor.sol\":589:618  (ethAmount * ethPrice) / 1e18 */\n      tag_40\n      swap2\n      swap1\n      tag_41\n      jump\t// in\n    tag_40:\n        /* \"contracts/PriceConvertor.sol\":565:618  uint256 ethValueInUSD = (ethAmount * ethPrice) / 1e18 */\n      swap1\n      pop\n        /* \"contracts/PriceConvertor.sol\":636:649  ethValueInUSD */\n      dup1\n        /* \"contracts/PriceConvertor.sol\":629:649  return ethValueInUSD */\n      swap3\n      pop\n      pop\n      pop\n        /* \"contracts/PriceConvertor.sol\":435:656  function getConversationRate(uint256 ethAmount) internal view returns(uint256) {... */\n      swap2\n      swap1\n      pop\n      jump\t// out\n        /* \"contracts/PriceConvertor.sol\":166:429  function getPrice() internal view returns (uint256) {... */\n    tag_37:\n        /* \"contracts/PriceConvertor.sol\":209:216  uint256 */\n      0x00\n        /* \"contracts/PriceConvertor.sol\":228:259  AggregatorV3Interface priceFeed */\n      dup1\n        /* \"contracts/PriceConvertor.sol\":284:326  0x694AA1769357215DE4FAC081bf1f309aDC325306 */\n      0x694aa1769357215de4fac081bf1f309adc325306\n        /* \"contracts/PriceConvertor.sol\":228:327  AggregatorV3Interface priceFeed = AggregatorV3Interface(0x694AA1769357215DE4FAC081bf1f309aDC325306) */\n      swap1\n      pop\n        /* \"contracts/PriceConvertor.sol\":340:349  int price */\n      0x00\n        /* \"contracts/PriceConvertor.sol\":356:365  priceFeed */\n      dup2\n        /* \"contracts/PriceConvertor.sol\":356:381  priceFeed.latestRoundData */\n      0xffffffffffffffffffffffffffffffffffffffff\n      and\n      0xfeaf968c\n        /* \"contracts/PriceConvertor.sol\":356:383  priceFeed.latestRoundData() */\n      mload(0x40)\n      dup2\n      0xffffffff\n      and\n      0xe0\n      shl\n      dup2\n      mstore\n      0x04\n      add\n      0xa0\n      mload(0x40)\n      dup1\n      dup4\n      sub\n      dup2\n      dup7\n      gas\n      staticcall\n      iszero\n      dup1\n      iszero\n      tag_44\n      jumpi\n      returndatasize\n      0x00\n      dup1\n      returndatacopy\n      revert(0x00, returndatasize)\n    tag_44:\n      pop\n      pop\n      pop\n      pop\n      mload(0x40)\n      returndatasize\n      not(0x1f)\n      0x1f\n      dup3\n      add\n      and\n      dup3\n      add\n      dup1\n      0x40\n      mstore\n      pop\n      dup2\n      add\n      swap1\n      tag_45\n      swap2\n      swap1\n      tag_46\n      jump\t// in\n    tag_45:\n        /* \"contracts/PriceConvertor.sol\":337:383  (, int price,,,) = priceFeed.latestRoundData() */\n      pop\n      pop\n      pop\n      swap2\n      pop\n      pop\n        /* \"contracts/PriceConvertor.sol\":416:421  price */\n      dup1\n        /* \"contracts/PriceConvertor.sol\":409:413  1e18 */\n      0x0de0b6b3a7640000\n        /* \"contracts/PriceConvertor.sol\":409:421  1e18 * price */\n      tag_47\n      swap2\n      swap1\n      tag_48\n      jump\t// in\n    tag_47:\n        /* \"contracts/PriceConvertor.sol\":393:422  return  uint256(1e18 * price) */\n      swap3\n      pop\n      pop\n      pop\n        /* \"contracts/PriceConvertor.sol\":166:429  function getPrice() internal view returns (uint256) {... */\n      swap1\n      jump\t// out\n        /* \"#utility.yul\":7:84   */\n    tag_49:\n        /* \"#utility.yul\":44:51   */\n      0x00\n        /* \"#utility.yul\":73:78   */\n      dup2\n        /* \"#utility.yul\":62:78   */\n      swap1\n      pop\n        /* \"#utility.yul\":7:84   */\n      swap2\n      swap1\n      pop\n      jump\t// out\n        /* \"#utility.yul\":90:208   */\n    tag_50:\n        /* \"#utility.yul\":177:201   */\n      tag_76\n        /* \"#utility.yul\":195:200   */\n      dup2\n        /* \"#utility.yul\":177:201   */\n      tag_49\n      jump\t// in\n    tag_76:\n        /* \"#utility.yul\":172:175   */\n      dup3\n        /* \"#utility.yul\":165:202   */\n      mstore\n        /* \"#utility.yul\":90:208   */\n      pop\n      pop\n      jump\t// out\n        /* \"#utility.yul\":214:436   */\n    tag_10:\n        /* \"#utility.yul\":307:311   */\n      0x00\n        /* \"#utility.yul\":345:347   */\n      0x20\n        /* \"#utility.yul\":334:343   */\n      dup3\n        /* \"#utility.yul\":330:348   */\n      add\n        /* \"#utility.yul\":322:348   */\n      swap1\n      pop\n        /* \"#utility.yul\":358:429   */\n      tag_78\n        /* \"#utility.yul\":426:427   */\n      0x00\n        /* \"#utility.yul\":415:424   */\n      dup4\n        /* \"#utility.yul\":411:428   */\n      add\n        /* \"#utility.yul\":402:408   */\n      dup5\n        /* \"#utility.yul\":358:429   */\n      tag_50\n      jump\t// in\n    tag_78:\n        /* \"#utility.yul\":214:436   */\n      swap3\n      swap2\n      pop\n      pop\n      jump\t// out\n        /* \"#utility.yul\":523:640   */\n    tag_52:\n        /* \"#utility.yul\":632:633   */\n      0x00\n        /* \"#utility.yul\":629:630   */\n      dup1\n        /* \"#utility.yul\":622:634   */\n      revert\n        /* \"#utility.yul\":769:895   */\n    tag_54:\n        /* \"#utility.yul\":806:813   */\n      0x00\n        /* \"#utility.yul\":846:888   */\n      0xffffffffffffffffffffffffffffffffffffffff\n        /* \"#utility.yul\":839:844   */\n      dup3\n        /* \"#utility.yul\":835:889   */\n      and\n        /* \"#utility.yul\":824:889   */\n      swap1\n      pop\n        /* \"#utility.yul\":769:895   */\n      swap2\n      swap1\n      pop\n      jump\t// out\n        /* \"#utility.yul\":901:997   */\n    tag_55:\n        /* \"#utility.yul\":938:945   */\n      0x00\n        /* \"#utility.yul\":967:991   */\n      tag_84\n        /* \"#utility.yul\":985:990   */\n      dup3\n        /* \"#utility.yul\":967:991   */\n      tag_54\n      jump\t// in\n    tag_84:\n        /* \"#utility.yul\":956:991   */\n      swap1\n      pop\n        /* \"#utility.yul\":901:997   */\n      swap2\n      swap1\n      pop\n      jump\t// out\n        /* \"#utility.yul\":1003:1125   */\n    tag_56:\n        /* \"#utility.yul\":1076:1100   */\n      tag_86\n        /* \"#utility.yul\":1094:1099   */\n      dup2\n        /* \"#utility.yul\":1076:1100   */\n      tag_55\n      jump\t// in\n    tag_86:\n        /* \"#utility.yul\":1069:1074   */\n      dup2\n        /* \"#utility.yul\":1066:1101   */\n      eq\n        /* \"#utility.yul\":1056:1119   */\n      tag_87\n      jumpi\n        /* \"#utility.yul\":1115:1116   */\n      0x00\n        /* \"#utility.yul\":1112:1113   */\n      dup1\n        /* \"#utility.yul\":1105:1117   */\n      revert\n        /* \"#utility.yul\":1056:1119   */\n    tag_87:\n        /* \"#utility.yul\":1003:1125   */\n      pop\n      jump\t// out\n        /* \"#utility.yul\":1131:1270   */\n    tag_57:\n        /* \"#utility.yul\":1177:1182   */\n      0x00\n        /* \"#utility.yul\":1215:1221   */\n      dup2\n        /* \"#utility.yul\":1202:1222   */\n      calldataload\n        /* \"#utility.yul\":1193:1222   */\n      swap1\n      pop\n        /* \"#utility.yul\":1231:1264   */\n      tag_89\n        /* \"#utility.yul\":1258:1263   */\n      dup2\n        /* \"#utility.yul\":1231:1264   */\n      tag_56\n      jump\t// in\n    tag_89:\n        /* \"#utility.yul\":1131:1270   */\n      swap3\n      swap2\n      pop\n      pop\n      jump\t// out\n        /* \"#utility.yul\":1276:1605   */\n    tag_16:\n        /* \"#utility.yul\":1335:1341   */\n      0x00\n        /* \"#utility.yul\":1384:1386   */\n      0x20\n        /* \"#utility.yul\":1372:1381   */\n      dup3\n        /* \"#utility.yul\":1363:1370   */\n      dup5\n        /* \"#utility.yul\":1359:1382   */\n      sub\n        /* \"#utility.yul\":1355:1387   */\n      slt\n        /* \"#utility.yul\":1352:1471   */\n      iszero\n      tag_91\n      jumpi\n        /* \"#utility.yul\":1390:1469   */\n      tag_92\n      tag_52\n      jump\t// in\n    tag_92:\n        /* \"#utility.yul\":1352:1471   */\n    tag_91:\n        /* \"#utility.yul\":1510:1511   */\n      0x00\n        /* \"#utility.yul\":1535:1588   */\n      tag_93\n        /* \"#utility.yul\":1580:1587   */\n      dup5\n        /* \"#utility.yul\":1571:1577   */\n      dup3\n        /* \"#utility.yul\":1560:1569   */\n      dup6\n        /* \"#utility.yul\":1556:1578   */\n      add\n        /* \"#utility.yul\":1535:1588   */\n      tag_57\n      jump\t// in\n    tag_93:\n        /* \"#utility.yul\":1525:1588   */\n      swap2\n      pop\n        /* \"#utility.yul\":1481:1598   */\n      pop\n        /* \"#utility.yul\":1276:1605   */\n      swap3\n      swap2\n      pop\n      pop\n      jump\t// out\n        /* \"#utility.yul\":1611:1733   */\n    tag_58:\n        /* \"#utility.yul\":1684:1708   */\n      tag_95\n        /* \"#utility.yul\":1702:1707   */\n      dup2\n        /* \"#utility.yul\":1684:1708   */\n      tag_49\n      jump\t// in\n    tag_95:\n        /* \"#utility.yul\":1677:1682   */\n      dup2\n        /* \"#utility.yul\":1674:1709   */\n      eq\n        /* \"#utility.yul\":1664:1727   */\n      tag_96\n      jumpi\n        /* \"#utility.yul\":1723:1724   */\n      0x00\n        /* \"#utility.yul\":1720:1721   */\n      dup1\n        /* \"#utility.yul\":1713:1725   */\n      revert\n        /* \"#utility.yul\":1664:1727   */\n    tag_96:\n        /* \"#utility.yul\":1611:1733   */\n      pop\n      jump\t// out\n        /* \"#utility.yul\":1739:1878   */\n    tag_59:\n        /* \"#utility.yul\":1785:1790   */\n      0x00\n        /* \"#utility.yul\":1823:1829   */\n      dup2\n        /* \"#utility.yul\":1810:1830   */\n      calldataload\n        /* \"#utility.yul\":1801:1830   */\n      swap1\n      pop\n        /* \"#utility.yul\":1839:1872   */\n      tag_98\n        /* \"#utility.yul\":1866:1871   */\n      dup2\n        /* \"#utility.yul\":1839:1872   */\n      tag_58\n      jump\t// in\n    tag_98:\n        /* \"#utility.yul\":1739:1878   */\n      swap3\n      swap2\n      pop\n      pop\n      jump\t// out\n        /* \"#utility.yul\":1884:2213   */\n    tag_22:\n        /* \"#utility.yul\":1943:1949   */\n      0x00\n        /* \"#utility.yul\":1992:1994   */\n      0x20\n        /* \"#utility.yul\":1980:1989   */\n      dup3\n        /* \"#utility.yul\":1971:1978   */\n      dup5\n        /* \"#utility.yul\":1967:1990   */\n      sub\n        /* \"#utility.yul\":1963:1995   */\n      slt\n        /* \"#utility.yul\":1960:2079   */\n      iszero\n      tag_100\n      jumpi\n        /* \"#utility.yul\":1998:2077   */\n      tag_101\n      tag_52\n      jump\t// in\n    tag_101:\n        /* \"#utility.yul\":1960:2079   */\n    tag_100:\n        /* \"#utility.yul\":2118:2119   */\n      0x00\n        /* \"#utility.yul\":2143:2196   */\n      tag_102\n        /* \"#utility.yul\":2188:2195   */\n      dup5\n        /* \"#utility.yul\":2179:2185   */\n      dup3\n        /* \"#utility.yul\":2168:2177   */\n      dup6\n        /* \"#utility.yul\":2164:2186   */\n      add\n        /* \"#utility.yul\":2143:2196   */\n      tag_59\n      jump\t// in\n    tag_102:\n        /* \"#utility.yul\":2133:2196   */\n      swap2\n      pop\n        /* \"#utility.yul\":2089:2206   */\n      pop\n        /* \"#utility.yul\":1884:2213   */\n      swap3\n      swap2\n      pop\n      pop\n      jump\t// out\n        /* \"#utility.yul\":2219:2337   */\n    tag_60:\n        /* \"#utility.yul\":2306:2330   */\n      tag_104\n        /* \"#utility.yul\":2324:2329   */\n      dup2\n        /* \"#utility.yul\":2306:2330   */\n      tag_55\n      jump\t// in\n    tag_104:\n        /* \"#utility.yul\":2301:2304   */\n      dup3\n        /* \"#utility.yul\":2294:2331   */\n      mstore\n        /* \"#utility.yul\":2219:2337   */\n      pop\n      pop\n      jump\t// out\n        /* \"#utility.yul\":2343:2565   */\n    tag_25:\n        /* \"#utility.yul\":2436:2440   */\n      0x00\n        /* \"#utility.yul\":2474:2476   */\n      0x20\n        /* \"#utility.yul\":2463:2472   */\n      dup3\n        /* \"#utility.yul\":2459:2477   */\n      add\n        /* \"#utility.yul\":2451:2477   */\n      swap1\n      pop\n        /* \"#utility.yul\":2487:2558   */\n      tag_106\n        /* \"#utility.yul\":2555:2556   */\n      0x00\n        /* \"#utility.yul\":2544:2553   */\n      dup4\n        /* \"#utility.yul\":2540:2557   */\n      add\n        /* \"#utility.yul\":2531:2537   */\n      dup5\n        /* \"#utility.yul\":2487:2558   */\n      tag_60\n      jump\t// in\n    tag_106:\n        /* \"#utility.yul\":2343:2565   */\n      swap3\n      swap2\n      pop\n      pop\n      jump\t// out\n        /* \"#utility.yul\":2571:2740   */\n    tag_61:\n        /* \"#utility.yul\":2655:2666   */\n      0x00\n        /* \"#utility.yul\":2689:2695   */\n      dup3\n        /* \"#utility.yul\":2684:2687   */\n      dup3\n        /* \"#utility.yul\":2677:2696   */\n      mstore\n        /* \"#utility.yul\":2729:2733   */\n      0x20\n        /* \"#utility.yul\":2724:2727   */\n      dup3\n        /* \"#utility.yul\":2720:2734   */\n      add\n        /* \"#utility.yul\":2705:2734   */\n      swap1\n      pop\n        /* \"#utility.yul\":2571:2740   */\n      swap3\n      swap2\n      pop\n      pop\n      jump\t// out\n        /* \"#utility.yul\":2746:2913   */\n    tag_62:\n        /* \"#utility.yul\":2886:2905   */\n      0x4469646e742073656e6420656e6f756768000000000000000000000000000000\n        /* \"#utility.yul\":2882:2883   */\n      0x00\n        /* \"#utility.yul\":2874:2880   */\n      dup3\n        /* \"#utility.yul\":2870:2884   */\n      add\n        /* \"#utility.yul\":2863:2906   */\n      mstore\n        /* \"#utility.yul\":2746:2913   */\n      pop\n      jump\t// out\n        /* \"#utility.yul\":2919:3285   */\n    tag_63:\n        /* \"#utility.yul\":3061:3064   */\n      0x00\n        /* \"#utility.yul\":3082:3149   */\n      tag_110\n        /* \"#utility.yul\":3146:3148   */\n      0x11\n        /* \"#utility.yul\":3141:3144   */\n      dup4\n        /* \"#utility.yul\":3082:3149   */\n      tag_61\n      jump\t// in\n    tag_110:\n        /* \"#utility.yul\":3075:3149   */\n      swap2\n      pop\n        /* \"#utility.yul\":3158:3251   */\n      tag_111\n        /* \"#utility.yul\":3247:3250   */\n      dup3\n        /* \"#utility.yul\":3158:3251   */\n      tag_62\n      jump\t// in\n    tag_111:\n        /* \"#utility.yul\":3276:3278   */\n      0x20\n        /* \"#utility.yul\":3271:3274   */\n      dup3\n        /* \"#utility.yul\":3267:3279   */\n      add\n        /* \"#utility.yul\":3260:3279   */\n      swap1\n      pop\n        /* \"#utility.yul\":2919:3285   */\n      swap2\n      swap1\n      pop\n      jump\t// out\n        /* \"#utility.yul\":3291:3710   */\n    tag_31:\n        /* \"#utility.yul\":3457:3461   */\n      0x00\n        /* \"#utility.yul\":3495:3497   */\n      0x20\n        /* \"#utility.yul\":3484:3493   */\n      dup3\n        /* \"#utility.yul\":3480:3498   */\n      add\n        /* \"#utility.yul\":3472:3498   */\n      swap1\n      pop\n        /* \"#utility.yul\":3544:3553   */\n      dup2\n        /* \"#utility.yul\":3538:3542   */\n      dup2\n        /* \"#utility.yul\":3534:3554   */\n      sub\n        /* \"#utility.yul\":3530:3531   */\n      0x00\n        /* \"#utility.yul\":3519:3528   */\n      dup4\n        /* \"#utility.yul\":3515:3532   */\n      add\n        /* \"#utility.yul\":3508:3555   */\n      mstore\n        /* \"#utility.yul\":3572:3703   */\n      tag_113\n        /* \"#utility.yul\":3698:3702   */\n      dup2\n        /* \"#utility.yul\":3572:3703   */\n      tag_63\n      jump\t// in\n    tag_113:\n        /* \"#utility.yul\":3564:3703   */\n      swap1\n      pop\n        /* \"#utility.yul\":3291:3710   */\n      swap2\n      swap1\n      pop\n      jump\t// out\n        /* \"#utility.yul\":3716:3896   */\n    tag_64:\n        /* \"#utility.yul\":3764:3841   */\n      0x4e487b7100000000000000000000000000000000000000000000000000000000\n        /* \"#utility.yul\":3761:3762   */\n      0x00\n        /* \"#utility.yul\":3754:3842   */\n      mstore\n        /* \"#utility.yul\":3861:3865   */\n      0x11\n        /* \"#utility.yul\":3858:3859   */\n      0x04\n        /* \"#utility.yul\":3851:3866   */\n      mstore\n        /* \"#utility.yul\":3885:3889   */\n      0x24\n        /* \"#utility.yul\":3882:3883   */\n      0x00\n        /* \"#utility.yul\":3875:3890   */\n      revert\n        /* \"#utility.yul\":3902:4312   */\n    tag_39:\n        /* \"#utility.yul\":3942:3949   */\n      0x00\n        /* \"#utility.yul\":3965:3985   */\n      tag_116\n        /* \"#utility.yul\":3983:3984   */\n      dup3\n        /* \"#utility.yul\":3965:3985   */\n      tag_49\n      jump\t// in\n    tag_116:\n        /* \"#utility.yul\":3960:3985   */\n      swap2\n      pop\n        /* \"#utility.yul\":3999:4019   */\n      tag_117\n        /* \"#utility.yul\":4017:4018   */\n      dup4\n        /* \"#utility.yul\":3999:4019   */\n      tag_49\n      jump\t// in\n    tag_117:\n        /* \"#utility.yul\":3994:4019   */\n      swap3\n      pop\n        /* \"#utility.yul\":4054:4055   */\n      dup3\n        /* \"#utility.yul\":4051:4052   */\n      dup3\n        /* \"#utility.yul\":4047:4056   */\n      mul\n        /* \"#utility.yul\":4076:4106   */\n      tag_118\n        /* \"#utility.yul\":4094:4105   */\n      dup2\n        /* \"#utility.yul\":4076:4106   */\n      tag_49\n      jump\t// in\n    tag_118:\n        /* \"#utility.yul\":4065:4106   */\n      swap2\n      pop\n        /* \"#utility.yul\":4255:4256   */\n      dup3\n        /* \"#utility.yul\":4246:4253   */\n      dup3\n        /* \"#utility.yul\":4242:4257   */\n      div\n        /* \"#utility.yul\":4239:4240   */\n      dup5\n        /* \"#utility.yul\":4236:4258   */\n      eq\n        /* \"#utility.yul\":4216:4217   */\n      dup4\n        /* \"#utility.yul\":4209:4218   */\n      iszero\n        /* \"#utility.yul\":4189:4272   */\n      or\n        /* \"#utility.yul\":4166:4305   */\n      tag_119\n      jumpi\n        /* \"#utility.yul\":4285:4303   */\n      tag_120\n      tag_64\n      jump\t// in\n    tag_120:\n        /* \"#utility.yul\":4166:4305   */\n    tag_119:\n        /* \"#utility.yul\":3950:4312   */\n      pop\n        /* \"#utility.yul\":3902:4312   */\n      swap3\n      swap2\n      pop\n      pop\n      jump\t// out\n        /* \"#utility.yul\":4318:4498   */\n    tag_65:\n        /* \"#utility.yul\":4366:4443   */\n      0x4e487b7100000000000000000000000000000000000000000000000000000000\n        /* \"#utility.yul\":4363:4364   */\n      0x00\n        /* \"#utility.yul\":4356:4444   */\n      mstore\n        /* \"#utility.yul\":4463:4467   */\n      0x12\n        /* \"#utility.yul\":4460:4461   */\n      0x04\n        /* \"#utility.yul\":4453:4468   */\n      mstore\n        /* \"#utility.yul\":4487:4491   */\n      0x24\n        /* \"#utility.yul\":4484:4485   */\n      0x00\n        /* \"#utility.yul\":4477:4492   */\n      revert\n        /* \"#utility.yul\":4504:4689   */\n    tag_41:\n        /* \"#utility.yul\":4544:4545   */\n      0x00\n        /* \"#utility.yul\":4561:4581   */\n      tag_123\n        /* \"#utility.yul\":4579:4580   */\n      dup3\n        /* \"#utility.yul\":4561:4581   */\n      tag_49\n      jump\t// in\n    tag_123:\n        /* \"#utility.yul\":4556:4581   */\n      swap2\n      pop\n        /* \"#utility.yul\":4595:4615   */\n      tag_124\n        /* \"#utility.yul\":4613:4614   */\n      dup4\n        /* \"#utility.yul\":4595:4615   */\n      tag_49\n      jump\t// in\n    tag_124:\n        /* \"#utility.yul\":4590:4615   */\n      swap3\n      pop\n        /* \"#utility.yul\":4634:4635   */\n      dup3\n        /* \"#utility.yul\":4624:4659   */\n      tag_125\n      jumpi\n        /* \"#utility.yul\":4639:4657   */\n      tag_126\n      tag_65\n      jump\t// in\n    tag_126:\n        /* \"#utility.yul\":4624:4659   */\n    tag_125:\n        /* \"#utility.yul\":4681:4682   */\n      dup3\n        /* \"#utility.yul\":4678:4679   */\n      dup3\n        /* \"#utility.yul\":4674:4683   */\n      div\n        /* \"#utility.yul\":4669:4683   */\n      swap1\n      pop\n        /* \"#utility.yul\":4504:4689   */\n      swap3\n      swap2\n      pop\n      pop\n      jump\t// out\n        /* \"#utility.yul\":4695:4800   */\n    tag_66:\n        /* \"#utility.yul\":4731:4738   */\n      0x00\n        /* \"#utility.yul\":4771:4793   */\n      0xffffffffffffffffffff\n        /* \"#utility.yul\":4764:4769   */\n      dup3\n        /* \"#utility.yul\":4760:4794   */\n      and\n        /* \"#utility.yul\":4749:4794   */\n      swap1\n      pop\n        /* \"#utility.yul\":4695:4800   */\n      swap2\n      swap1\n      pop\n      jump\t// out\n        /* \"#utility.yul\":4806:4926   */\n    tag_67:\n        /* \"#utility.yul\":4878:4901   */\n      tag_129\n        /* \"#utility.yul\":4895:4900   */\n      dup2\n        /* \"#utility.yul\":4878:4901   */\n      tag_66\n      jump\t// in\n    tag_129:\n        /* \"#utility.yul\":4871:4876   */\n      dup2\n        /* \"#utility.yul\":4868:4902   */\n      eq\n        /* \"#utility.yul\":4858:4920   */\n      tag_130\n      jumpi\n        /* \"#utility.yul\":4916:4917   */\n      0x00\n        /* \"#utility.yul\":4913:4914   */\n      dup1\n        /* \"#utility.yul\":4906:4918   */\n      revert\n        /* \"#utility.yul\":4858:4920   */\n    tag_130:\n        /* \"#utility.yul\":4806:4926   */\n      pop\n      jump\t// out\n        /* \"#utility.yul\":4932:5073   */\n    tag_68:\n        /* \"#utility.yul\":4988:4993   */\n      0x00\n        /* \"#utility.yul\":5019:5025   */\n      dup2\n        /* \"#utility.yul\":5013:5026   */\n      mload\n        /* \"#utility.yul\":5004:5026   */\n      swap1\n      pop\n        /* \"#utility.yul\":5035:5067   */\n      tag_132\n        /* \"#utility.yul\":5061:5066   */\n      dup2\n        /* \"#utility.yul\":5035:5067   */\n      tag_67\n      jump\t// in\n    tag_132:\n        /* \"#utility.yul\":4932:5073   */\n      swap3\n      swap2\n      pop\n      pop\n      jump\t// out\n        /* \"#utility.yul\":5079:5155   */\n    tag_69:\n        /* \"#utility.yul\":5115:5122   */\n      0x00\n        /* \"#utility.yul\":5144:5149   */\n      dup2\n        /* \"#utility.yul\":5133:5149   */\n      swap1\n      pop\n        /* \"#utility.yul\":5079:5155   */\n      swap2\n      swap1\n      pop\n      jump\t// out\n        /* \"#utility.yul\":5161:5281   */\n    tag_70:\n        /* \"#utility.yul\":5233:5256   */\n      tag_135\n        /* \"#utility.yul\":5250:5255   */\n      dup2\n        /* \"#utility.yul\":5233:5256   */\n      tag_69\n      jump\t// in\n    tag_135:\n        /* \"#utility.yul\":5226:5231   */\n      dup2\n        /* \"#utility.yul\":5223:5257   */\n      eq\n        /* \"#utility.yul\":5213:5275   */\n      tag_136\n      jumpi\n        /* \"#utility.yul\":5271:5272   */\n      0x00\n        /* \"#utility.yul\":5268:5269   */\n      dup1\n        /* \"#utility.yul\":5261:5273   */\n      revert\n        /* \"#utility.yul\":5213:5275   */\n    tag_136:\n        /* \"#utility.yul\":5161:5281   */\n      pop\n      jump\t// out\n        /* \"#utility.yul\":5287:5428   */\n    tag_71:\n        /* \"#utility.yul\":5343:5348   */\n      0x00\n        /* \"#utility.yul\":5374:5380   */\n      dup2\n        /* \"#utility.yul\":5368:5381   */\n      mload\n        /* \"#utility.yul\":5359:5381   */\n      swap1\n      pop\n        /* \"#utility.yul\":5390:5422   */\n      tag_138\n        /* \"#utility.yul\":5416:5421   */\n      dup2\n        /* \"#utility.yul\":5390:5422   */\n      tag_70\n      jump\t// in\n    tag_138:\n        /* \"#utility.yul\":5287:5428   */\n      swap3\n      swap2\n      pop\n      pop\n      jump\t// out\n        /* \"#utility.yul\":5434:5577   */\n    tag_72:\n        /* \"#utility.yul\":5491:5496   */\n      0x00\n        /* \"#utility.yul\":5522:5528   */\n      dup2\n        /* \"#utility.yul\":5516:5529   */\n      mload\n        /* \"#utility.yul\":5507:5529   */\n      swap1\n      pop\n        /* \"#utility.yul\":5538:5571   */\n      tag_140\n        /* \"#utility.yul\":5565:5570   */\n      dup2\n        /* \"#utility.yul\":5538:5571   */\n      tag_58\n      jump\t// in\n    tag_140:\n        /* \"#utility.yul\":5434:5577   */\n      swap3\n      swap2\n      pop\n      pop\n      jump\t// out\n        /* \"#utility.yul\":5583:6554   */\n    tag_46:\n        /* \"#utility.yul\":5686:5692   */\n      0x00\n        /* \"#utility.yul\":5694:5700   */\n      dup1\n        /* \"#utility.yul\":5702:5708   */\n      0x00\n        /* \"#utility.yul\":5710:5716   */\n      dup1\n        /* \"#utility.yul\":5718:5724   */\n      0x00\n        /* \"#utility.yul\":5767:5770   */\n      0xa0\n        /* \"#utility.yul\":5755:5764   */\n      dup7\n        /* \"#utility.yul\":5746:5753   */\n      dup9\n        /* \"#utility.yul\":5742:5765   */\n      sub\n        /* \"#utility.yul\":5738:5771   */\n      slt\n        /* \"#utility.yul\":5735:5855   */\n      iszero\n      tag_142\n      jumpi\n        /* \"#utility.yul\":5774:5853   */\n      tag_143\n      tag_52\n      jump\t// in\n    tag_143:\n        /* \"#utility.yul\":5735:5855   */\n    tag_142:\n        /* \"#utility.yul\":5894:5895   */\n      0x00\n        /* \"#utility.yul\":5919:5982   */\n      tag_144\n        /* \"#utility.yul\":5974:5981   */\n      dup9\n        /* \"#utility.yul\":5965:5971   */\n      dup3\n        /* \"#utility.yul\":5954:5963   */\n      dup10\n        /* \"#utility.yul\":5950:5972   */\n      add\n        /* \"#utility.yul\":5919:5982   */\n      tag_68\n      jump\t// in\n    tag_144:\n        /* \"#utility.yul\":5909:5982   */\n      swap6\n      pop\n        /* \"#utility.yul\":5865:5992   */\n      pop\n        /* \"#utility.yul\":6031:6033   */\n      0x20\n        /* \"#utility.yul\":6057:6120   */\n      tag_145\n        /* \"#utility.yul\":6112:6119   */\n      dup9\n        /* \"#utility.yul\":6103:6109   */\n      dup3\n        /* \"#utility.yul\":6092:6101   */\n      dup10\n        /* \"#utility.yul\":6088:6110   */\n      add\n        /* \"#utility.yul\":6057:6120   */\n      tag_71\n      jump\t// in\n    tag_145:\n        /* \"#utility.yul\":6047:6120   */\n      swap5\n      pop\n        /* \"#utility.yul\":6002:6130   */\n      pop\n        /* \"#utility.yul\":6169:6171   */\n      0x40\n        /* \"#utility.yul\":6195:6259   */\n      tag_146\n        /* \"#utility.yul\":6251:6258   */\n      dup9\n        /* \"#utility.yul\":6242:6248   */\n      dup3\n        /* \"#utility.yul\":6231:6240   */\n      dup10\n        /* \"#utility.yul\":6227:6249   */\n      add\n        /* \"#utility.yul\":6195:6259   */\n      tag_72\n      jump\t// in\n    tag_146:\n        /* \"#utility.yul\":6185:6259   */\n      swap4\n      pop\n        /* \"#utility.yul\":6140:6269   */\n      pop\n        /* \"#utility.yul\":6308:6310   */\n      0x60\n        /* \"#utility.yul\":6334:6398   */\n      tag_147\n        /* \"#utility.yul\":6390:6397   */\n      dup9\n        /* \"#utility.yul\":6381:6387   */\n      dup3\n        /* \"#utility.yul\":6370:6379   */\n      dup10\n        /* \"#utility.yul\":6366:6388   */\n      add\n        /* \"#utility.yul\":6334:6398   */\n      tag_72\n      jump\t// in\n    tag_147:\n        /* \"#utility.yul\":6324:6398   */\n      swap3\n      pop\n        /* \"#utility.yul\":6279:6408   */\n      pop\n        /* \"#utility.yul\":6447:6450   */\n      0x80\n        /* \"#utility.yul\":6474:6537   */\n      tag_148\n        /* \"#utility.yul\":6529:6536   */\n      dup9\n        /* \"#utility.yul\":6520:6526   */\n      dup3\n        /* \"#utility.yul\":6509:6518   */\n      dup10\n        /* \"#utility.yul\":6505:6527   */\n      add\n        /* \"#utility.yul\":6474:6537   */\n      tag_68\n      jump\t// in\n    tag_148:\n        /* \"#utility.yul\":6464:6537   */\n      swap2\n      pop\n        /* \"#utility.yul\":6418:6547   */\n      pop\n        /* \"#utility.yul\":5583:6554   */\n      swap3\n      swap6\n      pop\n      swap3\n      swap6\n      swap1\n      swap4\n      pop\n      jump\t// out\n        /* \"#utility.yul\":6560:7116   */\n    tag_48:\n        /* \"#utility.yul\":6599:6606   */\n      0x00\n        /* \"#utility.yul\":6622:6641   */\n      tag_150\n        /* \"#utility.yul\":6639:6640   */\n      dup3\n        /* \"#utility.yul\":6622:6641   */\n      tag_69\n      jump\t// in\n    tag_150:\n        /* \"#utility.yul\":6617:6641   */\n      swap2\n      pop\n        /* \"#utility.yul\":6655:6674   */\n      tag_151\n        /* \"#utility.yul\":6672:6673   */\n      dup4\n        /* \"#utility.yul\":6655:6674   */\n      tag_69\n      jump\t// in\n    tag_151:\n        /* \"#utility.yul\":6650:6674   */\n      swap3\n      pop\n        /* \"#utility.yul\":6709:6710   */\n      dup3\n        /* \"#utility.yul\":6706:6707   */\n      dup3\n        /* \"#utility.yul\":6702:6711   */\n      mul\n        /* \"#utility.yul\":6731:6760   */\n      tag_152\n        /* \"#utility.yul\":6748:6759   */\n      dup2\n        /* \"#utility.yul\":6731:6760   */\n      tag_69\n      jump\t// in\n    tag_152:\n        /* \"#utility.yul\":6720:6760   */\n      swap2\n      pop\n        /* \"#utility.yul\":6818:6884   */\n      0x8000000000000000000000000000000000000000000000000000000000000000\n        /* \"#utility.yul\":6815:6816   */\n      dup5\n        /* \"#utility.yul\":6812:6885   */\n      eq\n        /* \"#utility.yul\":6808:6809   */\n      0x00\n        /* \"#utility.yul\":6805:6806   */\n      dup5\n        /* \"#utility.yul\":6801:6810   */\n      slt\n        /* \"#utility.yul\":6797:6886   */\n      and\n        /* \"#utility.yul\":6794:6909   */\n      iszero\n      tag_153\n      jumpi\n        /* \"#utility.yul\":6889:6907   */\n      tag_154\n      tag_64\n      jump\t// in\n    tag_154:\n        /* \"#utility.yul\":6794:6909   */\n    tag_153:\n        /* \"#utility.yul\":7059:7060   */\n      dup3\n        /* \"#utility.yul\":7050:7057   */\n      dup3\n        /* \"#utility.yul\":7045:7061   */\n      sdiv\n        /* \"#utility.yul\":7042:7043   */\n      dup5\n        /* \"#utility.yul\":7039:7062   */\n      eq\n        /* \"#utility.yul\":7019:7020   */\n      dup4\n        /* \"#utility.yul\":7012:7021   */\n      iszero\n        /* \"#utility.yul\":6992:7076   */\n      or\n        /* \"#utility.yul\":6969:7109   */\n      tag_155\n      jumpi\n        /* \"#utility.yul\":7089:7107   */\n      tag_156\n      tag_64\n      jump\t// in\n    tag_156:\n        /* \"#utility.yul\":6969:7109   */\n    tag_155:\n        /* \"#utility.yul\":6607:7116   */\n      pop\n        /* \"#utility.yul\":6560:7116   */\n      swap3\n      swap2\n      pop\n      pop\n      jump\t// out\n\n    auxdata: 0xa2646970667358221220ff8fdcb4df4fc272e462b604df7ea4d09e0c26aa47b0b2fead3ffcd8881351cb64736f6c634300081a0033\n}\n",
				"bytecode": {
					"linkReferences": {},
					"object": "60806040526802b5e3af16b18800005f55348015601a575f80fd5b50610736806100285f395ff3fe60806040526004361061003e575f3560e01c8063098de82014610042578063b60d42881461006c578063cc84599614610076578063dc0d3dff146100b2575b5f80fd5b34801561004d575f80fd5b506100566100ee565b604051610063919061032b565b60405180910390f35b6100746100f3565b005b348015610081575f80fd5b5061009c600480360381019061009791906103a2565b6101e3565b6040516100a9919061032b565b60405180910390f35b3480156100bd575f80fd5b506100d860048036038101906100d391906103f7565b6101f8565b6040516100e59190610431565b60405180910390f35b5f5481565b5f546100fe34610233565b101561013f576040517f08c379a0000000000000000000000000000000000000000000000000000000008152600401610136906104a4565b60405180910390fd5b600133908060018154018082558091505060019003905f5260205f20015f9091909190916101000a81548173ffffffffffffffffffffffffffffffffffffffff021916908373ffffffffffffffffffffffffffffffffffffffff1602179055503460025f3373ffffffffffffffffffffffffffffffffffffffff1673ffffffffffffffffffffffffffffffffffffffff1681526020019081526020015f2081905550565b6002602052805f5260405f205f915090505481565b60018181548110610207575f80fd5b905f5260205f20015f915054906101000a900473ffffffffffffffffffffffffffffffffffffffff1681565b5f8061023d61026b565b90505f670de0b6b3a7640000828561025591906104ef565b61025f919061055d565b90508092505050919050565b5f8073694aa1769357215de4fac081bf1f309adc32530690505f8173ffffffffffffffffffffffffffffffffffffffff1663feaf968c6040518163ffffffff1660e01b815260040160a060405180830381865afa1580156102ce573d5f803e3d5ffd5b505050506040513d601f19601f820116820180604052508101906102f29190610613565b50505091505080670de0b6b3a764000061030c919061068a565b9250505090565b5f819050919050565b61032581610313565b82525050565b5f60208201905061033e5f83018461031c565b92915050565b5f80fd5b5f73ffffffffffffffffffffffffffffffffffffffff82169050919050565b5f61037182610348565b9050919050565b61038181610367565b811461038b575f80fd5b50565b5f8135905061039c81610378565b92915050565b5f602082840312156103b7576103b6610344565b5b5f6103c48482850161038e565b91505092915050565b6103d681610313565b81146103e0575f80fd5b50565b5f813590506103f1816103cd565b92915050565b5f6020828403121561040c5761040b610344565b5b5f610419848285016103e3565b91505092915050565b61042b81610367565b82525050565b5f6020820190506104445f830184610422565b92915050565b5f82825260208201905092915050565b7f4469646e742073656e6420656e6f7567680000000000000000000000000000005f82015250565b5f61048e60118361044a565b91506104998261045a565b602082019050919050565b5f6020820190508181035f8301526104bb81610482565b9050919050565b7f4e487b71000000000000000000000000000000000000000000000000000000005f52601160045260245ffd5b5f6104f982610313565b915061050483610313565b925082820261051281610313565b91508282048414831517610529576105286104c2565b5b5092915050565b7f4e487b71000000000000000000000000000000000000000000000000000000005f52601260045260245ffd5b5f61056782610313565b915061057283610313565b92508261058257610581610530565b5b828204905092915050565b5f69ffffffffffffffffffff82169050919050565b6105ab8161058d565b81146105b5575f80fd5b50565b5f815190506105c6816105a2565b92915050565b5f819050919050565b6105de816105cc565b81146105e8575f80fd5b50565b5f815190506105f9816105d5565b92915050565b5f8151905061060d816103cd565b92915050565b5f805f805f60a0868803121561062c5761062b610344565b5b5f610639888289016105b8565b955050602061064a888289016105eb565b945050604061065b888289016105ff565b935050606061066c888289016105ff565b925050608061067d888289016105b8565b9150509295509295909350565b5f610694826105cc565b915061069f836105cc565b92508282026106ad816105cc565b91507f800000000000000000000000000000000000000000000000000000000000000084145f841216156106e4576106e36104c2565b5b82820584148315176106f9576106f86104c2565b5b509291505056fea2646970667358221220ff8fdcb4df4fc272e462b604df7ea4d09e0c26aa47b0b2fead3ffcd8881351cb64736f6c634300081a0033",
					"opcodes": "PUSH1 0x80 PUSH1 0x40 MSTORE PUSH9 0x2B5E3AF16B1880000 PUSH0 SSTORE CALLVALUE DUP1 ISZERO PUSH1 0x1A JUMPI PUSH0 DUP1 REVERT JUMPDEST POP PUSH2 0x736 DUP1 PUSH2 0x28 PUSH0 CODECOPY PUSH0 RETURN INVALID PUSH1 0x80 PUSH1 0x40 MSTORE PUSH1 0x4 CALLDATASIZE LT PUSH2 0x3E JUMPI PUSH0 CALLDATALOAD PUSH1 0xE0 SHR DUP1 PUSH4 0x98DE820 EQ PUSH2 0x42 JUMPI DUP1 PUSH4 0xB60D4288 EQ PUSH2 0x6C JUMPI DUP1 PUSH4 0xCC845996 EQ PUSH2 0x76 JUMPI DUP1 PUSH4 0xDC0D3DFF EQ PUSH2 0xB2 JUMPI JUMPDEST PUSH0 DUP1 REVERT JUMPDEST CALLVALUE DUP1 ISZERO PUSH2 0x4D JUMPI PUSH0 DUP1 REVERT JUMPDEST POP PUSH2 0x56 PUSH2 0xEE JUMP JUMPDEST PUSH1 0x40 MLOAD PUSH2 0x63 SWAP2 SWAP1 PUSH2 0x32B JUMP JUMPDEST PUSH1 0x40 MLOAD DUP1 SWAP2 SUB SWAP1 RETURN JUMPDEST PUSH2 0x74 PUSH2 0xF3 JUMP JUMPDEST STOP JUMPDEST CALLVALUE DUP1 ISZERO PUSH2 0x81 JUMPI PUSH0 DUP1 REVERT JUMPDEST POP PUSH2 0x9C PUSH1 0x4 DUP1 CALLDATASIZE SUB DUP2 ADD SWAP1 PUSH2 0x97 SWAP2 SWAP1 PUSH2 0x3A2 JUMP JUMPDEST PUSH2 0x1E3 JUMP JUMPDEST PUSH1 0x40 MLOAD PUSH2 0xA9 SWAP2 SWAP1 PUSH2 0x32B JUMP JUMPDEST PUSH1 0x40 MLOAD DUP1 SWAP2 SUB SWAP1 RETURN JUMPDEST CALLVALUE DUP1 ISZERO PUSH2 0xBD JUMPI PUSH0 DUP1 REVERT JUMPDEST POP PUSH2 0xD8 PUSH1 0x4 DUP1 CALLDATASIZE SUB DUP2 ADD SWAP1 PUSH2 0xD3 SWAP2 SWAP1 PUSH2 0x3F7 JUMP JUMPDEST PUSH2 0x1F8 JUMP JUMPDEST PUSH1 0x40 MLOAD PUSH2 0xE5 SWAP2 SWAP1 PUSH2 0x431 JUMP JUMPDEST PUSH1 0x40 MLOAD DUP1 SWAP2 SUB SWAP1 RETURN JUMPDEST PUSH0 SLOAD DUP2 JUMP JUMPDEST PUSH0 SLOAD PUSH2 0xFE CALLVALUE PUSH2 0x233 JUMP JUMPDEST LT ISZERO PUSH2 0x13F JUMPI PUSH1 0x40 MLOAD PUSH32 0x8C379A000000000000000000000000000000000000000000000000000000000 DUP2 MSTORE PUSH1 0x4 ADD PUSH2 0x136 SWAP1 PUSH2 0x4A4 JUMP JUMPDEST PUSH1 0x40 MLOAD DUP1 SWAP2 SUB SWAP1 REVERT JUMPDEST PUSH1 0x1 CALLER SWAP1 DUP1 PUSH1 0x1 DUP2 SLOAD ADD DUP1 DUP3 SSTORE DUP1 SWAP2 POP POP PUSH1 0x1 SWAP1 SUB SWAP1 PUSH0 MSTORE PUSH1 0x20 PUSH0 KECCAK256 ADD PUSH0 SWAP1 SWAP2 SWAP1 SWAP2 SWAP1 SWAP2 PUSH2 0x100 EXP DUP2 SLOAD DUP2 PUSH20 0xFFFFFFFFFFFFFFFFFFFFFFFFFFFFFFFFFFFFFFFF MUL NOT AND SWAP1 DUP4 PUSH20 0xFFFFFFFFFFFFFFFFFFFFFFFFFFFFFFFFFFFFFFFF AND MUL OR SWAP1 SSTORE POP CALLVALUE PUSH1 0x2 PUSH0 CALLER PUSH20 0xFFFFFFFFFFFFFFFFFFFFFFFFFFFFFFFFFFFFFFFF AND PUSH20 0xFFFFFFFFFFFFFFFFFFFFFFFFFFFFFFFFFFFFFFFF AND DUP2 MSTORE PUSH1 0x20 ADD SWAP1 DUP2 MSTORE PUSH1 0x20 ADD PUSH0 KECCAK256 DUP2 SWAP1 SSTORE POP JUMP JUMPDEST PUSH1 0x2 PUSH1 0x20 MSTORE DUP1 PUSH0 MSTORE PUSH1 0x40 PUSH0 KECCAK256 PUSH0 SWAP2 POP SWAP1 POP SLOAD DUP2 JUMP JUMPDEST PUSH1 0x1 DUP2 DUP2 SLOAD DUP2 LT PUSH2 0x207 JUMPI PUSH0 DUP1 REVERT JUMPDEST SWAP1 PUSH0 MSTORE PUSH1 0x20 PUSH0 KECCAK256 ADD PUSH0 SWAP2 POP SLOAD SWAP1 PUSH2 0x100 EXP SWAP1 DIV PUSH20 0xFFFFFFFFFFFFFFFFFFFFFFFFFFFFFFFFFFFFFFFF AND DUP2 JUMP JUMPDEST PUSH0 DUP1 PUSH2 0x23D PUSH2 0x26B JUMP JUMPDEST SWAP1 POP PUSH0 PUSH8 0xDE0B6B3A7640000 DUP3 DUP6 PUSH2 0x255 SWAP2 SWAP1 PUSH2 0x4EF JUMP JUMPDEST PUSH2 0x25F SWAP2 SWAP1 PUSH2 0x55D JUMP JUMPDEST SWAP1 POP DUP1 SWAP3 POP POP POP SWAP2 SWAP1 POP JUMP JUMPDEST PUSH0 DUP1 PUSH20 0x694AA1769357215DE4FAC081BF1F309ADC325306 SWAP1 POP PUSH0 DUP2 PUSH20 0xFFFFFFFFFFFFFFFFFFFFFFFFFFFFFFFFFFFFFFFF AND PUSH4 0xFEAF968C PUSH1 0x40 MLOAD DUP2 PUSH4 0xFFFFFFFF AND PUSH1 0xE0 SHL DUP2 MSTORE PUSH1 0x4 ADD PUSH1 0xA0 PUSH1 0x40 MLOAD DUP1 DUP4 SUB DUP2 DUP7 GAS STATICCALL ISZERO DUP1 ISZERO PUSH2 0x2CE JUMPI RETURNDATASIZE PUSH0 DUP1 RETURNDATACOPY RETURNDATASIZE PUSH0 REVERT JUMPDEST POP POP POP POP PUSH1 0x40 MLOAD RETURNDATASIZE PUSH1 0x1F NOT PUSH1 0x1F DUP3 ADD AND DUP3 ADD DUP1 PUSH1 0x40 MSTORE POP DUP2 ADD SWAP1 PUSH2 0x2F2 SWAP2 SWAP1 PUSH2 0x613 JUMP JUMPDEST POP POP POP SWAP2 POP POP DUP1 PUSH8 0xDE0B6B3A7640000 PUSH2 0x30C SWAP2 SWAP1 PUSH2 0x68A JUMP JUMPDEST SWAP3 POP POP POP SWAP1 JUMP JUMPDEST PUSH0 DUP2 SWAP1 POP SWAP2 SWAP1 POP JUMP JUMPDEST PUSH2 0x325 DUP2 PUSH2 0x313 JUMP JUMPDEST DUP3 MSTORE POP POP JUMP JUMPDEST PUSH0 PUSH1 0x20 DUP3 ADD SWAP1 POP PUSH2 0x33E PUSH0 DUP4 ADD DUP5 PUSH2 0x31C JUMP JUMPDEST SWAP3 SWAP2 POP POP JUMP JUMPDEST PUSH0 DUP1 REVERT JUMPDEST PUSH0 PUSH20 0xFFFFFFFFFFFFFFFFFFFFFFFFFFFFFFFFFFFFFFFF DUP3 AND SWAP1 POP SWAP2 SWAP1 POP JUMP JUMPDEST PUSH0 PUSH2 0x371 DUP3 PUSH2 0x348 JUMP JUMPDEST SWAP1 POP SWAP2 SWAP1 POP JUMP JUMPDEST PUSH2 0x381 DUP2 PUSH2 0x367 JUMP JUMPDEST DUP2 EQ PUSH2 0x38B JUMPI PUSH0 DUP1 REVERT JUMPDEST POP JUMP JUMPDEST PUSH0 DUP2 CALLDATALOAD SWAP1 POP PUSH2 0x39C DUP2 PUSH2 0x378 JUMP JUMPDEST SWAP3 SWAP2 POP POP JUMP JUMPDEST PUSH0 PUSH1 0x20 DUP3 DUP5 SUB SLT ISZERO PUSH2 0x3B7 JUMPI PUSH2 0x3B6 PUSH2 0x344 JUMP JUMPDEST JUMPDEST PUSH0 PUSH2 0x3C4 DUP5 DUP3 DUP6 ADD PUSH2 0x38E JUMP JUMPDEST SWAP2 POP POP SWAP3 SWAP2 POP POP JUMP JUMPDEST PUSH2 0x3D6 DUP2 PUSH2 0x313 JUMP JUMPDEST DUP2 EQ PUSH2 0x3E0 JUMPI PUSH0 DUP1 REVERT JUMPDEST POP JUMP JUMPDEST PUSH0 DUP2 CALLDATALOAD SWAP1 POP PUSH2 0x3F1 DUP2 PUSH2 0x3CD JUMP JUMPDEST SWAP3 SWAP2 POP POP JUMP JUMPDEST PUSH0 PUSH1 0x20 DUP3 DUP5 SUB SLT ISZERO PUSH2 0x40C JUMPI PUSH2 0x40B PUSH2 0x344 JUMP JUMPDEST JUMPDEST PUSH0 PUSH2 0x419 DUP5 DUP3 DUP6 ADD PUSH2 0x3E3 JUMP JUMPDEST SWAP2 POP POP SWAP3 SWAP2 POP POP JUMP JUMPDEST PUSH2 0x42B DUP2 PUSH2 0x367 JUMP JUMPDEST DUP3 MSTORE POP POP JUMP JUMPDEST PUSH0 PUSH1 0x20 DUP3 ADD SWAP1 POP PUSH2 0x444 PUSH0 DUP4 ADD DUP5 PUSH2 0x422 JUMP JUMPDEST SWAP3 SWAP2 POP POP JUMP JUMPDEST PUSH0 DUP3 DUP3 MSTORE PUSH1 0x20 DUP3 ADD SWAP1 POP SWAP3 SWAP2 POP POP JUMP JUMPDEST PUSH32 0x4469646E742073656E6420656E6F756768000000000000000000000000000000 PUSH0 DUP3 ADD MSTORE POP JUMP JUMPDEST PUSH0 PUSH2 0x48E PUSH1 0x11 DUP4 PUSH2 0x44A JUMP JUMPDEST SWAP2 POP PUSH2 0x499 DUP3 PUSH2 0x45A JUMP JUMPDEST PUSH1 0x20 DUP3 ADD SWAP1 POP SWAP2 SWAP1 POP JUMP JUMPDEST PUSH0 PUSH1 0x20 DUP3 ADD SWAP1 POP DUP2 DUP2 SUB PUSH0 DUP4 ADD MSTORE PUSH2 0x4BB DUP2 PUSH2 0x482 JUMP JUMPDEST SWAP1 POP SWAP2 SWAP1 POP JUMP JUMPDEST PUSH32 0x4E487B7100000000000000000000000000000000000000000000000000000000 PUSH0 MSTORE PUSH1 0x11 PUSH1 0x4 MSTORE PUSH1 0x24 PUSH0 REVERT JUMPDEST PUSH0 PUSH2 0x4F9 DUP3 PUSH2 0x313 JUMP JUMPDEST SWAP2 POP PUSH2 0x504 DUP4 PUSH2 0x313 JUMP JUMPDEST SWAP3 POP DUP3 DUP3 MUL PUSH2 0x512 DUP2 PUSH2 0x313 JUMP JUMPDEST SWAP2 POP DUP3 DUP3 DIV DUP5 EQ DUP4 ISZERO OR PUSH2 0x529 JUMPI PUSH2 0x528 PUSH2 0x4C2 JUMP JUMPDEST JUMPDEST POP SWAP3 SWAP2 POP POP JUMP JUMPDEST PUSH32 0x4E487B7100000000000000000000000000000000000000000000000000000000 PUSH0 MSTORE PUSH1 0x12 PUSH1 0x4 MSTORE PUSH1 0x24 PUSH0 REVERT JUMPDEST PUSH0 PUSH2 0x567 DUP3 PUSH2 0x313 JUMP JUMPDEST SWAP2 POP PUSH2 0x572 DUP4 PUSH2 0x313 JUMP JUMPDEST SWAP3 POP DUP3 PUSH2 0x582 JUMPI PUSH2 0x581 PUSH2 0x530 JUMP JUMPDEST JUMPDEST DUP3 DUP3 DIV SWAP1 POP SWAP3 SWAP2 POP POP JUMP JUMPDEST PUSH0 PUSH10 0xFFFFFFFFFFFFFFFFFFFF DUP3 AND SWAP1 POP SWAP2 SWAP1 POP JUMP JUMPDEST PUSH2 0x5AB DUP2 PUSH2 0x58D JUMP JUMPDEST DUP2 EQ PUSH2 0x5B5 JUMPI PUSH0 DUP1 REVERT JUMPDEST POP JUMP JUMPDEST PUSH0 DUP2 MLOAD SWAP1 POP PUSH2 0x5C6 DUP2 PUSH2 0x5A2 JUMP JUMPDEST SWAP3 SWAP2 POP POP JUMP JUMPDEST PUSH0 DUP2 SWAP1 POP SWAP2 SWAP1 POP JUMP JUMPDEST PUSH2 0x5DE DUP2 PUSH2 0x5CC JUMP JUMPDEST DUP2 EQ PUSH2 0x5E8 JUMPI PUSH0 DUP1 REVERT JUMPDEST POP JUMP JUMPDEST PUSH0 DUP2 MLOAD SWAP1 POP PUSH2 0x5F9 DUP2 PUSH2 0x5D5 JUMP JUMPDEST SWAP3 SWAP2 POP POP JUMP JUMPDEST PUSH0 DUP2 MLOAD SWAP1 POP PUSH2 0x60D DUP2 PUSH2 0x3CD JUMP JUMPDEST SWAP3 SWAP2 POP POP JUMP JUMPDEST PUSH0 DUP1 PUSH0 DUP1 PUSH0 PUSH1 0xA0 DUP7 DUP9 SUB SLT ISZERO PUSH2 0x62C JUMPI PUSH2 0x62B PUSH2 0x344 JUMP JUMPDEST JUMPDEST PUSH0 PUSH2 0x639 DUP9 DUP3 DUP10 ADD PUSH2 0x5B8 JUMP JUMPDEST SWAP6 POP POP PUSH1 0x20 PUSH2 0x64A DUP9 DUP3 DUP10 ADD PUSH2 0x5EB JUMP JUMPDEST SWAP5 POP POP PUSH1 0x40 PUSH2 0x65B DUP9 DUP3 DUP10 ADD PUSH2 0x5FF JUMP JUMPDEST SWAP4 POP POP PUSH1 0x60 PUSH2 0x66C DUP9 DUP3 DUP10 ADD PUSH2 0x5FF JUMP JUMPDEST SWAP3 POP POP PUSH1 0x80 PUSH2 0x67D DUP9 DUP3 DUP10 ADD PUSH2 0x5B8 JUMP JUMPDEST SWAP2 POP POP SWAP3 SWAP6 POP SWAP3 SWAP6 SWAP1 SWAP4 POP JUMP JUMPDEST PUSH0 PUSH2 0x694 DUP3 PUSH2 0x5CC JUMP JUMPDEST SWAP2 POP PUSH2 0x69F DUP4 PUSH2 0x5CC JUMP JUMPDEST SWAP3 POP DUP3 DUP3 MUL PUSH2 0x6AD DUP2 PUSH2 0x5CC JUMP JUMPDEST SWAP2 POP PUSH32 0x8000000000000000000000000000000000000000000000000000000000000000 DUP5 EQ PUSH0 DUP5 SLT AND ISZERO PUSH2 0x6E4 JUMPI PUSH2 0x6E3 PUSH2 0x4C2 JUMP JUMPDEST JUMPDEST DUP3 DUP3 SDIV DUP5 EQ DUP4 ISZERO OR PUSH2 0x6F9 JUMPI PUSH2 0x6F8 PUSH2 0x4C2 JUMP JUMPDEST JUMPDEST POP SWAP3 SWAP2 POP POP JUMP INVALID LOG2 PUSH5 0x6970667358 0x22 SLT KECCAK256 SELFDESTRUCT DUP16 0xDC 0xB4 0xDF 0x4F 0xC2 PUSH19 0xE462B604DF7EA4D09E0C26AA47B0B2FEAD3FFC 0xD8 DUP9 SGT MLOAD 0xCB PUSH5 0x736F6C6343 STOP ADDMOD BYTE STOP CALLER "
				},
				"gasEstimates": {
					"creation": {
						"codeDepositCost": "369200",
						"executionCost": "22508",
						"totalCost": "391708"
					},
					"external": {
						"amountFundedByEachFunder(address)": "2824",
						"fund()": "infinite",
						"funders(uint256)": "4988",
						"minimumUsd()": "2402"
					}
				},
				"methodIdentifiers": {
					"amountFundedByEachFunder(address)": "cc845996",
					"fund()": "b60d4288",
					"funders(uint256)": "dc0d3dff",
					"minimumUsd()": "098de820"
				}
			},
			"storageLayout": {
				"storage": [
					{
						"astId": 56,
						"contract": "contracts/FundMe.sol:FundMe",
						"label": "minimumUsd",
						"offset": 0,
						"slot": "0",
						"type": "t_uint256"
					},
					{
						"astId": 59,
						"contract": "contracts/FundMe.sol:FundMe",
						"label": "funders",
						"offset": 0,
						"slot": "1",
						"type": "t_array(t_address)dyn_storage"
					},
					{
						"astId": 63,
						"contract": "contracts/FundMe.sol:FundMe",
						"label": "amountFundedByEachFunder",
						"offset": 0,
						"slot": "2",
						"type": "t_mapping(t_address,t_uint256)"
					}
				],
				"types": {
					"t_address": {
						"encoding": "inplace",
						"label": "address",
						"numberOfBytes": "20"
					},
					"t_array(t_address)dyn_storage": {
						"base": "t_address",
						"encoding": "dynamic_array",
						"label": "address[]",
						"numberOfBytes": "32"
					},
					"t_mapping(t_address,t_uint256)": {
						"encoding": "mapping",
						"key": "t_address",
						"label": "mapping(address => uint256)",
						"numberOfBytes": "32",
						"value": "t_uint256"
					},
					"t_uint256": {
						"encoding": "inplace",
						"label": "uint256",
						"numberOfBytes": "32"
					}
				}
			},
			"userdoc": {
				"kind": "user",
				"methods": {},
				"version": 1
			}
		}
	}
}