{
	"contracts/FundMe.sol": {
		"FundMe": {
			"abi": [
				{
					"inputs": [],
					"name": "fund",
					"outputs": [],
					"stateMutability": "payable",
					"type": "function"
				},
				{
					"inputs": [],
					"name": "minimumUsd",
					"outputs": [
						{
							"internalType": "uint256",
							"name": "",
							"type": "uint256"
						}
					],
					"stateMutability": "view",
					"type": "function"
				}
			],
			"devdoc": {
				"kind": "dev",
				"methods": {},
				"version": 1
			},
			"evm": {
				"assembly": "    /* \"contracts/FundMe.sol\":57:213  contract FundMe {... */\n  mstore(0x40, 0x80)\n    /* \"contracts/FundMe.sol\":108:110  50 */\n  0x32\n    /* \"contracts/FundMe.sol\":80:110  uint256 public minimumUsd = 50 */\n  0x00\n  sstore\n    /* \"contracts/FundMe.sol\":57:213  contract FundMe {... */\n  callvalue\n  dup1\n  iszero\n  tag_1\n  jumpi\n  0x00\n  dup1\n  revert\ntag_1:\n  pop\n  dataSize(sub_0)\n  dup1\n  dataOffset(sub_0)\n  0x00\n  codecopy\n  0x00\n  return\nstop\n\nsub_0: assembly {\n        /* \"contracts/FundMe.sol\":57:213  contract FundMe {... */\n      mstore(0x40, 0x80)\n      jumpi(tag_1, lt(calldatasize, 0x04))\n      shr(0xe0, calldataload(0x00))\n      dup1\n      0x098de820\n      eq\n      tag_2\n      jumpi\n      dup1\n      0xb60d4288\n      eq\n      tag_3\n      jumpi\n    tag_1:\n      0x00\n      dup1\n      revert\n        /* \"contracts/FundMe.sol\":80:110  uint256 public minimumUsd = 50 */\n    tag_2:\n      callvalue\n      dup1\n      iszero\n      tag_4\n      jumpi\n      0x00\n      dup1\n      revert\n    tag_4:\n      pop\n      tag_5\n      tag_6\n      jump\t// in\n    tag_5:\n      mload(0x40)\n      tag_7\n      swap2\n      swap1\n      tag_8\n      jump\t// in\n    tag_7:\n      mload(0x40)\n      dup1\n      swap2\n      sub\n      swap1\n      return\n        /* \"contracts/FundMe.sol\":117:211  function fund() public payable {... */\n    tag_3:\n      tag_9\n      tag_10\n      jump\t// in\n    tag_9:\n      stop\n        /* \"contracts/FundMe.sol\":80:110  uint256 public minimumUsd = 50 */\n    tag_6:\n      sload(0x00)\n      dup2\n      jump\t// out\n        /* \"contracts/FundMe.sol\":117:211  function fund() public payable {... */\n    tag_10:\n        /* \"contracts/FundMe.sol\":178:182  1e18 */\n      0x0de0b6b3a7640000\n        /* \"contracts/FundMe.sol\":166:175  msg.value */\n      callvalue\n        /* \"contracts/FundMe.sol\":166:182  msg.value > 1e18 */\n      gt\n        /* \"contracts/FundMe.sol\":158:204  require(msg.value > 1e18, \"Didnt send enough\") */\n      tag_12\n      jumpi\n      mload(0x40)\n      0x08c379a000000000000000000000000000000000000000000000000000000000\n      dup2\n      mstore\n      0x04\n      add\n      tag_13\n      swap1\n      tag_14\n      jump\t// in\n    tag_13:\n      mload(0x40)\n      dup1\n      swap2\n      sub\n      swap1\n      revert\n    tag_12:\n        /* \"contracts/FundMe.sol\":117:211  function fund() public payable {... */\n      jump\t// out\n        /* \"#utility.yul\":7:84   */\n    tag_15:\n        /* \"#utility.yul\":44:51   */\n      0x00\n        /* \"#utility.yul\":73:78   */\n      dup2\n        /* \"#utility.yul\":62:78   */\n      swap1\n      pop\n        /* \"#utility.yul\":7:84   */\n      swap2\n      swap1\n      pop\n      jump\t// out\n        /* \"#utility.yul\":90:208   */\n    tag_16:\n        /* \"#utility.yul\":177:201   */\n      tag_23\n        /* \"#utility.yul\":195:200   */\n      dup2\n        /* \"#utility.yul\":177:201   */\n      tag_15\n      jump\t// in\n    tag_23:\n        /* \"#utility.yul\":172:175   */\n      dup3\n        /* \"#utility.yul\":165:202   */\n      mstore\n        /* \"#utility.yul\":90:208   */\n      pop\n      pop\n      jump\t// out\n        /* \"#utility.yul\":214:436   */\n    tag_8:\n        /* \"#utility.yul\":307:311   */\n      0x00\n        /* \"#utility.yul\":345:347   */\n      0x20\n        /* \"#utility.yul\":334:343   */\n      dup3\n        /* \"#utility.yul\":330:348   */\n      add\n        /* \"#utility.yul\":322:348   */\n      swap1\n      pop\n        /* \"#utility.yul\":358:429   */\n      tag_25\n        /* \"#utility.yul\":426:427   */\n      0x00\n        /* \"#utility.yul\":415:424   */\n      dup4\n        /* \"#utility.yul\":411:428   */\n      add\n        /* \"#utility.yul\":402:408   */\n      dup5\n        /* \"#utility.yul\":358:429   */\n      tag_16\n      jump\t// in\n    tag_25:\n        /* \"#utility.yul\":214:436   */\n      swap3\n      swap2\n      pop\n      pop\n      jump\t// out\n        /* \"#utility.yul\":442:611   */\n    tag_17:\n        /* \"#utility.yul\":526:537   */\n      0x00\n        /* \"#utility.yul\":560:566   */\n      dup3\n        /* \"#utility.yul\":555:558   */\n      dup3\n        /* \"#utility.yul\":548:567   */\n      mstore\n        /* \"#utility.yul\":600:604   */\n      0x20\n        /* \"#utility.yul\":595:598   */\n      dup3\n        /* \"#utility.yul\":591:605   */\n      add\n        /* \"#utility.yul\":576:605   */\n      swap1\n      pop\n        /* \"#utility.yul\":442:611   */\n      swap3\n      swap2\n      pop\n      pop\n      jump\t// out\n        /* \"#utility.yul\":617:784   */\n    tag_18:\n        /* \"#utility.yul\":757:776   */\n      0x4469646e742073656e6420656e6f756768000000000000000000000000000000\n        /* \"#utility.yul\":753:754   */\n      0x00\n        /* \"#utility.yul\":745:751   */\n      dup3\n        /* \"#utility.yul\":741:755   */\n      add\n        /* \"#utility.yul\":734:777   */\n      mstore\n        /* \"#utility.yul\":617:784   */\n      pop\n      jump\t// out\n        /* \"#utility.yul\":790:1156   */\n    tag_19:\n        /* \"#utility.yul\":932:935   */\n      0x00\n        /* \"#utility.yul\":953:1020   */\n      tag_29\n        /* \"#utility.yul\":1017:1019   */\n      0x11\n        /* \"#utility.yul\":1012:1015   */\n      dup4\n        /* \"#utility.yul\":953:1020   */\n      tag_17\n      jump\t// in\n    tag_29:\n        /* \"#utility.yul\":946:1020   */\n      swap2\n      pop\n        /* \"#utility.yul\":1029:1122   */\n      tag_30\n        /* \"#utility.yul\":1118:1121   */\n      dup3\n        /* \"#utility.yul\":1029:1122   */\n      tag_18\n      jump\t// in\n    tag_30:\n        /* \"#utility.yul\":1147:1149   */\n      0x20\n        /* \"#utility.yul\":1142:1145   */\n      dup3\n        /* \"#utility.yul\":1138:1150   */\n      add\n        /* \"#utility.yul\":1131:1150   */\n      swap1\n      pop\n        /* \"#utility.yul\":790:1156   */\n      swap2\n      swap1\n      pop\n      jump\t// out\n        /* \"#utility.yul\":1162:1581   */\n    tag_14:\n        /* \"#utility.yul\":1328:1332   */\n      0x00\n        /* \"#utility.yul\":1366:1368   */\n      0x20\n        /* \"#utility.yul\":1355:1364   */\n      dup3\n        /* \"#utility.yul\":1351:1369   */\n      add\n        /* \"#utility.yul\":1343:1369   */\n      swap1\n      pop\n        /* \"#utility.yul\":1415:1424   */\n      dup2\n        /* \"#utility.yul\":1409:1413   */\n      dup2\n        /* \"#utility.yul\":1405:1425   */\n      sub\n        /* \"#utility.yul\":1401:1402   */\n      0x00\n        /* \"#utility.yul\":1390:1399   */\n      dup4\n        /* \"#utility.yul\":1386:1403   */\n      add\n        /* \"#utility.yul\":1379:1426   */\n      mstore\n        /* \"#utility.yul\":1443:1574   */\n      tag_32\n        /* \"#utility.yul\":1569:1573   */\n      dup2\n        /* \"#utility.yul\":1443:1574   */\n      tag_19\n      jump\t// in\n    tag_32:\n        /* \"#utility.yul\":1435:1574   */\n      swap1\n      pop\n        /* \"#utility.yul\":1162:1581   */\n      swap2\n      swap1\n      pop\n      jump\t// out\n\n    auxdata: 0xa2646970667358221220570ea023ff5c844caa12229acb7215592d39e0a35bef6b98caeafb4eb132637864736f6c634300081a0033\n}\n",
				"bytecode": {
					"linkReferences": {},
					"object": "608060405260325f553480156012575f80fd5b50610190806100205f395ff3fe608060405260043610610028575f3560e01c8063098de8201461002c578063b60d428814610056575b5f80fd5b348015610037575f80fd5b50610040610060565b60405161004d91906100c9565b60405180910390f35b61005e610065565b005b5f5481565b670de0b6b3a764000034116100af576040517f08c379a00000000000000000000000000000000000000000000000000000000081526004016100a69061013c565b60405180910390fd5b565b5f819050919050565b6100c3816100b1565b82525050565b5f6020820190506100dc5f8301846100ba565b92915050565b5f82825260208201905092915050565b7f4469646e742073656e6420656e6f7567680000000000000000000000000000005f82015250565b5f6101266011836100e2565b9150610131826100f2565b602082019050919050565b5f6020820190508181035f8301526101538161011a565b905091905056fea2646970667358221220570ea023ff5c844caa12229acb7215592d39e0a35bef6b98caeafb4eb132637864736f6c634300081a0033",
					"opcodes": "PUSH1 0x80 PUSH1 0x40 MSTORE PUSH1 0x32 PUSH0 SSTORE CALLVALUE DUP1 ISZERO PUSH1 0x12 JUMPI PUSH0 DUP1 REVERT JUMPDEST POP PUSH2 0x190 DUP1 PUSH2 0x20 PUSH0 CODECOPY PUSH0 RETURN INVALID PUSH1 0x80 PUSH1 0x40 MSTORE PUSH1 0x4 CALLDATASIZE LT PUSH2 0x28 JUMPI PUSH0 CALLDATALOAD PUSH1 0xE0 SHR DUP1 PUSH4 0x98DE820 EQ PUSH2 0x2C JUMPI DUP1 PUSH4 0xB60D4288 EQ PUSH2 0x56 JUMPI JUMPDEST PUSH0 DUP1 REVERT JUMPDEST CALLVALUE DUP1 ISZERO PUSH2 0x37 JUMPI PUSH0 DUP1 REVERT JUMPDEST POP PUSH2 0x40 PUSH2 0x60 JUMP JUMPDEST PUSH1 0x40 MLOAD PUSH2 0x4D SWAP2 SWAP1 PUSH2 0xC9 JUMP JUMPDEST PUSH1 0x40 MLOAD DUP1 SWAP2 SUB SWAP1 RETURN JUMPDEST PUSH2 0x5E PUSH2 0x65 JUMP JUMPDEST STOP JUMPDEST PUSH0 SLOAD DUP2 JUMP JUMPDEST PUSH8 0xDE0B6B3A7640000 CALLVALUE GT PUSH2 0xAF JUMPI PUSH1 0x40 MLOAD PUSH32 0x8C379A000000000000000000000000000000000000000000000000000000000 DUP2 MSTORE PUSH1 0x4 ADD PUSH2 0xA6 SWAP1 PUSH2 0x13C JUMP JUMPDEST PUSH1 0x40 MLOAD DUP1 SWAP2 SUB SWAP1 REVERT JUMPDEST JUMP JUMPDEST PUSH0 DUP2 SWAP1 POP SWAP2 SWAP1 POP JUMP JUMPDEST PUSH2 0xC3 DUP2 PUSH2 0xB1 JUMP JUMPDEST DUP3 MSTORE POP POP JUMP JUMPDEST PUSH0 PUSH1 0x20 DUP3 ADD SWAP1 POP PUSH2 0xDC PUSH0 DUP4 ADD DUP5 PUSH2 0xBA JUMP JUMPDEST SWAP3 SWAP2 POP POP JUMP JUMPDEST PUSH0 DUP3 DUP3 MSTORE PUSH1 0x20 DUP3 ADD SWAP1 POP SWAP3 SWAP2 POP POP JUMP JUMPDEST PUSH32 0x4469646E742073656E6420656E6F756768000000000000000000000000000000 PUSH0 DUP3 ADD MSTORE POP JUMP JUMPDEST PUSH0 PUSH2 0x126 PUSH1 0x11 DUP4 PUSH2 0xE2 JUMP JUMPDEST SWAP2 POP PUSH2 0x131 DUP3 PUSH2 0xF2 JUMP JUMPDEST PUSH1 0x20 DUP3 ADD SWAP1 POP SWAP2 SWAP1 POP JUMP JUMPDEST PUSH0 PUSH1 0x20 DUP3 ADD SWAP1 POP DUP2 DUP2 SUB PUSH0 DUP4 ADD MSTORE PUSH2 0x153 DUP2 PUSH2 0x11A JUMP JUMPDEST SWAP1 POP SWAP2 SWAP1 POP JUMP INVALID LOG2 PUSH5 0x6970667358 0x22 SLT KECCAK256 JUMPI 0xE LOG0 0x23 SELFDESTRUCT TLOAD DUP5 0x4C 0xAA SLT 0x22 SWAP11 0xCB PUSH19 0x15592D39E0A35BEF6B98CAEAFB4EB132637864 PUSH20 0x6F6C634300081A00330000000000000000000000 "
				},
				"gasEstimates": {
					"creation": {
						"codeDepositCost": "80000",
						"executionCost": "22232",
						"totalCost": "102232"
					},
					"external": {
						"fund()": "425",
						"minimumUsd()": "2402"
					}
				},
				"methodIdentifiers": {
					"fund()": "b60d4288",
					"minimumUsd()": "098de820"
				}
			},
			"storageLayout": {
				"storage": [
					{
						"astId": 4,
						"contract": "contracts/FundMe.sol:FundMe",
						"label": "minimumUsd",
						"offset": 0,
						"slot": "0",
						"type": "t_uint256"
					}
				],
				"types": {
					"t_uint256": {
						"encoding": "inplace",
						"label": "uint256",
						"numberOfBytes": "32"
					}
				}
			},
			"userdoc": {
				"kind": "user",
				"methods": {},
				"version": 1
			}
		}
	}
}