{
	"contracts/FundMe.sol": {
		"FundMe": {
			"abi": [
				{
					"inputs": [],
					"stateMutability": "nonpayable",
					"type": "constructor"
				},
				{
					"inputs": [
						{
							"internalType": "address",
							"name": "",
							"type": "address"
						}
					],
					"name": "amountFundedByEachFunder",
					"outputs": [
						{
							"internalType": "uint256",
							"name": "",
							"type": "uint256"
						}
					],
					"stateMutability": "view",
					"type": "function"
				},
				{
					"inputs": [],
					"name": "fund",
					"outputs": [],
					"stateMutability": "payable",
					"type": "function"
				},
				{
					"inputs": [
						{
							"internalType": "uint256",
							"name": "",
							"type": "uint256"
						}
					],
					"name": "funders",
					"outputs": [
						{
							"internalType": "address",
							"name": "",
							"type": "address"
						}
					],
					"stateMutability": "view",
					"type": "function"
				},
				{
					"inputs": [],
					"name": "minimumUsd",
					"outputs": [
						{
							"internalType": "uint256",
							"name": "",
							"type": "uint256"
						}
					],
					"stateMutability": "view",
					"type": "function"
				},
				{
					"inputs": [],
					"name": "owner",
					"outputs": [
						{
							"internalType": "address",
							"name": "",
							"type": "address"
						}
					],
					"stateMutability": "view",
					"type": "function"
				},
				{
					"inputs": [],
					"name": "withdraw",
					"outputs": [],
					"stateMutability": "nonpayable",
					"type": "function"
				}
			],
			"devdoc": {
				"kind": "dev",
				"methods": {},
				"version": 1
			},
			"evm": {
				"assembly": "    /* \"contracts/FundMe.sol\":89:1435  contract FundMe {... */\n  mstore(0x40, 0x80)\n    /* \"contracts/FundMe.sol\":179:188  50 * 1e18 */\n  0x02b5e3af16b1880000\n    /* \"contracts/FundMe.sol\":151:188  uint256 public minimumUsd = 50 * 1e18 */\n  0x00\n  sstore\n    /* \"contracts/FundMe.sol\":318:364  constructor() {... */\n  callvalue\n  dup1\n  iszero\n  tag_1\n  jumpi\n  0x00\n  dup1\n  revert\ntag_1:\n  pop\n    /* \"contracts/FundMe.sol\":347:357  msg.sender */\n  caller\n    /* \"contracts/FundMe.sol\":339:344  owner */\n  0x03\n  0x00\n    /* \"contracts/FundMe.sol\":339:357  owner = msg.sender */\n  0x0100\n  exp\n  dup2\n  sload\n  dup2\n  0xffffffffffffffffffffffffffffffffffffffff\n  mul\n  not\n  and\n  swap1\n  dup4\n  0xffffffffffffffffffffffffffffffffffffffff\n  and\n  mul\n  or\n  swap1\n  sstore\n  pop\n    /* \"contracts/FundMe.sol\":89:1435  contract FundMe {... */\n  dataSize(sub_0)\n  dup1\n  dataOffset(sub_0)\n  0x00\n  codecopy\n  0x00\n  return\nstop\n\nsub_0: assembly {\n        /* \"contracts/FundMe.sol\":89:1435  contract FundMe {... */\n      mstore(0x40, 0x80)\n      jumpi(tag_1, lt(calldatasize, 0x04))\n      shr(0xe0, calldataload(0x00))\n      dup1\n      0x098de820\n      eq\n      tag_2\n      jumpi\n      dup1\n      0x3ccfd60b\n      eq\n      tag_3\n      jumpi\n      dup1\n      0x8da5cb5b\n      eq\n      tag_4\n      jumpi\n      dup1\n      0xb60d4288\n      eq\n      tag_5\n      jumpi\n      dup1\n      0xcc845996\n      eq\n      tag_6\n      jumpi\n      dup1\n      0xdc0d3dff\n      eq\n      tag_7\n      jumpi\n    tag_1:\n      0x00\n      dup1\n      revert\n        /* \"contracts/FundMe.sol\":151:188  uint256 public minimumUsd = 50 * 1e18 */\n    tag_2:\n      callvalue\n      dup1\n      iszero\n      tag_8\n      jumpi\n      0x00\n      dup1\n      revert\n    tag_8:\n      pop\n      tag_9\n      tag_10\n      jump\t// in\n    tag_9:\n      mload(0x40)\n      tag_11\n      swap2\n      swap1\n      tag_12\n      jump\t// in\n    tag_11:\n      mload(0x40)\n      dup1\n      swap2\n      sub\n      swap1\n      return\n        /* \"contracts/FundMe.sol\":591:1323  function withdraw() public onlyOwner {... */\n    tag_3:\n      callvalue\n      dup1\n      iszero\n      tag_13\n      jumpi\n      0x00\n      dup1\n      revert\n    tag_13:\n      pop\n      tag_14\n      tag_15\n      jump\t// in\n    tag_14:\n      stop\n        /* \"contracts/FundMe.sol\":291:311  address public owner */\n    tag_4:\n      callvalue\n      dup1\n      iszero\n      tag_16\n      jumpi\n      0x00\n      dup1\n      revert\n    tag_16:\n      pop\n      tag_17\n      tag_18\n      jump\t// in\n    tag_17:\n      mload(0x40)\n      tag_19\n      swap2\n      swap1\n      tag_20\n      jump\t// in\n    tag_19:\n      mload(0x40)\n      dup1\n      swap2\n      sub\n      swap1\n      return\n        /* \"contracts/FundMe.sol\":370:585  function fund() public payable {... */\n    tag_5:\n      tag_21\n      tag_22\n      jump\t// in\n    tag_21:\n      stop\n        /* \"contracts/FundMe.sol\":224:284  mapping (address => uint256) public amountFundedByEachFunder */\n    tag_6:\n      callvalue\n      dup1\n      iszero\n      tag_23\n      jumpi\n      0x00\n      dup1\n      revert\n    tag_23:\n      pop\n      tag_24\n      0x04\n      dup1\n      calldatasize\n      sub\n      dup2\n      add\n      swap1\n      tag_25\n      swap2\n      swap1\n      tag_26\n      jump\t// in\n    tag_25:\n      tag_27\n      jump\t// in\n    tag_24:\n      mload(0x40)\n      tag_28\n      swap2\n      swap1\n      tag_12\n      jump\t// in\n    tag_28:\n      mload(0x40)\n      dup1\n      swap2\n      sub\n      swap1\n      return\n        /* \"contracts/FundMe.sol\":194:218  address[] public funders */\n    tag_7:\n      callvalue\n      dup1\n      iszero\n      tag_29\n      jumpi\n      0x00\n      dup1\n      revert\n    tag_29:\n      pop\n      tag_30\n      0x04\n      dup1\n      calldatasize\n      sub\n      dup2\n      add\n      swap1\n      tag_31\n      swap2\n      swap1\n      tag_32\n      jump\t// in\n    tag_31:\n      tag_33\n      jump\t// in\n    tag_30:\n      mload(0x40)\n      tag_34\n      swap2\n      swap1\n      tag_20\n      jump\t// in\n    tag_34:\n      mload(0x40)\n      dup1\n      swap2\n      sub\n      swap1\n      return\n        /* \"contracts/FundMe.sol\":151:188  uint256 public minimumUsd = 50 * 1e18 */\n    tag_10:\n      sload(0x00)\n      dup2\n      jump\t// out\n        /* \"contracts/FundMe.sol\":591:1323  function withdraw() public onlyOwner {... */\n    tag_15:\n        /* \"contracts/FundMe.sol\":1382:1387  owner */\n      0x03\n      0x00\n      swap1\n      sload\n      swap1\n      0x0100\n      exp\n      swap1\n      div\n      0xffffffffffffffffffffffffffffffffffffffff\n      and\n        /* \"contracts/FundMe.sol\":1368:1387  msg.sender == owner */\n      0xffffffffffffffffffffffffffffffffffffffff\n      and\n        /* \"contracts/FundMe.sol\":1368:1378  msg.sender */\n      caller\n        /* \"contracts/FundMe.sol\":1368:1387  msg.sender == owner */\n      0xffffffffffffffffffffffffffffffffffffffff\n      and\n      eq\n        /* \"contracts/FundMe.sol\":1360:1411  require(msg.sender == owner, \"Sender is not owner\") */\n      tag_36\n      jumpi\n      mload(0x40)\n      0x08c379a000000000000000000000000000000000000000000000000000000000\n      dup2\n      mstore\n      0x04\n      add\n      tag_37\n      swap1\n      tag_38\n      jump\t// in\n    tag_37:\n      mload(0x40)\n      dup1\n      swap2\n      sub\n      swap1\n      revert\n    tag_36:\n        /* \"contracts/FundMe.sol\":643:662  uint256 funderIndex */\n      0x00\n        /* \"contracts/FundMe.sol\":638:825  for (uint256 funderIndex = 0; funderIndex < funders.length; funderIndex++) {... */\n    tag_40:\n        /* \"contracts/FundMe.sol\":682:689  funders */\n      0x01\n        /* \"contracts/FundMe.sol\":682:696  funders.length */\n      dup1\n      sload\n      swap1\n      pop\n        /* \"contracts/FundMe.sol\":668:679  funderIndex */\n      dup2\n        /* \"contracts/FundMe.sol\":668:696  funderIndex < funders.length */\n      lt\n        /* \"contracts/FundMe.sol\":638:825  for (uint256 funderIndex = 0; funderIndex < funders.length; funderIndex++) {... */\n      iszero\n      tag_41\n      jumpi\n        /* \"contracts/FundMe.sol\":727:741  address funder */\n      0x00\n        /* \"contracts/FundMe.sol\":744:751  funders */\n      0x01\n        /* \"contracts/FundMe.sol\":752:763  funderIndex */\n      dup3\n        /* \"contracts/FundMe.sol\":744:764  funders[funderIndex] */\n      dup2\n      sload\n      dup2\n      lt\n      tag_43\n      jumpi\n      tag_44\n      tag_45\n      jump\t// in\n    tag_44:\n    tag_43:\n      swap1\n      0x00\n      mstore\n      keccak256(0x00, 0x20)\n      add\n      0x00\n      swap1\n      sload\n      swap1\n      0x0100\n      exp\n      swap1\n      div\n      0xffffffffffffffffffffffffffffffffffffffff\n      and\n        /* \"contracts/FundMe.sol\":727:764  address funder = funders[funderIndex] */\n      swap1\n      pop\n        /* \"contracts/FundMe.sol\":813:814  0 */\n      0x00\n        /* \"contracts/FundMe.sol\":778:802  amountFundedByEachFunder */\n      0x02\n        /* \"contracts/FundMe.sol\":778:810  amountFundedByEachFunder[funder] */\n      0x00\n        /* \"contracts/FundMe.sol\":803:809  funder */\n      dup4\n        /* \"contracts/FundMe.sol\":778:810  amountFundedByEachFunder[funder] */\n      0xffffffffffffffffffffffffffffffffffffffff\n      and\n      0xffffffffffffffffffffffffffffffffffffffff\n      and\n      dup2\n      mstore\n      0x20\n      add\n      swap1\n      dup2\n      mstore\n      0x20\n      add\n      0x00\n      keccak256\n        /* \"contracts/FundMe.sol\":778:814  amountFundedByEachFunder[funder] = 0 */\n      dup2\n      swap1\n      sstore\n      pop\n        /* \"contracts/FundMe.sol\":713:825  {... */\n      pop\n        /* \"contracts/FundMe.sol\":698:711  funderIndex++ */\n      dup1\n      dup1\n      0x01\n      add\n      swap2\n      pop\n      pop\n        /* \"contracts/FundMe.sol\":638:825  for (uint256 funderIndex = 0; funderIndex < funders.length; funderIndex++) {... */\n      jump(tag_40)\n    tag_41:\n      pop\n        /* \"contracts/FundMe.sol\":858:859  0 */\n      0x00\n        /* \"contracts/FundMe.sol\":844:860  new address[](0) */\n      0xffffffffffffffff\n      dup2\n      gt\n      iszero\n      tag_47\n      jumpi\n      tag_48\n      tag_49\n      jump\t// in\n    tag_48:\n    tag_47:\n      mload(0x40)\n      swap1\n      dup1\n      dup3\n      mstore\n      dup1\n      0x20\n      mul\n      0x20\n      add\n      dup3\n      add\n      0x40\n      mstore\n      dup1\n      iszero\n      tag_50\n      jumpi\n      dup2\n      0x20\n      add\n      0x20\n      dup3\n      mul\n      dup1\n      calldatasize\n      dup4\n      calldatacopy\n      dup1\n      dup3\n      add\n      swap2\n      pop\n      pop\n      swap1\n      pop\n    tag_50:\n      pop\n        /* \"contracts/FundMe.sol\":834:841  funders */\n      0x01\n        /* \"contracts/FundMe.sol\":834:860  funders = new address[](0) */\n      swap1\n      dup1\n      mload\n      swap1\n      0x20\n      add\n      swap1\n      tag_51\n      swap3\n      swap2\n      swap1\n      tag_52\n      jump\t// in\n    tag_51:\n      pop\n        /* \"contracts/FundMe.sol\":1190:1206  bool callSuccess */\n      0x00\n        /* \"contracts/FundMe.sol\":1220:1230  msg.sender */\n      caller\n        /* \"contracts/FundMe.sol\":1212:1236  payable(msg.sender).call */\n      0xffffffffffffffffffffffffffffffffffffffff\n      and\n        /* \"contracts/FundMe.sol\":1245:1266  address(this).balance */\n      selfbalance\n        /* \"contracts/FundMe.sol\":1212:1271  payable(msg.sender).call{value : address(this).balance}(\"\") */\n      mload(0x40)\n      tag_53\n      swap1\n      tag_54\n      jump\t// in\n    tag_53:\n      0x00\n      mload(0x40)\n      dup1\n      dup4\n      sub\n      dup2\n      dup6\n      dup8\n      gas\n      call\n      swap3\n      pop\n      pop\n      pop\n      returndatasize\n      dup1\n      0x00\n      dup2\n      eq\n      tag_57\n      jumpi\n      mload(0x40)\n      swap2\n      pop\n      and(add(returndatasize, 0x3f), not(0x1f))\n      dup3\n      add\n      0x40\n      mstore\n      returndatasize\n      dup3\n      mstore\n      returndatasize\n      0x00\n      0x20\n      dup5\n      add\n      returndatacopy\n      jump(tag_56)\n    tag_57:\n      0x60\n      swap2\n      pop\n    tag_56:\n      pop\n        /* \"contracts/FundMe.sol\":1189:1271  (bool callSuccess, ) = payable(msg.sender).call{value : address(this).balance}(\"\") */\n      pop\n      swap1\n      pop\n        /* \"contracts/FundMe.sol\":1289:1300  callSuccess */\n      dup1\n        /* \"contracts/FundMe.sol\":1281:1315  require(callSuccess,\"Call failed\") */\n      tag_58\n      jumpi\n      mload(0x40)\n      0x08c379a000000000000000000000000000000000000000000000000000000000\n      dup2\n      mstore\n      0x04\n      add\n      tag_59\n      swap1\n      tag_60\n      jump\t// in\n    tag_59:\n      mload(0x40)\n      dup1\n      swap2\n      sub\n      swap1\n      revert\n    tag_58:\n        /* \"contracts/FundMe.sol\":628:1323  {... */\n      pop\n        /* \"contracts/FundMe.sol\":591:1323  function withdraw() public onlyOwner {... */\n      jump\t// out\n        /* \"contracts/FundMe.sol\":291:311  address public owner */\n    tag_18:\n      0x03\n      0x00\n      swap1\n      sload\n      swap1\n      0x0100\n      exp\n      swap1\n      div\n      0xffffffffffffffffffffffffffffffffffffffff\n      and\n      dup2\n      jump\t// out\n        /* \"contracts/FundMe.sol\":370:585  function fund() public payable {... */\n    tag_22:\n        /* \"contracts/FundMe.sol\":454:464  minimumUsd */\n      sload(0x00)\n        /* \"contracts/FundMe.sol\":419:450  msg.value.getConversationRate() */\n      tag_62\n        /* \"contracts/FundMe.sol\":419:428  msg.value */\n      callvalue\n        /* \"contracts/FundMe.sol\":419:448  msg.value.getConversationRate */\n      tag_63\n        /* \"contracts/FundMe.sol\":419:450  msg.value.getConversationRate() */\n      jump\t// in\n    tag_62:\n        /* \"contracts/FundMe.sol\":419:464  msg.value.getConversationRate() >= minimumUsd */\n      lt\n      iszero\n        /* \"contracts/FundMe.sol\":411:486  require(msg.value.getConversationRate() >= minimumUsd, \"Didnt send enough\") */\n      tag_64\n      jumpi\n      mload(0x40)\n      0x08c379a000000000000000000000000000000000000000000000000000000000\n      dup2\n      mstore\n      0x04\n      add\n      tag_65\n      swap1\n      tag_66\n      jump\t// in\n    tag_65:\n      mload(0x40)\n      dup1\n      swap2\n      sub\n      swap1\n      revert\n    tag_64:\n        /* \"contracts/FundMe.sol\":496:503  funders */\n      0x01\n        /* \"contracts/FundMe.sol\":509:519  msg.sender */\n      caller\n        /* \"contracts/FundMe.sol\":496:520  funders.push(msg.sender) */\n      swap1\n      dup1\n      0x01\n      dup2\n      sload\n      add\n      dup1\n      dup3\n      sstore\n      dup1\n      swap2\n      pop\n      pop\n      0x01\n      swap1\n      sub\n      swap1\n      0x00\n      mstore\n      keccak256(0x00, 0x20)\n      add\n      0x00\n      swap1\n      swap2\n      swap1\n      swap2\n      swap1\n      swap2\n      0x0100\n      exp\n      dup2\n      sload\n      dup2\n      0xffffffffffffffffffffffffffffffffffffffff\n      mul\n      not\n      and\n      swap1\n      dup4\n      0xffffffffffffffffffffffffffffffffffffffff\n      and\n      mul\n      or\n      swap1\n      sstore\n      pop\n        /* \"contracts/FundMe.sol\":569:578  msg.value */\n      callvalue\n        /* \"contracts/FundMe.sol\":530:554  amountFundedByEachFunder */\n      0x02\n        /* \"contracts/FundMe.sol\":530:566  amountFundedByEachFunder[msg.sender] */\n      0x00\n        /* \"contracts/FundMe.sol\":555:565  msg.sender */\n      caller\n        /* \"contracts/FundMe.sol\":530:566  amountFundedByEachFunder[msg.sender] */\n      0xffffffffffffffffffffffffffffffffffffffff\n      and\n      0xffffffffffffffffffffffffffffffffffffffff\n      and\n      dup2\n      mstore\n      0x20\n      add\n      swap1\n      dup2\n      mstore\n      0x20\n      add\n      0x00\n      keccak256\n        /* \"contracts/FundMe.sol\":530:578  amountFundedByEachFunder[msg.sender] = msg.value */\n      dup2\n      swap1\n      sstore\n      pop\n        /* \"contracts/FundMe.sol\":370:585  function fund() public payable {... */\n      jump\t// out\n        /* \"contracts/FundMe.sol\":224:284  mapping (address => uint256) public amountFundedByEachFunder */\n    tag_27:\n      mstore(0x20, 0x02)\n      dup1\n      0x00\n      mstore\n      keccak256(0x00, 0x40)\n      0x00\n      swap2\n      pop\n      swap1\n      pop\n      sload\n      dup2\n      jump\t// out\n        /* \"contracts/FundMe.sol\":194:218  address[] public funders */\n    tag_33:\n      0x01\n      dup2\n      dup2\n      sload\n      dup2\n      lt\n      tag_68\n      jumpi\n      0x00\n      dup1\n      revert\n    tag_68:\n      swap1\n      0x00\n      mstore\n      keccak256(0x00, 0x20)\n      add\n      0x00\n      swap2\n      pop\n      sload\n      swap1\n      0x0100\n      exp\n      swap1\n      div\n      0xffffffffffffffffffffffffffffffffffffffff\n      and\n      dup2\n      jump\t// out\n        /* \"contracts/PriceConvertor.sol\":435:656  function getConversationRate(uint256 ethAmount) internal view returns(uint256) {... */\n    tag_63:\n        /* \"contracts/PriceConvertor.sol\":505:512  uint256 */\n      0x00\n        /* \"contracts/PriceConvertor.sol\":525:541  uint256 ethPrice */\n      dup1\n        /* \"contracts/PriceConvertor.sol\":544:554  getPrice() */\n      tag_71\n        /* \"contracts/PriceConvertor.sol\":544:552  getPrice */\n      tag_72\n        /* \"contracts/PriceConvertor.sol\":544:554  getPrice() */\n      jump\t// in\n    tag_71:\n        /* \"contracts/PriceConvertor.sol\":525:554  uint256 ethPrice = getPrice() */\n      swap1\n      pop\n        /* \"contracts/PriceConvertor.sol\":565:586  uint256 ethValueInUSD */\n      0x00\n        /* \"contracts/PriceConvertor.sol\":614:618  1e18 */\n      0x0de0b6b3a7640000\n        /* \"contracts/PriceConvertor.sol\":602:610  ethPrice */\n      dup3\n        /* \"contracts/PriceConvertor.sol\":590:599  ethAmount */\n      dup6\n        /* \"contracts/PriceConvertor.sol\":590:610  ethAmount * ethPrice */\n      tag_73\n      swap2\n      swap1\n      tag_74\n      jump\t// in\n    tag_73:\n        /* \"contracts/PriceConvertor.sol\":589:618  (ethAmount * ethPrice) / 1e18 */\n      tag_75\n      swap2\n      swap1\n      tag_76\n      jump\t// in\n    tag_75:\n        /* \"contracts/PriceConvertor.sol\":565:618  uint256 ethValueInUSD = (ethAmount * ethPrice) / 1e18 */\n      swap1\n      pop\n        /* \"contracts/PriceConvertor.sol\":636:649  ethValueInUSD */\n      dup1\n        /* \"contracts/PriceConvertor.sol\":629:649  return ethValueInUSD */\n      swap3\n      pop\n      pop\n      pop\n        /* \"contracts/PriceConvertor.sol\":435:656  function getConversationRate(uint256 ethAmount) internal view returns(uint256) {... */\n      swap2\n      swap1\n      pop\n      jump\t// out\n        /* \"contracts/PriceConvertor.sol\":166:429  function getPrice() internal view returns (uint256) {... */\n    tag_72:\n        /* \"contracts/PriceConvertor.sol\":209:216  uint256 */\n      0x00\n        /* \"contracts/PriceConvertor.sol\":228:259  AggregatorV3Interface priceFeed */\n      dup1\n        /* \"contracts/PriceConvertor.sol\":284:326  0x694AA1769357215DE4FAC081bf1f309aDC325306 */\n      0x694aa1769357215de4fac081bf1f309adc325306\n        /* \"contracts/PriceConvertor.sol\":228:327  AggregatorV3Interface priceFeed = AggregatorV3Interface(0x694AA1769357215DE4FAC081bf1f309aDC325306) */\n      swap1\n      pop\n        /* \"contracts/PriceConvertor.sol\":340:349  int price */\n      0x00\n        /* \"contracts/PriceConvertor.sol\":356:365  priceFeed */\n      dup2\n        /* \"contracts/PriceConvertor.sol\":356:381  priceFeed.latestRoundData */\n      0xffffffffffffffffffffffffffffffffffffffff\n      and\n      0xfeaf968c\n        /* \"contracts/PriceConvertor.sol\":356:383  priceFeed.latestRoundData() */\n      mload(0x40)\n      dup2\n      0xffffffff\n      and\n      0xe0\n      shl\n      dup2\n      mstore\n      0x04\n      add\n      0xa0\n      mload(0x40)\n      dup1\n      dup4\n      sub\n      dup2\n      dup7\n      gas\n      staticcall\n      iszero\n      dup1\n      iszero\n      tag_79\n      jumpi\n      returndatasize\n      0x00\n      dup1\n      returndatacopy\n      revert(0x00, returndatasize)\n    tag_79:\n      pop\n      pop\n      pop\n      pop\n      mload(0x40)\n      returndatasize\n      not(0x1f)\n      0x1f\n      dup3\n      add\n      and\n      dup3\n      add\n      dup1\n      0x40\n      mstore\n      pop\n      dup2\n      add\n      swap1\n      tag_80\n      swap2\n      swap1\n      tag_81\n      jump\t// in\n    tag_80:\n        /* \"contracts/PriceConvertor.sol\":337:383  (, int price,,,) = priceFeed.latestRoundData() */\n      pop\n      pop\n      pop\n      swap2\n      pop\n      pop\n        /* \"contracts/PriceConvertor.sol\":416:421  price */\n      dup1\n        /* \"contracts/PriceConvertor.sol\":409:413  1e18 */\n      0x0de0b6b3a7640000\n        /* \"contracts/PriceConvertor.sol\":409:421  1e18 * price */\n      tag_82\n      swap2\n      swap1\n      tag_83\n      jump\t// in\n    tag_82:\n        /* \"contracts/PriceConvertor.sol\":393:422  return  uint256(1e18 * price) */\n      swap3\n      pop\n      pop\n      pop\n        /* \"contracts/PriceConvertor.sol\":166:429  function getPrice() internal view returns (uint256) {... */\n      swap1\n      jump\t// out\n    tag_52:\n      dup3\n      dup1\n      sload\n      dup3\n      dup3\n      sstore\n      swap1\n      0x00\n      mstore\n      keccak256(0x00, 0x20)\n      swap1\n      dup2\n      add\n      swap3\n      dup3\n      iszero\n      tag_84\n      jumpi\n      swap2\n      0x20\n      mul\n      dup3\n      add\n    tag_85:\n      dup3\n      dup2\n      gt\n      iszero\n      tag_86\n      jumpi\n      dup3\n      mload\n      dup3\n      exp(0x0100, 0x00)\n      dup2\n      sload\n      dup2\n      0xffffffffffffffffffffffffffffffffffffffff\n      mul\n      not\n      and\n      swap1\n      dup4\n      0xffffffffffffffffffffffffffffffffffffffff\n      and\n      mul\n      or\n      swap1\n      sstore\n      pop\n      swap2\n      0x20\n      add\n      swap2\n      swap1\n      0x01\n      add\n      swap1\n      jump(tag_85)\n    tag_86:\n    tag_84:\n      pop\n      swap1\n      pop\n      tag_87\n      swap2\n      swap1\n      tag_88\n      jump\t// in\n    tag_87:\n      pop\n      swap1\n      jump\t// out\n    tag_88:\n    tag_89:\n      dup1\n      dup3\n      gt\n      iszero\n      tag_90\n      jumpi\n      0x00\n      dup2\n      0x00\n      swap1\n      sstore\n      pop\n      0x01\n      add\n      jump(tag_89)\n    tag_90:\n      pop\n      swap1\n      jump\t// out\n        /* \"#utility.yul\":7:84   */\n    tag_91:\n        /* \"#utility.yul\":44:51   */\n      0x00\n        /* \"#utility.yul\":73:78   */\n      dup2\n        /* \"#utility.yul\":62:78   */\n      swap1\n      pop\n        /* \"#utility.yul\":7:84   */\n      swap2\n      swap1\n      pop\n      jump\t// out\n        /* \"#utility.yul\":90:208   */\n    tag_92:\n        /* \"#utility.yul\":177:201   */\n      tag_125\n        /* \"#utility.yul\":195:200   */\n      dup2\n        /* \"#utility.yul\":177:201   */\n      tag_91\n      jump\t// in\n    tag_125:\n        /* \"#utility.yul\":172:175   */\n      dup3\n        /* \"#utility.yul\":165:202   */\n      mstore\n        /* \"#utility.yul\":90:208   */\n      pop\n      pop\n      jump\t// out\n        /* \"#utility.yul\":214:436   */\n    tag_12:\n        /* \"#utility.yul\":307:311   */\n      0x00\n        /* \"#utility.yul\":345:347   */\n      0x20\n        /* \"#utility.yul\":334:343   */\n      dup3\n        /* \"#utility.yul\":330:348   */\n      add\n        /* \"#utility.yul\":322:348   */\n      swap1\n      pop\n        /* \"#utility.yul\":358:429   */\n      tag_127\n        /* \"#utility.yul\":426:427   */\n      0x00\n        /* \"#utility.yul\":415:424   */\n      dup4\n        /* \"#utility.yul\":411:428   */\n      add\n        /* \"#utility.yul\":402:408   */\n      dup5\n        /* \"#utility.yul\":358:429   */\n      tag_92\n      jump\t// in\n    tag_127:\n        /* \"#utility.yul\":214:436   */\n      swap3\n      swap2\n      pop\n      pop\n      jump\t// out\n        /* \"#utility.yul\":442:568   */\n    tag_93:\n        /* \"#utility.yul\":479:486   */\n      0x00\n        /* \"#utility.yul\":519:561   */\n      0xffffffffffffffffffffffffffffffffffffffff\n        /* \"#utility.yul\":512:517   */\n      dup3\n        /* \"#utility.yul\":508:562   */\n      and\n        /* \"#utility.yul\":497:562   */\n      swap1\n      pop\n        /* \"#utility.yul\":442:568   */\n      swap2\n      swap1\n      pop\n      jump\t// out\n        /* \"#utility.yul\":574:670   */\n    tag_94:\n        /* \"#utility.yul\":611:618   */\n      0x00\n        /* \"#utility.yul\":640:664   */\n      tag_130\n        /* \"#utility.yul\":658:663   */\n      dup3\n        /* \"#utility.yul\":640:664   */\n      tag_93\n      jump\t// in\n    tag_130:\n        /* \"#utility.yul\":629:664   */\n      swap1\n      pop\n        /* \"#utility.yul\":574:670   */\n      swap2\n      swap1\n      pop\n      jump\t// out\n        /* \"#utility.yul\":676:794   */\n    tag_95:\n        /* \"#utility.yul\":763:787   */\n      tag_132\n        /* \"#utility.yul\":781:786   */\n      dup2\n        /* \"#utility.yul\":763:787   */\n      tag_94\n      jump\t// in\n    tag_132:\n        /* \"#utility.yul\":758:761   */\n      dup3\n        /* \"#utility.yul\":751:788   */\n      mstore\n        /* \"#utility.yul\":676:794   */\n      pop\n      pop\n      jump\t// out\n        /* \"#utility.yul\":800:1022   */\n    tag_20:\n        /* \"#utility.yul\":893:897   */\n      0x00\n        /* \"#utility.yul\":931:933   */\n      0x20\n        /* \"#utility.yul\":920:929   */\n      dup3\n        /* \"#utility.yul\":916:934   */\n      add\n        /* \"#utility.yul\":908:934   */\n      swap1\n      pop\n        /* \"#utility.yul\":944:1015   */\n      tag_134\n        /* \"#utility.yul\":1012:1013   */\n      0x00\n        /* \"#utility.yul\":1001:1010   */\n      dup4\n        /* \"#utility.yul\":997:1014   */\n      add\n        /* \"#utility.yul\":988:994   */\n      dup5\n        /* \"#utility.yul\":944:1015   */\n      tag_95\n      jump\t// in\n    tag_134:\n        /* \"#utility.yul\":800:1022   */\n      swap3\n      swap2\n      pop\n      pop\n      jump\t// out\n        /* \"#utility.yul\":1109:1226   */\n    tag_97:\n        /* \"#utility.yul\":1218:1219   */\n      0x00\n        /* \"#utility.yul\":1215:1216   */\n      dup1\n        /* \"#utility.yul\":1208:1220   */\n      revert\n        /* \"#utility.yul\":1355:1477   */\n    tag_99:\n        /* \"#utility.yul\":1428:1452   */\n      tag_139\n        /* \"#utility.yul\":1446:1451   */\n      dup2\n        /* \"#utility.yul\":1428:1452   */\n      tag_94\n      jump\t// in\n    tag_139:\n        /* \"#utility.yul\":1421:1426   */\n      dup2\n        /* \"#utility.yul\":1418:1453   */\n      eq\n        /* \"#utility.yul\":1408:1471   */\n      tag_140\n      jumpi\n        /* \"#utility.yul\":1467:1468   */\n      0x00\n        /* \"#utility.yul\":1464:1465   */\n      dup1\n        /* \"#utility.yul\":1457:1469   */\n      revert\n        /* \"#utility.yul\":1408:1471   */\n    tag_140:\n        /* \"#utility.yul\":1355:1477   */\n      pop\n      jump\t// out\n        /* \"#utility.yul\":1483:1622   */\n    tag_100:\n        /* \"#utility.yul\":1529:1534   */\n      0x00\n        /* \"#utility.yul\":1567:1573   */\n      dup2\n        /* \"#utility.yul\":1554:1574   */\n      calldataload\n        /* \"#utility.yul\":1545:1574   */\n      swap1\n      pop\n        /* \"#utility.yul\":1583:1616   */\n      tag_142\n        /* \"#utility.yul\":1610:1615   */\n      dup2\n        /* \"#utility.yul\":1583:1616   */\n      tag_99\n      jump\t// in\n    tag_142:\n        /* \"#utility.yul\":1483:1622   */\n      swap3\n      swap2\n      pop\n      pop\n      jump\t// out\n        /* \"#utility.yul\":1628:1957   */\n    tag_26:\n        /* \"#utility.yul\":1687:1693   */\n      0x00\n        /* \"#utility.yul\":1736:1738   */\n      0x20\n        /* \"#utility.yul\":1724:1733   */\n      dup3\n        /* \"#utility.yul\":1715:1722   */\n      dup5\n        /* \"#utility.yul\":1711:1734   */\n      sub\n        /* \"#utility.yul\":1707:1739   */\n      slt\n        /* \"#utility.yul\":1704:1823   */\n      iszero\n      tag_144\n      jumpi\n        /* \"#utility.yul\":1742:1821   */\n      tag_145\n      tag_97\n      jump\t// in\n    tag_145:\n        /* \"#utility.yul\":1704:1823   */\n    tag_144:\n        /* \"#utility.yul\":1862:1863   */\n      0x00\n        /* \"#utility.yul\":1887:1940   */\n      tag_146\n        /* \"#utility.yul\":1932:1939   */\n      dup5\n        /* \"#utility.yul\":1923:1929   */\n      dup3\n        /* \"#utility.yul\":1912:1921   */\n      dup6\n        /* \"#utility.yul\":1908:1930   */\n      add\n        /* \"#utility.yul\":1887:1940   */\n      tag_100\n      jump\t// in\n    tag_146:\n        /* \"#utility.yul\":1877:1940   */\n      swap2\n      pop\n        /* \"#utility.yul\":1833:1950   */\n      pop\n        /* \"#utility.yul\":1628:1957   */\n      swap3\n      swap2\n      pop\n      pop\n      jump\t// out\n        /* \"#utility.yul\":1963:2085   */\n    tag_101:\n        /* \"#utility.yul\":2036:2060   */\n      tag_148\n        /* \"#utility.yul\":2054:2059   */\n      dup2\n        /* \"#utility.yul\":2036:2060   */\n      tag_91\n      jump\t// in\n    tag_148:\n        /* \"#utility.yul\":2029:2034   */\n      dup2\n        /* \"#utility.yul\":2026:2061   */\n      eq\n        /* \"#utility.yul\":2016:2079   */\n      tag_149\n      jumpi\n        /* \"#utility.yul\":2075:2076   */\n      0x00\n        /* \"#utility.yul\":2072:2073   */\n      dup1\n        /* \"#utility.yul\":2065:2077   */\n      revert\n        /* \"#utility.yul\":2016:2079   */\n    tag_149:\n        /* \"#utility.yul\":1963:2085   */\n      pop\n      jump\t// out\n        /* \"#utility.yul\":2091:2230   */\n    tag_102:\n        /* \"#utility.yul\":2137:2142   */\n      0x00\n        /* \"#utility.yul\":2175:2181   */\n      dup2\n        /* \"#utility.yul\":2162:2182   */\n      calldataload\n        /* \"#utility.yul\":2153:2182   */\n      swap1\n      pop\n        /* \"#utility.yul\":2191:2224   */\n      tag_151\n        /* \"#utility.yul\":2218:2223   */\n      dup2\n        /* \"#utility.yul\":2191:2224   */\n      tag_101\n      jump\t// in\n    tag_151:\n        /* \"#utility.yul\":2091:2230   */\n      swap3\n      swap2\n      pop\n      pop\n      jump\t// out\n        /* \"#utility.yul\":2236:2565   */\n    tag_32:\n        /* \"#utility.yul\":2295:2301   */\n      0x00\n        /* \"#utility.yul\":2344:2346   */\n      0x20\n        /* \"#utility.yul\":2332:2341   */\n      dup3\n        /* \"#utility.yul\":2323:2330   */\n      dup5\n        /* \"#utility.yul\":2319:2342   */\n      sub\n        /* \"#utility.yul\":2315:2347   */\n      slt\n        /* \"#utility.yul\":2312:2431   */\n      iszero\n      tag_153\n      jumpi\n        /* \"#utility.yul\":2350:2429   */\n      tag_154\n      tag_97\n      jump\t// in\n    tag_154:\n        /* \"#utility.yul\":2312:2431   */\n    tag_153:\n        /* \"#utility.yul\":2470:2471   */\n      0x00\n        /* \"#utility.yul\":2495:2548   */\n      tag_155\n        /* \"#utility.yul\":2540:2547   */\n      dup5\n        /* \"#utility.yul\":2531:2537   */\n      dup3\n        /* \"#utility.yul\":2520:2529   */\n      dup6\n        /* \"#utility.yul\":2516:2538   */\n      add\n        /* \"#utility.yul\":2495:2548   */\n      tag_102\n      jump\t// in\n    tag_155:\n        /* \"#utility.yul\":2485:2548   */\n      swap2\n      pop\n        /* \"#utility.yul\":2441:2558   */\n      pop\n        /* \"#utility.yul\":2236:2565   */\n      swap3\n      swap2\n      pop\n      pop\n      jump\t// out\n        /* \"#utility.yul\":2571:2740   */\n    tag_103:\n        /* \"#utility.yul\":2655:2666   */\n      0x00\n        /* \"#utility.yul\":2689:2695   */\n      dup3\n        /* \"#utility.yul\":2684:2687   */\n      dup3\n        /* \"#utility.yul\":2677:2696   */\n      mstore\n        /* \"#utility.yul\":2729:2733   */\n      0x20\n        /* \"#utility.yul\":2724:2727   */\n      dup3\n        /* \"#utility.yul\":2720:2734   */\n      add\n        /* \"#utility.yul\":2705:2734   */\n      swap1\n      pop\n        /* \"#utility.yul\":2571:2740   */\n      swap3\n      swap2\n      pop\n      pop\n      jump\t// out\n        /* \"#utility.yul\":2746:2915   */\n    tag_104:\n        /* \"#utility.yul\":2886:2907   */\n      0x53656e646572206973206e6f74206f776e657200000000000000000000000000\n        /* \"#utility.yul\":2882:2883   */\n      0x00\n        /* \"#utility.yul\":2874:2880   */\n      dup3\n        /* \"#utility.yul\":2870:2884   */\n      add\n        /* \"#utility.yul\":2863:2908   */\n      mstore\n        /* \"#utility.yul\":2746:2915   */\n      pop\n      jump\t// out\n        /* \"#utility.yul\":2921:3287   */\n    tag_105:\n        /* \"#utility.yul\":3063:3066   */\n      0x00\n        /* \"#utility.yul\":3084:3151   */\n      tag_159\n        /* \"#utility.yul\":3148:3150   */\n      0x13\n        /* \"#utility.yul\":3143:3146   */\n      dup4\n        /* \"#utility.yul\":3084:3151   */\n      tag_103\n      jump\t// in\n    tag_159:\n        /* \"#utility.yul\":3077:3151   */\n      swap2\n      pop\n        /* \"#utility.yul\":3160:3253   */\n      tag_160\n        /* \"#utility.yul\":3249:3252   */\n      dup3\n        /* \"#utility.yul\":3160:3253   */\n      tag_104\n      jump\t// in\n    tag_160:\n        /* \"#utility.yul\":3278:3280   */\n      0x20\n        /* \"#utility.yul\":3273:3276   */\n      dup3\n        /* \"#utility.yul\":3269:3281   */\n      add\n        /* \"#utility.yul\":3262:3281   */\n      swap1\n      pop\n        /* \"#utility.yul\":2921:3287   */\n      swap2\n      swap1\n      pop\n      jump\t// out\n        /* \"#utility.yul\":3293:3712   */\n    tag_38:\n        /* \"#utility.yul\":3459:3463   */\n      0x00\n        /* \"#utility.yul\":3497:3499   */\n      0x20\n        /* \"#utility.yul\":3486:3495   */\n      dup3\n        /* \"#utility.yul\":3482:3500   */\n      add\n        /* \"#utility.yul\":3474:3500   */\n      swap1\n      pop\n        /* \"#utility.yul\":3546:3555   */\n      dup2\n        /* \"#utility.yul\":3540:3544   */\n      dup2\n        /* \"#utility.yul\":3536:3556   */\n      sub\n        /* \"#utility.yul\":3532:3533   */\n      0x00\n        /* \"#utility.yul\":3521:3530   */\n      dup4\n        /* \"#utility.yul\":3517:3534   */\n      add\n        /* \"#utility.yul\":3510:3557   */\n      mstore\n        /* \"#utility.yul\":3574:3705   */\n      tag_162\n        /* \"#utility.yul\":3700:3704   */\n      dup2\n        /* \"#utility.yul\":3574:3705   */\n      tag_105\n      jump\t// in\n    tag_162:\n        /* \"#utility.yul\":3566:3705   */\n      swap1\n      pop\n        /* \"#utility.yul\":3293:3712   */\n      swap2\n      swap1\n      pop\n      jump\t// out\n        /* \"#utility.yul\":3718:3898   */\n    tag_45:\n        /* \"#utility.yul\":3766:3843   */\n      0x4e487b7100000000000000000000000000000000000000000000000000000000\n        /* \"#utility.yul\":3763:3764   */\n      0x00\n        /* \"#utility.yul\":3756:3844   */\n      mstore\n        /* \"#utility.yul\":3863:3867   */\n      0x32\n        /* \"#utility.yul\":3860:3861   */\n      0x04\n        /* \"#utility.yul\":3853:3868   */\n      mstore\n        /* \"#utility.yul\":3887:3891   */\n      0x24\n        /* \"#utility.yul\":3884:3885   */\n      0x00\n        /* \"#utility.yul\":3877:3892   */\n      revert\n        /* \"#utility.yul\":3904:4084   */\n    tag_49:\n        /* \"#utility.yul\":3952:4029   */\n      0x4e487b7100000000000000000000000000000000000000000000000000000000\n        /* \"#utility.yul\":3949:3950   */\n      0x00\n        /* \"#utility.yul\":3942:4030   */\n      mstore\n        /* \"#utility.yul\":4049:4053   */\n      0x41\n        /* \"#utility.yul\":4046:4047   */\n      0x04\n        /* \"#utility.yul\":4039:4054   */\n      mstore\n        /* \"#utility.yul\":4073:4077   */\n      0x24\n        /* \"#utility.yul\":4070:4071   */\n      0x00\n        /* \"#utility.yul\":4063:4078   */\n      revert\n        /* \"#utility.yul\":4090:4237   */\n    tag_106:\n        /* \"#utility.yul\":4191:4202   */\n      0x00\n        /* \"#utility.yul\":4228:4231   */\n      dup2\n        /* \"#utility.yul\":4213:4231   */\n      swap1\n      pop\n        /* \"#utility.yul\":4090:4237   */\n      swap3\n      swap2\n      pop\n      pop\n      jump\t// out\n        /* \"#utility.yul\":4243:4357   */\n    tag_107:\n      pop\n      jump\t// out\n        /* \"#utility.yul\":4363:4761   */\n    tag_108:\n        /* \"#utility.yul\":4522:4525   */\n      0x00\n        /* \"#utility.yul\":4543:4626   */\n      tag_168\n        /* \"#utility.yul\":4624:4625   */\n      0x00\n        /* \"#utility.yul\":4619:4622   */\n      dup4\n        /* \"#utility.yul\":4543:4626   */\n      tag_106\n      jump\t// in\n    tag_168:\n        /* \"#utility.yul\":4536:4626   */\n      swap2\n      pop\n        /* \"#utility.yul\":4635:4728   */\n      tag_169\n        /* \"#utility.yul\":4724:4727   */\n      dup3\n        /* \"#utility.yul\":4635:4728   */\n      tag_107\n      jump\t// in\n    tag_169:\n        /* \"#utility.yul\":4753:4754   */\n      0x00\n        /* \"#utility.yul\":4748:4751   */\n      dup3\n        /* \"#utility.yul\":4744:4755   */\n      add\n        /* \"#utility.yul\":4737:4755   */\n      swap1\n      pop\n        /* \"#utility.yul\":4363:4761   */\n      swap2\n      swap1\n      pop\n      jump\t// out\n        /* \"#utility.yul\":4767:5146   */\n    tag_54:\n        /* \"#utility.yul\":4951:4954   */\n      0x00\n        /* \"#utility.yul\":4973:5120   */\n      tag_171\n        /* \"#utility.yul\":5116:5119   */\n      dup3\n        /* \"#utility.yul\":4973:5120   */\n      tag_108\n      jump\t// in\n    tag_171:\n        /* \"#utility.yul\":4966:5120   */\n      swap2\n      pop\n        /* \"#utility.yul\":5137:5140   */\n      dup2\n        /* \"#utility.yul\":5130:5140   */\n      swap1\n      pop\n        /* \"#utility.yul\":4767:5146   */\n      swap2\n      swap1\n      pop\n      jump\t// out\n        /* \"#utility.yul\":5152:5313   */\n    tag_109:\n        /* \"#utility.yul\":5292:5305   */\n      0x43616c6c206661696c6564000000000000000000000000000000000000000000\n        /* \"#utility.yul\":5288:5289   */\n      0x00\n        /* \"#utility.yul\":5280:5286   */\n      dup3\n        /* \"#utility.yul\":5276:5290   */\n      add\n        /* \"#utility.yul\":5269:5306   */\n      mstore\n        /* \"#utility.yul\":5152:5313   */\n      pop\n      jump\t// out\n        /* \"#utility.yul\":5319:5685   */\n    tag_110:\n        /* \"#utility.yul\":5461:5464   */\n      0x00\n        /* \"#utility.yul\":5482:5549   */\n      tag_174\n        /* \"#utility.yul\":5546:5548   */\n      0x0b\n        /* \"#utility.yul\":5541:5544   */\n      dup4\n        /* \"#utility.yul\":5482:5549   */\n      tag_103\n      jump\t// in\n    tag_174:\n        /* \"#utility.yul\":5475:5549   */\n      swap2\n      pop\n        /* \"#utility.yul\":5558:5651   */\n      tag_175\n        /* \"#utility.yul\":5647:5650   */\n      dup3\n        /* \"#utility.yul\":5558:5651   */\n      tag_109\n      jump\t// in\n    tag_175:\n        /* \"#utility.yul\":5676:5678   */\n      0x20\n        /* \"#utility.yul\":5671:5674   */\n      dup3\n        /* \"#utility.yul\":5667:5679   */\n      add\n        /* \"#utility.yul\":5660:5679   */\n      swap1\n      pop\n        /* \"#utility.yul\":5319:5685   */\n      swap2\n      swap1\n      pop\n      jump\t// out\n        /* \"#utility.yul\":5691:6110   */\n    tag_60:\n        /* \"#utility.yul\":5857:5861   */\n      0x00\n        /* \"#utility.yul\":5895:5897   */\n      0x20\n        /* \"#utility.yul\":5884:5893   */\n      dup3\n        /* \"#utility.yul\":5880:5898   */\n      add\n        /* \"#utility.yul\":5872:5898   */\n      swap1\n      pop\n        /* \"#utility.yul\":5944:5953   */\n      dup2\n        /* \"#utility.yul\":5938:5942   */\n      dup2\n        /* \"#utility.yul\":5934:5954   */\n      sub\n        /* \"#utility.yul\":5930:5931   */\n      0x00\n        /* \"#utility.yul\":5919:5928   */\n      dup4\n        /* \"#utility.yul\":5915:5932   */\n      add\n        /* \"#utility.yul\":5908:5955   */\n      mstore\n        /* \"#utility.yul\":5972:6103   */\n      tag_177\n        /* \"#utility.yul\":6098:6102   */\n      dup2\n        /* \"#utility.yul\":5972:6103   */\n      tag_110\n      jump\t// in\n    tag_177:\n        /* \"#utility.yul\":5964:6103   */\n      swap1\n      pop\n        /* \"#utility.yul\":5691:6110   */\n      swap2\n      swap1\n      pop\n      jump\t// out\n        /* \"#utility.yul\":6116:6283   */\n    tag_111:\n        /* \"#utility.yul\":6256:6275   */\n      0x4469646e742073656e6420656e6f756768000000000000000000000000000000\n        /* \"#utility.yul\":6252:6253   */\n      0x00\n        /* \"#utility.yul\":6244:6250   */\n      dup3\n        /* \"#utility.yul\":6240:6254   */\n      add\n        /* \"#utility.yul\":6233:6276   */\n      mstore\n        /* \"#utility.yul\":6116:6283   */\n      pop\n      jump\t// out\n        /* \"#utility.yul\":6289:6655   */\n    tag_112:\n        /* \"#utility.yul\":6431:6434   */\n      0x00\n        /* \"#utility.yul\":6452:6519   */\n      tag_180\n        /* \"#utility.yul\":6516:6518   */\n      0x11\n        /* \"#utility.yul\":6511:6514   */\n      dup4\n        /* \"#utility.yul\":6452:6519   */\n      tag_103\n      jump\t// in\n    tag_180:\n        /* \"#utility.yul\":6445:6519   */\n      swap2\n      pop\n        /* \"#utility.yul\":6528:6621   */\n      tag_181\n        /* \"#utility.yul\":6617:6620   */\n      dup3\n        /* \"#utility.yul\":6528:6621   */\n      tag_111\n      jump\t// in\n    tag_181:\n        /* \"#utility.yul\":6646:6648   */\n      0x20\n        /* \"#utility.yul\":6641:6644   */\n      dup3\n        /* \"#utility.yul\":6637:6649   */\n      add\n        /* \"#utility.yul\":6630:6649   */\n      swap1\n      pop\n        /* \"#utility.yul\":6289:6655   */\n      swap2\n      swap1\n      pop\n      jump\t// out\n        /* \"#utility.yul\":6661:7080   */\n    tag_66:\n        /* \"#utility.yul\":6827:6831   */\n      0x00\n        /* \"#utility.yul\":6865:6867   */\n      0x20\n        /* \"#utility.yul\":6854:6863   */\n      dup3\n        /* \"#utility.yul\":6850:6868   */\n      add\n        /* \"#utility.yul\":6842:6868   */\n      swap1\n      pop\n        /* \"#utility.yul\":6914:6923   */\n      dup2\n        /* \"#utility.yul\":6908:6912   */\n      dup2\n        /* \"#utility.yul\":6904:6924   */\n      sub\n        /* \"#utility.yul\":6900:6901   */\n      0x00\n        /* \"#utility.yul\":6889:6898   */\n      dup4\n        /* \"#utility.yul\":6885:6902   */\n      add\n        /* \"#utility.yul\":6878:6925   */\n      mstore\n        /* \"#utility.yul\":6942:7073   */\n      tag_183\n        /* \"#utility.yul\":7068:7072   */\n      dup2\n        /* \"#utility.yul\":6942:7073   */\n      tag_112\n      jump\t// in\n    tag_183:\n        /* \"#utility.yul\":6934:7073   */\n      swap1\n      pop\n        /* \"#utility.yul\":6661:7080   */\n      swap2\n      swap1\n      pop\n      jump\t// out\n        /* \"#utility.yul\":7086:7266   */\n    tag_113:\n        /* \"#utility.yul\":7134:7211   */\n      0x4e487b7100000000000000000000000000000000000000000000000000000000\n        /* \"#utility.yul\":7131:7132   */\n      0x00\n        /* \"#utility.yul\":7124:7212   */\n      mstore\n        /* \"#utility.yul\":7231:7235   */\n      0x11\n        /* \"#utility.yul\":7228:7229   */\n      0x04\n        /* \"#utility.yul\":7221:7236   */\n      mstore\n        /* \"#utility.yul\":7255:7259   */\n      0x24\n        /* \"#utility.yul\":7252:7253   */\n      0x00\n        /* \"#utility.yul\":7245:7260   */\n      revert\n        /* \"#utility.yul\":7272:7682   */\n    tag_74:\n        /* \"#utility.yul\":7312:7319   */\n      0x00\n        /* \"#utility.yul\":7335:7355   */\n      tag_186\n        /* \"#utility.yul\":7353:7354   */\n      dup3\n        /* \"#utility.yul\":7335:7355   */\n      tag_91\n      jump\t// in\n    tag_186:\n        /* \"#utility.yul\":7330:7355   */\n      swap2\n      pop\n        /* \"#utility.yul\":7369:7389   */\n      tag_187\n        /* \"#utility.yul\":7387:7388   */\n      dup4\n        /* \"#utility.yul\":7369:7389   */\n      tag_91\n      jump\t// in\n    tag_187:\n        /* \"#utility.yul\":7364:7389   */\n      swap3\n      pop\n        /* \"#utility.yul\":7424:7425   */\n      dup3\n        /* \"#utility.yul\":7421:7422   */\n      dup3\n        /* \"#utility.yul\":7417:7426   */\n      mul\n        /* \"#utility.yul\":7446:7476   */\n      tag_188\n        /* \"#utility.yul\":7464:7475   */\n      dup2\n        /* \"#utility.yul\":7446:7476   */\n      tag_91\n      jump\t// in\n    tag_188:\n        /* \"#utility.yul\":7435:7476   */\n      swap2\n      pop\n        /* \"#utility.yul\":7625:7626   */\n      dup3\n        /* \"#utility.yul\":7616:7623   */\n      dup3\n        /* \"#utility.yul\":7612:7627   */\n      div\n        /* \"#utility.yul\":7609:7610   */\n      dup5\n        /* \"#utility.yul\":7606:7628   */\n      eq\n        /* \"#utility.yul\":7586:7587   */\n      dup4\n        /* \"#utility.yul\":7579:7588   */\n      iszero\n        /* \"#utility.yul\":7559:7642   */\n      or\n        /* \"#utility.yul\":7536:7675   */\n      tag_189\n      jumpi\n        /* \"#utility.yul\":7655:7673   */\n      tag_190\n      tag_113\n      jump\t// in\n    tag_190:\n        /* \"#utility.yul\":7536:7675   */\n    tag_189:\n        /* \"#utility.yul\":7320:7682   */\n      pop\n        /* \"#utility.yul\":7272:7682   */\n      swap3\n      swap2\n      pop\n      pop\n      jump\t// out\n        /* \"#utility.yul\":7688:7868   */\n    tag_114:\n        /* \"#utility.yul\":7736:7813   */\n      0x4e487b7100000000000000000000000000000000000000000000000000000000\n        /* \"#utility.yul\":7733:7734   */\n      0x00\n        /* \"#utility.yul\":7726:7814   */\n      mstore\n        /* \"#utility.yul\":7833:7837   */\n      0x12\n        /* \"#utility.yul\":7830:7831   */\n      0x04\n        /* \"#utility.yul\":7823:7838   */\n      mstore\n        /* \"#utility.yul\":7857:7861   */\n      0x24\n        /* \"#utility.yul\":7854:7855   */\n      0x00\n        /* \"#utility.yul\":7847:7862   */\n      revert\n        /* \"#utility.yul\":7874:8059   */\n    tag_76:\n        /* \"#utility.yul\":7914:7915   */\n      0x00\n        /* \"#utility.yul\":7931:7951   */\n      tag_193\n        /* \"#utility.yul\":7949:7950   */\n      dup3\n        /* \"#utility.yul\":7931:7951   */\n      tag_91\n      jump\t// in\n    tag_193:\n        /* \"#utility.yul\":7926:7951   */\n      swap2\n      pop\n        /* \"#utility.yul\":7965:7985   */\n      tag_194\n        /* \"#utility.yul\":7983:7984   */\n      dup4\n        /* \"#utility.yul\":7965:7985   */\n      tag_91\n      jump\t// in\n    tag_194:\n        /* \"#utility.yul\":7960:7985   */\n      swap3\n      pop\n        /* \"#utility.yul\":8004:8005   */\n      dup3\n        /* \"#utility.yul\":7994:8029   */\n      tag_195\n      jumpi\n        /* \"#utility.yul\":8009:8027   */\n      tag_196\n      tag_114\n      jump\t// in\n    tag_196:\n        /* \"#utility.yul\":7994:8029   */\n    tag_195:\n        /* \"#utility.yul\":8051:8052   */\n      dup3\n        /* \"#utility.yul\":8048:8049   */\n      dup3\n        /* \"#utility.yul\":8044:8053   */\n      div\n        /* \"#utility.yul\":8039:8053   */\n      swap1\n      pop\n        /* \"#utility.yul\":7874:8059   */\n      swap3\n      swap2\n      pop\n      pop\n      jump\t// out\n        /* \"#utility.yul\":8065:8170   */\n    tag_115:\n        /* \"#utility.yul\":8101:8108   */\n      0x00\n        /* \"#utility.yul\":8141:8163   */\n      0xffffffffffffffffffff\n        /* \"#utility.yul\":8134:8139   */\n      dup3\n        /* \"#utility.yul\":8130:8164   */\n      and\n        /* \"#utility.yul\":8119:8164   */\n      swap1\n      pop\n        /* \"#utility.yul\":8065:8170   */\n      swap2\n      swap1\n      pop\n      jump\t// out\n        /* \"#utility.yul\":8176:8296   */\n    tag_116:\n        /* \"#utility.yul\":8248:8271   */\n      tag_199\n        /* \"#utility.yul\":8265:8270   */\n      dup2\n        /* \"#utility.yul\":8248:8271   */\n      tag_115\n      jump\t// in\n    tag_199:\n        /* \"#utility.yul\":8241:8246   */\n      dup2\n        /* \"#utility.yul\":8238:8272   */\n      eq\n        /* \"#utility.yul\":8228:8290   */\n      tag_200\n      jumpi\n        /* \"#utility.yul\":8286:8287   */\n      0x00\n        /* \"#utility.yul\":8283:8284   */\n      dup1\n        /* \"#utility.yul\":8276:8288   */\n      revert\n        /* \"#utility.yul\":8228:8290   */\n    tag_200:\n        /* \"#utility.yul\":8176:8296   */\n      pop\n      jump\t// out\n        /* \"#utility.yul\":8302:8443   */\n    tag_117:\n        /* \"#utility.yul\":8358:8363   */\n      0x00\n        /* \"#utility.yul\":8389:8395   */\n      dup2\n        /* \"#utility.yul\":8383:8396   */\n      mload\n        /* \"#utility.yul\":8374:8396   */\n      swap1\n      pop\n        /* \"#utility.yul\":8405:8437   */\n      tag_202\n        /* \"#utility.yul\":8431:8436   */\n      dup2\n        /* \"#utility.yul\":8405:8437   */\n      tag_116\n      jump\t// in\n    tag_202:\n        /* \"#utility.yul\":8302:8443   */\n      swap3\n      swap2\n      pop\n      pop\n      jump\t// out\n        /* \"#utility.yul\":8449:8525   */\n    tag_118:\n        /* \"#utility.yul\":8485:8492   */\n      0x00\n        /* \"#utility.yul\":8514:8519   */\n      dup2\n        /* \"#utility.yul\":8503:8519   */\n      swap1\n      pop\n        /* \"#utility.yul\":8449:8525   */\n      swap2\n      swap1\n      pop\n      jump\t// out\n        /* \"#utility.yul\":8531:8651   */\n    tag_119:\n        /* \"#utility.yul\":8603:8626   */\n      tag_205\n        /* \"#utility.yul\":8620:8625   */\n      dup2\n        /* \"#utility.yul\":8603:8626   */\n      tag_118\n      jump\t// in\n    tag_205:\n        /* \"#utility.yul\":8596:8601   */\n      dup2\n        /* \"#utility.yul\":8593:8627   */\n      eq\n        /* \"#utility.yul\":8583:8645   */\n      tag_206\n      jumpi\n        /* \"#utility.yul\":8641:8642   */\n      0x00\n        /* \"#utility.yul\":8638:8639   */\n      dup1\n        /* \"#utility.yul\":8631:8643   */\n      revert\n        /* \"#utility.yul\":8583:8645   */\n    tag_206:\n        /* \"#utility.yul\":8531:8651   */\n      pop\n      jump\t// out\n        /* \"#utility.yul\":8657:8798   */\n    tag_120:\n        /* \"#utility.yul\":8713:8718   */\n      0x00\n        /* \"#utility.yul\":8744:8750   */\n      dup2\n        /* \"#utility.yul\":8738:8751   */\n      mload\n        /* \"#utility.yul\":8729:8751   */\n      swap1\n      pop\n        /* \"#utility.yul\":8760:8792   */\n      tag_208\n        /* \"#utility.yul\":8786:8791   */\n      dup2\n        /* \"#utility.yul\":8760:8792   */\n      tag_119\n      jump\t// in\n    tag_208:\n        /* \"#utility.yul\":8657:8798   */\n      swap3\n      swap2\n      pop\n      pop\n      jump\t// out\n        /* \"#utility.yul\":8804:8947   */\n    tag_121:\n        /* \"#utility.yul\":8861:8866   */\n      0x00\n        /* \"#utility.yul\":8892:8898   */\n      dup2\n        /* \"#utility.yul\":8886:8899   */\n      mload\n        /* \"#utility.yul\":8877:8899   */\n      swap1\n      pop\n        /* \"#utility.yul\":8908:8941   */\n      tag_210\n        /* \"#utility.yul\":8935:8940   */\n      dup2\n        /* \"#utility.yul\":8908:8941   */\n      tag_101\n      jump\t// in\n    tag_210:\n        /* \"#utility.yul\":8804:8947   */\n      swap3\n      swap2\n      pop\n      pop\n      jump\t// out\n        /* \"#utility.yul\":8953:9924   */\n    tag_81:\n        /* \"#utility.yul\":9056:9062   */\n      0x00\n        /* \"#utility.yul\":9064:9070   */\n      dup1\n        /* \"#utility.yul\":9072:9078   */\n      0x00\n        /* \"#utility.yul\":9080:9086   */\n      dup1\n        /* \"#utility.yul\":9088:9094   */\n      0x00\n        /* \"#utility.yul\":9137:9140   */\n      0xa0\n        /* \"#utility.yul\":9125:9134   */\n      dup7\n        /* \"#utility.yul\":9116:9123   */\n      dup9\n        /* \"#utility.yul\":9112:9135   */\n      sub\n        /* \"#utility.yul\":9108:9141   */\n      slt\n        /* \"#utility.yul\":9105:9225   */\n      iszero\n      tag_212\n      jumpi\n        /* \"#utility.yul\":9144:9223   */\n      tag_213\n      tag_97\n      jump\t// in\n    tag_213:\n        /* \"#utility.yul\":9105:9225   */\n    tag_212:\n        /* \"#utility.yul\":9264:9265   */\n      0x00\n        /* \"#utility.yul\":9289:9352   */\n      tag_214\n        /* \"#utility.yul\":9344:9351   */\n      dup9\n        /* \"#utility.yul\":9335:9341   */\n      dup3\n        /* \"#utility.yul\":9324:9333   */\n      dup10\n        /* \"#utility.yul\":9320:9342   */\n      add\n        /* \"#utility.yul\":9289:9352   */\n      tag_117\n      jump\t// in\n    tag_214:\n        /* \"#utility.yul\":9279:9352   */\n      swap6\n      pop\n        /* \"#utility.yul\":9235:9362   */\n      pop\n        /* \"#utility.yul\":9401:9403   */\n      0x20\n        /* \"#utility.yul\":9427:9490   */\n      tag_215\n        /* \"#utility.yul\":9482:9489   */\n      dup9\n        /* \"#utility.yul\":9473:9479   */\n      dup3\n        /* \"#utility.yul\":9462:9471   */\n      dup10\n        /* \"#utility.yul\":9458:9480   */\n      add\n        /* \"#utility.yul\":9427:9490   */\n      tag_120\n      jump\t// in\n    tag_215:\n        /* \"#utility.yul\":9417:9490   */\n      swap5\n      pop\n        /* \"#utility.yul\":9372:9500   */\n      pop\n        /* \"#utility.yul\":9539:9541   */\n      0x40\n        /* \"#utility.yul\":9565:9629   */\n      tag_216\n        /* \"#utility.yul\":9621:9628   */\n      dup9\n        /* \"#utility.yul\":9612:9618   */\n      dup3\n        /* \"#utility.yul\":9601:9610   */\n      dup10\n        /* \"#utility.yul\":9597:9619   */\n      add\n        /* \"#utility.yul\":9565:9629   */\n      tag_121\n      jump\t// in\n    tag_216:\n        /* \"#utility.yul\":9555:9629   */\n      swap4\n      pop\n        /* \"#utility.yul\":9510:9639   */\n      pop\n        /* \"#utility.yul\":9678:9680   */\n      0x60\n        /* \"#utility.yul\":9704:9768   */\n      tag_217\n        /* \"#utility.yul\":9760:9767   */\n      dup9\n        /* \"#utility.yul\":9751:9757   */\n      dup3\n        /* \"#utility.yul\":9740:9749   */\n      dup10\n        /* \"#utility.yul\":9736:9758   */\n      add\n        /* \"#utility.yul\":9704:9768   */\n      tag_121\n      jump\t// in\n    tag_217:\n        /* \"#utility.yul\":9694:9768   */\n      swap3\n      pop\n        /* \"#utility.yul\":9649:9778   */\n      pop\n        /* \"#utility.yul\":9817:9820   */\n      0x80\n        /* \"#utility.yul\":9844:9907   */\n      tag_218\n        /* \"#utility.yul\":9899:9906   */\n      dup9\n        /* \"#utility.yul\":9890:9896   */\n      dup3\n        /* \"#utility.yul\":9879:9888   */\n      dup10\n        /* \"#utility.yul\":9875:9897   */\n      add\n        /* \"#utility.yul\":9844:9907   */\n      tag_117\n      jump\t// in\n    tag_218:\n        /* \"#utility.yul\":9834:9907   */\n      swap2\n      pop\n        /* \"#utility.yul\":9788:9917   */\n      pop\n        /* \"#utility.yul\":8953:9924   */\n      swap3\n      swap6\n      pop\n      swap3\n      swap6\n      swap1\n      swap4\n      pop\n      jump\t// out\n        /* \"#utility.yul\":9930:10486   */\n    tag_83:\n        /* \"#utility.yul\":9969:9976   */\n      0x00\n        /* \"#utility.yul\":9992:10011   */\n      tag_220\n        /* \"#utility.yul\":10009:10010   */\n      dup3\n        /* \"#utility.yul\":9992:10011   */\n      tag_118\n      jump\t// in\n    tag_220:\n        /* \"#utility.yul\":9987:10011   */\n      swap2\n      pop\n        /* \"#utility.yul\":10025:10044   */\n      tag_221\n        /* \"#utility.yul\":10042:10043   */\n      dup4\n        /* \"#utility.yul\":10025:10044   */\n      tag_118\n      jump\t// in\n    tag_221:\n        /* \"#utility.yul\":10020:10044   */\n      swap3\n      pop\n        /* \"#utility.yul\":10079:10080   */\n      dup3\n        /* \"#utility.yul\":10076:10077   */\n      dup3\n        /* \"#utility.yul\":10072:10081   */\n      mul\n        /* \"#utility.yul\":10101:10130   */\n      tag_222\n        /* \"#utility.yul\":10118:10129   */\n      dup2\n        /* \"#utility.yul\":10101:10130   */\n      tag_118\n      jump\t// in\n    tag_222:\n        /* \"#utility.yul\":10090:10130   */\n      swap2\n      pop\n        /* \"#utility.yul\":10188:10254   */\n      0x8000000000000000000000000000000000000000000000000000000000000000\n        /* \"#utility.yul\":10185:10186   */\n      dup5\n        /* \"#utility.yul\":10182:10255   */\n      eq\n        /* \"#utility.yul\":10178:10179   */\n      0x00\n        /* \"#utility.yul\":10175:10176   */\n      dup5\n        /* \"#utility.yul\":10171:10180   */\n      slt\n        /* \"#utility.yul\":10167:10256   */\n      and\n        /* \"#utility.yul\":10164:10279   */\n      iszero\n      tag_223\n      jumpi\n        /* \"#utility.yul\":10259:10277   */\n      tag_224\n      tag_113\n      jump\t// in\n    tag_224:\n        /* \"#utility.yul\":10164:10279   */\n    tag_223:\n        /* \"#utility.yul\":10429:10430   */\n      dup3\n        /* \"#utility.yul\":10420:10427   */\n      dup3\n        /* \"#utility.yul\":10415:10431   */\n      sdiv\n        /* \"#utility.yul\":10412:10413   */\n      dup5\n        /* \"#utility.yul\":10409:10432   */\n      eq\n        /* \"#utility.yul\":10389:10390   */\n      dup4\n        /* \"#utility.yul\":10382:10391   */\n      iszero\n        /* \"#utility.yul\":10362:10446   */\n      or\n        /* \"#utility.yul\":10339:10479   */\n      tag_225\n      jumpi\n        /* \"#utility.yul\":10459:10477   */\n      tag_226\n      tag_113\n      jump\t// in\n    tag_226:\n        /* \"#utility.yul\":10339:10479   */\n    tag_225:\n        /* \"#utility.yul\":9977:10486   */\n      pop\n        /* \"#utility.yul\":9930:10486   */\n      swap3\n      swap2\n      pop\n      pop\n      jump\t// out\n\n    auxdata: 0xa26469706673582212204ad8b29c767aabd784056647f75f67eab59836f77ab3ef774aabdb468a80450464736f6c634300081a0033\n}\n",
				"bytecode": {
					"linkReferences": {},
					"object": "60806040526802b5e3af16b18800005f55348015601a575f80fd5b503360035f6101000a81548173ffffffffffffffffffffffffffffffffffffffff021916908373ffffffffffffffffffffffffffffffffffffffff160217905550610bf6806100685f395ff3fe608060405260043610610054575f3560e01c8063098de820146100585780633ccfd60b146100825780638da5cb5b14610098578063b60d4288146100c2578063cc845996146100cc578063dc0d3dff14610108575b5f80fd5b348015610063575f80fd5b5061006c610144565b6040516100799190610680565b60405180910390f35b34801561008d575f80fd5b50610096610149565b005b3480156100a3575f80fd5b506100ac610381565b6040516100b991906106d8565b60405180910390f35b6100ca6103a6565b005b3480156100d7575f80fd5b506100f260048036038101906100ed919061071f565b610496565b6040516100ff9190610680565b60405180910390f35b348015610113575f80fd5b5061012e60048036038101906101299190610774565b6104ab565b60405161013b91906106d8565b60405180910390f35b5f5481565b60035f9054906101000a900473ffffffffffffffffffffffffffffffffffffffff1673ffffffffffffffffffffffffffffffffffffffff163373ffffffffffffffffffffffffffffffffffffffff16146101d8576040517f08c379a00000000000000000000000000000000000000000000000000000000081526004016101cf906107f9565b60405180910390fd5b5f5b600180549050811015610276575f600182815481106101fc576101fb610817565b5b905f5260205f20015f9054906101000a900473ffffffffffffffffffffffffffffffffffffffff1690505f60025f8373ffffffffffffffffffffffffffffffffffffffff1673ffffffffffffffffffffffffffffffffffffffff1681526020019081526020015f20819055505080806001019150506101da565b505f67ffffffffffffffff81111561029157610290610844565b5b6040519080825280602002602001820160405280156102bf5781602001602082028036833780820191505090505b50600190805190602001906102d59291906105c6565b505f3373ffffffffffffffffffffffffffffffffffffffff16476040516102fb9061089e565b5f6040518083038185875af1925050503d805f8114610335576040519150601f19603f3d011682016040523d82523d5f602084013e61033a565b606091505b505090508061037e576040517f08c379a0000000000000000000000000000000000000000000000000000000008152600401610375906108fc565b60405180910390fd5b50565b60035f9054906101000a900473ffffffffffffffffffffffffffffffffffffffff1681565b5f546103b1346104e6565b10156103f2576040517f08c379a00000000000000000000000000000000000000000000000000000000081526004016103e990610964565b60405180910390fd5b600133908060018154018082558091505060019003905f5260205f20015f9091909190916101000a81548173ffffffffffffffffffffffffffffffffffffffff021916908373ffffffffffffffffffffffffffffffffffffffff1602179055503460025f3373ffffffffffffffffffffffffffffffffffffffff1673ffffffffffffffffffffffffffffffffffffffff1681526020019081526020015f2081905550565b6002602052805f5260405f205f915090505481565b600181815481106104ba575f80fd5b905f5260205f20015f915054906101000a900473ffffffffffffffffffffffffffffffffffffffff1681565b5f806104f061051e565b90505f670de0b6b3a7640000828561050891906109af565b6105129190610a1d565b90508092505050919050565b5f8073694aa1769357215de4fac081bf1f309adc32530690505f8173ffffffffffffffffffffffffffffffffffffffff1663feaf968c6040518163ffffffff1660e01b815260040160a060405180830381865afa158015610581573d5f803e3d5ffd5b505050506040513d601f19601f820116820180604052508101906105a59190610ad3565b50505091505080670de0b6b3a76400006105bf9190610b4a565b9250505090565b828054828255905f5260205f2090810192821561063c579160200282015b8281111561063b578251825f6101000a81548173ffffffffffffffffffffffffffffffffffffffff021916908373ffffffffffffffffffffffffffffffffffffffff160217905550916020019190600101906105e4565b5b509050610649919061064d565b5090565b5b80821115610664575f815f90555060010161064e565b5090565b5f819050919050565b61067a81610668565b82525050565b5f6020820190506106935f830184610671565b92915050565b5f73ffffffffffffffffffffffffffffffffffffffff82169050919050565b5f6106c282610699565b9050919050565b6106d2816106b8565b82525050565b5f6020820190506106eb5f8301846106c9565b92915050565b5f80fd5b6106fe816106b8565b8114610708575f80fd5b50565b5f81359050610719816106f5565b92915050565b5f60208284031215610734576107336106f1565b5b5f6107418482850161070b565b91505092915050565b61075381610668565b811461075d575f80fd5b50565b5f8135905061076e8161074a565b92915050565b5f60208284031215610789576107886106f1565b5b5f61079684828501610760565b91505092915050565b5f82825260208201905092915050565b7f53656e646572206973206e6f74206f776e6572000000000000000000000000005f82015250565b5f6107e360138361079f565b91506107ee826107af565b602082019050919050565b5f6020820190508181035f830152610810816107d7565b9050919050565b7f4e487b71000000000000000000000000000000000000000000000000000000005f52603260045260245ffd5b7f4e487b71000000000000000000000000000000000000000000000000000000005f52604160045260245ffd5b5f81905092915050565b50565b5f6108895f83610871565b91506108948261087b565b5f82019050919050565b5f6108a88261087e565b9150819050919050565b7f43616c6c206661696c65640000000000000000000000000000000000000000005f82015250565b5f6108e6600b8361079f565b91506108f1826108b2565b602082019050919050565b5f6020820190508181035f830152610913816108da565b9050919050565b7f4469646e742073656e6420656e6f7567680000000000000000000000000000005f82015250565b5f61094e60118361079f565b91506109598261091a565b602082019050919050565b5f6020820190508181035f83015261097b81610942565b9050919050565b7f4e487b71000000000000000000000000000000000000000000000000000000005f52601160045260245ffd5b5f6109b982610668565b91506109c483610668565b92508282026109d281610668565b915082820484148315176109e9576109e8610982565b5b5092915050565b7f4e487b71000000000000000000000000000000000000000000000000000000005f52601260045260245ffd5b5f610a2782610668565b9150610a3283610668565b925082610a4257610a416109f0565b5b828204905092915050565b5f69ffffffffffffffffffff82169050919050565b610a6b81610a4d565b8114610a75575f80fd5b50565b5f81519050610a8681610a62565b92915050565b5f819050919050565b610a9e81610a8c565b8114610aa8575f80fd5b50565b5f81519050610ab981610a95565b92915050565b5f81519050610acd8161074a565b92915050565b5f805f805f60a08688031215610aec57610aeb6106f1565b5b5f610af988828901610a78565b9550506020610b0a88828901610aab565b9450506040610b1b88828901610abf565b9350506060610b2c88828901610abf565b9250506080610b3d88828901610a78565b9150509295509295909350565b5f610b5482610a8c565b9150610b5f83610a8c565b9250828202610b6d81610a8c565b91507f800000000000000000000000000000000000000000000000000000000000000084145f84121615610ba457610ba3610982565b5b8282058414831517610bb957610bb8610982565b5b509291505056fea26469706673582212204ad8b29c767aabd784056647f75f67eab59836f77ab3ef774aabdb468a80450464736f6c634300081a0033",
					"opcodes": "PUSH1 0x80 PUSH1 0x40 MSTORE PUSH9 0x2B5E3AF16B1880000 PUSH0 SSTORE CALLVALUE DUP1 ISZERO PUSH1 0x1A JUMPI PUSH0 DUP1 REVERT JUMPDEST POP CALLER PUSH1 0x3 PUSH0 PUSH2 0x100 EXP DUP2 SLOAD DUP2 PUSH20 0xFFFFFFFFFFFFFFFFFFFFFFFFFFFFFFFFFFFFFFFF MUL NOT AND SWAP1 DUP4 PUSH20 0xFFFFFFFFFFFFFFFFFFFFFFFFFFFFFFFFFFFFFFFF AND MUL OR SWAP1 SSTORE POP PUSH2 0xBF6 DUP1 PUSH2 0x68 PUSH0 CODECOPY PUSH0 RETURN INVALID PUSH1 0x80 PUSH1 0x40 MSTORE PUSH1 0x4 CALLDATASIZE LT PUSH2 0x54 JUMPI PUSH0 CALLDATALOAD PUSH1 0xE0 SHR DUP1 PUSH4 0x98DE820 EQ PUSH2 0x58 JUMPI DUP1 PUSH4 0x3CCFD60B EQ PUSH2 0x82 JUMPI DUP1 PUSH4 0x8DA5CB5B EQ PUSH2 0x98 JUMPI DUP1 PUSH4 0xB60D4288 EQ PUSH2 0xC2 JUMPI DUP1 PUSH4 0xCC845996 EQ PUSH2 0xCC JUMPI DUP1 PUSH4 0xDC0D3DFF EQ PUSH2 0x108 JUMPI JUMPDEST PUSH0 DUP1 REVERT JUMPDEST CALLVALUE DUP1 ISZERO PUSH2 0x63 JUMPI PUSH0 DUP1 REVERT JUMPDEST POP PUSH2 0x6C PUSH2 0x144 JUMP JUMPDEST PUSH1 0x40 MLOAD PUSH2 0x79 SWAP2 SWAP1 PUSH2 0x680 JUMP JUMPDEST PUSH1 0x40 MLOAD DUP1 SWAP2 SUB SWAP1 RETURN JUMPDEST CALLVALUE DUP1 ISZERO PUSH2 0x8D JUMPI PUSH0 DUP1 REVERT JUMPDEST POP PUSH2 0x96 PUSH2 0x149 JUMP JUMPDEST STOP JUMPDEST CALLVALUE DUP1 ISZERO PUSH2 0xA3 JUMPI PUSH0 DUP1 REVERT JUMPDEST POP PUSH2 0xAC PUSH2 0x381 JUMP JUMPDEST PUSH1 0x40 MLOAD PUSH2 0xB9 SWAP2 SWAP1 PUSH2 0x6D8 JUMP JUMPDEST PUSH1 0x40 MLOAD DUP1 SWAP2 SUB SWAP1 RETURN JUMPDEST PUSH2 0xCA PUSH2 0x3A6 JUMP JUMPDEST STOP JUMPDEST CALLVALUE DUP1 ISZERO PUSH2 0xD7 JUMPI PUSH0 DUP1 REVERT JUMPDEST POP PUSH2 0xF2 PUSH1 0x4 DUP1 CALLDATASIZE SUB DUP2 ADD SWAP1 PUSH2 0xED SWAP2 SWAP1 PUSH2 0x71F JUMP JUMPDEST PUSH2 0x496 JUMP JUMPDEST PUSH1 0x40 MLOAD PUSH2 0xFF SWAP2 SWAP1 PUSH2 0x680 JUMP JUMPDEST PUSH1 0x40 MLOAD DUP1 SWAP2 SUB SWAP1 RETURN JUMPDEST CALLVALUE DUP1 ISZERO PUSH2 0x113 JUMPI PUSH0 DUP1 REVERT JUMPDEST POP PUSH2 0x12E PUSH1 0x4 DUP1 CALLDATASIZE SUB DUP2 ADD SWAP1 PUSH2 0x129 SWAP2 SWAP1 PUSH2 0x774 JUMP JUMPDEST PUSH2 0x4AB JUMP JUMPDEST PUSH1 0x40 MLOAD PUSH2 0x13B SWAP2 SWAP1 PUSH2 0x6D8 JUMP JUMPDEST PUSH1 0x40 MLOAD DUP1 SWAP2 SUB SWAP1 RETURN JUMPDEST PUSH0 SLOAD DUP2 JUMP JUMPDEST PUSH1 0x3 PUSH0 SWAP1 SLOAD SWAP1 PUSH2 0x100 EXP SWAP1 DIV PUSH20 0xFFFFFFFFFFFFFFFFFFFFFFFFFFFFFFFFFFFFFFFF AND PUSH20 0xFFFFFFFFFFFFFFFFFFFFFFFFFFFFFFFFFFFFFFFF AND CALLER PUSH20 0xFFFFFFFFFFFFFFFFFFFFFFFFFFFFFFFFFFFFFFFF AND EQ PUSH2 0x1D8 JUMPI PUSH1 0x40 MLOAD PUSH32 0x8C379A000000000000000000000000000000000000000000000000000000000 DUP2 MSTORE PUSH1 0x4 ADD PUSH2 0x1CF SWAP1 PUSH2 0x7F9 JUMP JUMPDEST PUSH1 0x40 MLOAD DUP1 SWAP2 SUB SWAP1 REVERT JUMPDEST PUSH0 JUMPDEST PUSH1 0x1 DUP1 SLOAD SWAP1 POP DUP2 LT ISZERO PUSH2 0x276 JUMPI PUSH0 PUSH1 0x1 DUP3 DUP2 SLOAD DUP2 LT PUSH2 0x1FC JUMPI PUSH2 0x1FB PUSH2 0x817 JUMP JUMPDEST JUMPDEST SWAP1 PUSH0 MSTORE PUSH1 0x20 PUSH0 KECCAK256 ADD PUSH0 SWAP1 SLOAD SWAP1 PUSH2 0x100 EXP SWAP1 DIV PUSH20 0xFFFFFFFFFFFFFFFFFFFFFFFFFFFFFFFFFFFFFFFF AND SWAP1 POP PUSH0 PUSH1 0x2 PUSH0 DUP4 PUSH20 0xFFFFFFFFFFFFFFFFFFFFFFFFFFFFFFFFFFFFFFFF AND PUSH20 0xFFFFFFFFFFFFFFFFFFFFFFFFFFFFFFFFFFFFFFFF AND DUP2 MSTORE PUSH1 0x20 ADD SWAP1 DUP2 MSTORE PUSH1 0x20 ADD PUSH0 KECCAK256 DUP2 SWAP1 SSTORE POP POP DUP1 DUP1 PUSH1 0x1 ADD SWAP2 POP POP PUSH2 0x1DA JUMP JUMPDEST POP PUSH0 PUSH8 0xFFFFFFFFFFFFFFFF DUP2 GT ISZERO PUSH2 0x291 JUMPI PUSH2 0x290 PUSH2 0x844 JUMP JUMPDEST JUMPDEST PUSH1 0x40 MLOAD SWAP1 DUP1 DUP3 MSTORE DUP1 PUSH1 0x20 MUL PUSH1 0x20 ADD DUP3 ADD PUSH1 0x40 MSTORE DUP1 ISZERO PUSH2 0x2BF JUMPI DUP2 PUSH1 0x20 ADD PUSH1 0x20 DUP3 MUL DUP1 CALLDATASIZE DUP4 CALLDATACOPY DUP1 DUP3 ADD SWAP2 POP POP SWAP1 POP JUMPDEST POP PUSH1 0x1 SWAP1 DUP1 MLOAD SWAP1 PUSH1 0x20 ADD SWAP1 PUSH2 0x2D5 SWAP3 SWAP2 SWAP1 PUSH2 0x5C6 JUMP JUMPDEST POP PUSH0 CALLER PUSH20 0xFFFFFFFFFFFFFFFFFFFFFFFFFFFFFFFFFFFFFFFF AND SELFBALANCE PUSH1 0x40 MLOAD PUSH2 0x2FB SWAP1 PUSH2 0x89E JUMP JUMPDEST PUSH0 PUSH1 0x40 MLOAD DUP1 DUP4 SUB DUP2 DUP6 DUP8 GAS CALL SWAP3 POP POP POP RETURNDATASIZE DUP1 PUSH0 DUP2 EQ PUSH2 0x335 JUMPI PUSH1 0x40 MLOAD SWAP2 POP PUSH1 0x1F NOT PUSH1 0x3F RETURNDATASIZE ADD AND DUP3 ADD PUSH1 0x40 MSTORE RETURNDATASIZE DUP3 MSTORE RETURNDATASIZE PUSH0 PUSH1 0x20 DUP5 ADD RETURNDATACOPY PUSH2 0x33A JUMP JUMPDEST PUSH1 0x60 SWAP2 POP JUMPDEST POP POP SWAP1 POP DUP1 PUSH2 0x37E JUMPI PUSH1 0x40 MLOAD PUSH32 0x8C379A000000000000000000000000000000000000000000000000000000000 DUP2 MSTORE PUSH1 0x4 ADD PUSH2 0x375 SWAP1 PUSH2 0x8FC JUMP JUMPDEST PUSH1 0x40 MLOAD DUP1 SWAP2 SUB SWAP1 REVERT JUMPDEST POP JUMP JUMPDEST PUSH1 0x3 PUSH0 SWAP1 SLOAD SWAP1 PUSH2 0x100 EXP SWAP1 DIV PUSH20 0xFFFFFFFFFFFFFFFFFFFFFFFFFFFFFFFFFFFFFFFF AND DUP2 JUMP JUMPDEST PUSH0 SLOAD PUSH2 0x3B1 CALLVALUE PUSH2 0x4E6 JUMP JUMPDEST LT ISZERO PUSH2 0x3F2 JUMPI PUSH1 0x40 MLOAD PUSH32 0x8C379A000000000000000000000000000000000000000000000000000000000 DUP2 MSTORE PUSH1 0x4 ADD PUSH2 0x3E9 SWAP1 PUSH2 0x964 JUMP JUMPDEST PUSH1 0x40 MLOAD DUP1 SWAP2 SUB SWAP1 REVERT JUMPDEST PUSH1 0x1 CALLER SWAP1 DUP1 PUSH1 0x1 DUP2 SLOAD ADD DUP1 DUP3 SSTORE DUP1 SWAP2 POP POP PUSH1 0x1 SWAP1 SUB SWAP1 PUSH0 MSTORE PUSH1 0x20 PUSH0 KECCAK256 ADD PUSH0 SWAP1 SWAP2 SWAP1 SWAP2 SWAP1 SWAP2 PUSH2 0x100 EXP DUP2 SLOAD DUP2 PUSH20 0xFFFFFFFFFFFFFFFFFFFFFFFFFFFFFFFFFFFFFFFF MUL NOT AND SWAP1 DUP4 PUSH20 0xFFFFFFFFFFFFFFFFFFFFFFFFFFFFFFFFFFFFFFFF AND MUL OR SWAP1 SSTORE POP CALLVALUE PUSH1 0x2 PUSH0 CALLER PUSH20 0xFFFFFFFFFFFFFFFFFFFFFFFFFFFFFFFFFFFFFFFF AND PUSH20 0xFFFFFFFFFFFFFFFFFFFFFFFFFFFFFFFFFFFFFFFF AND DUP2 MSTORE PUSH1 0x20 ADD SWAP1 DUP2 MSTORE PUSH1 0x20 ADD PUSH0 KECCAK256 DUP2 SWAP1 SSTORE POP JUMP JUMPDEST PUSH1 0x2 PUSH1 0x20 MSTORE DUP1 PUSH0 MSTORE PUSH1 0x40 PUSH0 KECCAK256 PUSH0 SWAP2 POP SWAP1 POP SLOAD DUP2 JUMP JUMPDEST PUSH1 0x1 DUP2 DUP2 SLOAD DUP2 LT PUSH2 0x4BA JUMPI PUSH0 DUP1 REVERT JUMPDEST SWAP1 PUSH0 MSTORE PUSH1 0x20 PUSH0 KECCAK256 ADD PUSH0 SWAP2 POP SLOAD SWAP1 PUSH2 0x100 EXP SWAP1 DIV PUSH20 0xFFFFFFFFFFFFFFFFFFFFFFFFFFFFFFFFFFFFFFFF AND DUP2 JUMP JUMPDEST PUSH0 DUP1 PUSH2 0x4F0 PUSH2 0x51E JUMP JUMPDEST SWAP1 POP PUSH0 PUSH8 0xDE0B6B3A7640000 DUP3 DUP6 PUSH2 0x508 SWAP2 SWAP1 PUSH2 0x9AF JUMP JUMPDEST PUSH2 0x512 SWAP2 SWAP1 PUSH2 0xA1D JUMP JUMPDEST SWAP1 POP DUP1 SWAP3 POP POP POP SWAP2 SWAP1 POP JUMP JUMPDEST PUSH0 DUP1 PUSH20 0x694AA1769357215DE4FAC081BF1F309ADC325306 SWAP1 POP PUSH0 DUP2 PUSH20 0xFFFFFFFFFFFFFFFFFFFFFFFFFFFFFFFFFFFFFFFF AND PUSH4 0xFEAF968C PUSH1 0x40 MLOAD DUP2 PUSH4 0xFFFFFFFF AND PUSH1 0xE0 SHL DUP2 MSTORE PUSH1 0x4 ADD PUSH1 0xA0 PUSH1 0x40 MLOAD DUP1 DUP4 SUB DUP2 DUP7 GAS STATICCALL ISZERO DUP1 ISZERO PUSH2 0x581 JUMPI RETURNDATASIZE PUSH0 DUP1 RETURNDATACOPY RETURNDATASIZE PUSH0 REVERT JUMPDEST POP POP POP POP PUSH1 0x40 MLOAD RETURNDATASIZE PUSH1 0x1F NOT PUSH1 0x1F DUP3 ADD AND DUP3 ADD DUP1 PUSH1 0x40 MSTORE POP DUP2 ADD SWAP1 PUSH2 0x5A5 SWAP2 SWAP1 PUSH2 0xAD3 JUMP JUMPDEST POP POP POP SWAP2 POP POP DUP1 PUSH8 0xDE0B6B3A7640000 PUSH2 0x5BF SWAP2 SWAP1 PUSH2 0xB4A JUMP JUMPDEST SWAP3 POP POP POP SWAP1 JUMP JUMPDEST DUP3 DUP1 SLOAD DUP3 DUP3 SSTORE SWAP1 PUSH0 MSTORE PUSH1 0x20 PUSH0 KECCAK256 SWAP1 DUP2 ADD SWAP3 DUP3 ISZERO PUSH2 0x63C JUMPI SWAP2 PUSH1 0x20 MUL DUP3 ADD JUMPDEST DUP3 DUP2 GT ISZERO PUSH2 0x63B JUMPI DUP3 MLOAD DUP3 PUSH0 PUSH2 0x100 EXP DUP2 SLOAD DUP2 PUSH20 0xFFFFFFFFFFFFFFFFFFFFFFFFFFFFFFFFFFFFFFFF MUL NOT AND SWAP1 DUP4 PUSH20 0xFFFFFFFFFFFFFFFFFFFFFFFFFFFFFFFFFFFFFFFF AND MUL OR SWAP1 SSTORE POP SWAP2 PUSH1 0x20 ADD SWAP2 SWAP1 PUSH1 0x1 ADD SWAP1 PUSH2 0x5E4 JUMP JUMPDEST JUMPDEST POP SWAP1 POP PUSH2 0x649 SWAP2 SWAP1 PUSH2 0x64D JUMP JUMPDEST POP SWAP1 JUMP JUMPDEST JUMPDEST DUP1 DUP3 GT ISZERO PUSH2 0x664 JUMPI PUSH0 DUP2 PUSH0 SWAP1 SSTORE POP PUSH1 0x1 ADD PUSH2 0x64E JUMP JUMPDEST POP SWAP1 JUMP JUMPDEST PUSH0 DUP2 SWAP1 POP SWAP2 SWAP1 POP JUMP JUMPDEST PUSH2 0x67A DUP2 PUSH2 0x668 JUMP JUMPDEST DUP3 MSTORE POP POP JUMP JUMPDEST PUSH0 PUSH1 0x20 DUP3 ADD SWAP1 POP PUSH2 0x693 PUSH0 DUP4 ADD DUP5 PUSH2 0x671 JUMP JUMPDEST SWAP3 SWAP2 POP POP JUMP JUMPDEST PUSH0 PUSH20 0xFFFFFFFFFFFFFFFFFFFFFFFFFFFFFFFFFFFFFFFF DUP3 AND SWAP1 POP SWAP2 SWAP1 POP JUMP JUMPDEST PUSH0 PUSH2 0x6C2 DUP3 PUSH2 0x699 JUMP JUMPDEST SWAP1 POP SWAP2 SWAP1 POP JUMP JUMPDEST PUSH2 0x6D2 DUP2 PUSH2 0x6B8 JUMP JUMPDEST DUP3 MSTORE POP POP JUMP JUMPDEST PUSH0 PUSH1 0x20 DUP3 ADD SWAP1 POP PUSH2 0x6EB PUSH0 DUP4 ADD DUP5 PUSH2 0x6C9 JUMP JUMPDEST SWAP3 SWAP2 POP POP JUMP JUMPDEST PUSH0 DUP1 REVERT JUMPDEST PUSH2 0x6FE DUP2 PUSH2 0x6B8 JUMP JUMPDEST DUP2 EQ PUSH2 0x708 JUMPI PUSH0 DUP1 REVERT JUMPDEST POP JUMP JUMPDEST PUSH0 DUP2 CALLDATALOAD SWAP1 POP PUSH2 0x719 DUP2 PUSH2 0x6F5 JUMP JUMPDEST SWAP3 SWAP2 POP POP JUMP JUMPDEST PUSH0 PUSH1 0x20 DUP3 DUP5 SUB SLT ISZERO PUSH2 0x734 JUMPI PUSH2 0x733 PUSH2 0x6F1 JUMP JUMPDEST JUMPDEST PUSH0 PUSH2 0x741 DUP5 DUP3 DUP6 ADD PUSH2 0x70B JUMP JUMPDEST SWAP2 POP POP SWAP3 SWAP2 POP POP JUMP JUMPDEST PUSH2 0x753 DUP2 PUSH2 0x668 JUMP JUMPDEST DUP2 EQ PUSH2 0x75D JUMPI PUSH0 DUP1 REVERT JUMPDEST POP JUMP JUMPDEST PUSH0 DUP2 CALLDATALOAD SWAP1 POP PUSH2 0x76E DUP2 PUSH2 0x74A JUMP JUMPDEST SWAP3 SWAP2 POP POP JUMP JUMPDEST PUSH0 PUSH1 0x20 DUP3 DUP5 SUB SLT ISZERO PUSH2 0x789 JUMPI PUSH2 0x788 PUSH2 0x6F1 JUMP JUMPDEST JUMPDEST PUSH0 PUSH2 0x796 DUP5 DUP3 DUP6 ADD PUSH2 0x760 JUMP JUMPDEST SWAP2 POP POP SWAP3 SWAP2 POP POP JUMP JUMPDEST PUSH0 DUP3 DUP3 MSTORE PUSH1 0x20 DUP3 ADD SWAP1 POP SWAP3 SWAP2 POP POP JUMP JUMPDEST PUSH32 0x53656E646572206973206E6F74206F776E657200000000000000000000000000 PUSH0 DUP3 ADD MSTORE POP JUMP JUMPDEST PUSH0 PUSH2 0x7E3 PUSH1 0x13 DUP4 PUSH2 0x79F JUMP JUMPDEST SWAP2 POP PUSH2 0x7EE DUP3 PUSH2 0x7AF JUMP JUMPDEST PUSH1 0x20 DUP3 ADD SWAP1 POP SWAP2 SWAP1 POP JUMP JUMPDEST PUSH0 PUSH1 0x20 DUP3 ADD SWAP1 POP DUP2 DUP2 SUB PUSH0 DUP4 ADD MSTORE PUSH2 0x810 DUP2 PUSH2 0x7D7 JUMP JUMPDEST SWAP1 POP SWAP2 SWAP1 POP JUMP JUMPDEST PUSH32 0x4E487B7100000000000000000000000000000000000000000000000000000000 PUSH0 MSTORE PUSH1 0x32 PUSH1 0x4 MSTORE PUSH1 0x24 PUSH0 REVERT JUMPDEST PUSH32 0x4E487B7100000000000000000000000000000000000000000000000000000000 PUSH0 MSTORE PUSH1 0x41 PUSH1 0x4 MSTORE PUSH1 0x24 PUSH0 REVERT JUMPDEST PUSH0 DUP2 SWAP1 POP SWAP3 SWAP2 POP POP JUMP JUMPDEST POP JUMP JUMPDEST PUSH0 PUSH2 0x889 PUSH0 DUP4 PUSH2 0x871 JUMP JUMPDEST SWAP2 POP PUSH2 0x894 DUP3 PUSH2 0x87B JUMP JUMPDEST PUSH0 DUP3 ADD SWAP1 POP SWAP2 SWAP1 POP JUMP JUMPDEST PUSH0 PUSH2 0x8A8 DUP3 PUSH2 0x87E JUMP JUMPDEST SWAP2 POP DUP2 SWAP1 POP SWAP2 SWAP1 POP JUMP JUMPDEST PUSH32 0x43616C6C206661696C6564000000000000000000000000000000000000000000 PUSH0 DUP3 ADD MSTORE POP JUMP JUMPDEST PUSH0 PUSH2 0x8E6 PUSH1 0xB DUP4 PUSH2 0x79F JUMP JUMPDEST SWAP2 POP PUSH2 0x8F1 DUP3 PUSH2 0x8B2 JUMP JUMPDEST PUSH1 0x20 DUP3 ADD SWAP1 POP SWAP2 SWAP1 POP JUMP JUMPDEST PUSH0 PUSH1 0x20 DUP3 ADD SWAP1 POP DUP2 DUP2 SUB PUSH0 DUP4 ADD MSTORE PUSH2 0x913 DUP2 PUSH2 0x8DA JUMP JUMPDEST SWAP1 POP SWAP2 SWAP1 POP JUMP JUMPDEST PUSH32 0x4469646E742073656E6420656E6F756768000000000000000000000000000000 PUSH0 DUP3 ADD MSTORE POP JUMP JUMPDEST PUSH0 PUSH2 0x94E PUSH1 0x11 DUP4 PUSH2 0x79F JUMP JUMPDEST SWAP2 POP PUSH2 0x959 DUP3 PUSH2 0x91A JUMP JUMPDEST PUSH1 0x20 DUP3 ADD SWAP1 POP SWAP2 SWAP1 POP JUMP JUMPDEST PUSH0 PUSH1 0x20 DUP3 ADD SWAP1 POP DUP2 DUP2 SUB PUSH0 DUP4 ADD MSTORE PUSH2 0x97B DUP2 PUSH2 0x942 JUMP JUMPDEST SWAP1 POP SWAP2 SWAP1 POP JUMP JUMPDEST PUSH32 0x4E487B7100000000000000000000000000000000000000000000000000000000 PUSH0 MSTORE PUSH1 0x11 PUSH1 0x4 MSTORE PUSH1 0x24 PUSH0 REVERT JUMPDEST PUSH0 PUSH2 0x9B9 DUP3 PUSH2 0x668 JUMP JUMPDEST SWAP2 POP PUSH2 0x9C4 DUP4 PUSH2 0x668 JUMP JUMPDEST SWAP3 POP DUP3 DUP3 MUL PUSH2 0x9D2 DUP2 PUSH2 0x668 JUMP JUMPDEST SWAP2 POP DUP3 DUP3 DIV DUP5 EQ DUP4 ISZERO OR PUSH2 0x9E9 JUMPI PUSH2 0x9E8 PUSH2 0x982 JUMP JUMPDEST JUMPDEST POP SWAP3 SWAP2 POP POP JUMP JUMPDEST PUSH32 0x4E487B7100000000000000000000000000000000000000000000000000000000 PUSH0 MSTORE PUSH1 0x12 PUSH1 0x4 MSTORE PUSH1 0x24 PUSH0 REVERT JUMPDEST PUSH0 PUSH2 0xA27 DUP3 PUSH2 0x668 JUMP JUMPDEST SWAP2 POP PUSH2 0xA32 DUP4 PUSH2 0x668 JUMP JUMPDEST SWAP3 POP DUP3 PUSH2 0xA42 JUMPI PUSH2 0xA41 PUSH2 0x9F0 JUMP JUMPDEST JUMPDEST DUP3 DUP3 DIV SWAP1 POP SWAP3 SWAP2 POP POP JUMP JUMPDEST PUSH0 PUSH10 0xFFFFFFFFFFFFFFFFFFFF DUP3 AND SWAP1 POP SWAP2 SWAP1 POP JUMP JUMPDEST PUSH2 0xA6B DUP2 PUSH2 0xA4D JUMP JUMPDEST DUP2 EQ PUSH2 0xA75 JUMPI PUSH0 DUP1 REVERT JUMPDEST POP JUMP JUMPDEST PUSH0 DUP2 MLOAD SWAP1 POP PUSH2 0xA86 DUP2 PUSH2 0xA62 JUMP JUMPDEST SWAP3 SWAP2 POP POP JUMP JUMPDEST PUSH0 DUP2 SWAP1 POP SWAP2 SWAP1 POP JUMP JUMPDEST PUSH2 0xA9E DUP2 PUSH2 0xA8C JUMP JUMPDEST DUP2 EQ PUSH2 0xAA8 JUMPI PUSH0 DUP1 REVERT JUMPDEST POP JUMP JUMPDEST PUSH0 DUP2 MLOAD SWAP1 POP PUSH2 0xAB9 DUP2 PUSH2 0xA95 JUMP JUMPDEST SWAP3 SWAP2 POP POP JUMP JUMPDEST PUSH0 DUP2 MLOAD SWAP1 POP PUSH2 0xACD DUP2 PUSH2 0x74A JUMP JUMPDEST SWAP3 SWAP2 POP POP JUMP JUMPDEST PUSH0 DUP1 PUSH0 DUP1 PUSH0 PUSH1 0xA0 DUP7 DUP9 SUB SLT ISZERO PUSH2 0xAEC JUMPI PUSH2 0xAEB PUSH2 0x6F1 JUMP JUMPDEST JUMPDEST PUSH0 PUSH2 0xAF9 DUP9 DUP3 DUP10 ADD PUSH2 0xA78 JUMP JUMPDEST SWAP6 POP POP PUSH1 0x20 PUSH2 0xB0A DUP9 DUP3 DUP10 ADD PUSH2 0xAAB JUMP JUMPDEST SWAP5 POP POP PUSH1 0x40 PUSH2 0xB1B DUP9 DUP3 DUP10 ADD PUSH2 0xABF JUMP JUMPDEST SWAP4 POP POP PUSH1 0x60 PUSH2 0xB2C DUP9 DUP3 DUP10 ADD PUSH2 0xABF JUMP JUMPDEST SWAP3 POP POP PUSH1 0x80 PUSH2 0xB3D DUP9 DUP3 DUP10 ADD PUSH2 0xA78 JUMP JUMPDEST SWAP2 POP POP SWAP3 SWAP6 POP SWAP3 SWAP6 SWAP1 SWAP4 POP JUMP JUMPDEST PUSH0 PUSH2 0xB54 DUP3 PUSH2 0xA8C JUMP JUMPDEST SWAP2 POP PUSH2 0xB5F DUP4 PUSH2 0xA8C JUMP JUMPDEST SWAP3 POP DUP3 DUP3 MUL PUSH2 0xB6D DUP2 PUSH2 0xA8C JUMP JUMPDEST SWAP2 POP PUSH32 0x8000000000000000000000000000000000000000000000000000000000000000 DUP5 EQ PUSH0 DUP5 SLT AND ISZERO PUSH2 0xBA4 JUMPI PUSH2 0xBA3 PUSH2 0x982 JUMP JUMPDEST JUMPDEST DUP3 DUP3 SDIV DUP5 EQ DUP4 ISZERO OR PUSH2 0xBB9 JUMPI PUSH2 0xBB8 PUSH2 0x982 JUMP JUMPDEST JUMPDEST POP SWAP3 SWAP2 POP POP JUMP INVALID LOG2 PUSH5 0x6970667358 0x22 SLT KECCAK256 BLOBBASEFEE 0xD8 0xB2 SWAP13 PUSH23 0x7AABD784056647F75F67EAB59836F77AB3EF774AABDB46 DUP11 DUP1 GASLIMIT DIV PUSH5 0x736F6C6343 STOP ADDMOD BYTE STOP CALLER "
				},
				"gasEstimates": {
					"creation": {
						"codeDepositCost": "612400",
						"executionCost": "47013",
						"totalCost": "659413"
					},
					"external": {
						"amountFundedByEachFunder(address)": "2868",
						"fund()": "infinite",
						"funders(uint256)": "5032",
						"minimumUsd()": "2402",
						"owner()": "2530",
						"withdraw()": "infinite"
					}
				},
				"methodIdentifiers": {
					"amountFundedByEachFunder(address)": "cc845996",
					"fund()": "b60d4288",
					"funders(uint256)": "dc0d3dff",
					"minimumUsd()": "098de820",
					"owner()": "8da5cb5b",
					"withdraw()": "3ccfd60b"
				}
			},
			"storageLayout": {
				"storage": [
					{
						"astId": 56,
						"contract": "contracts/FundMe.sol:FundMe",
						"label": "minimumUsd",
						"offset": 0,
						"slot": "0",
						"type": "t_uint256"
					},
					{
						"astId": 59,
						"contract": "contracts/FundMe.sol:FundMe",
						"label": "funders",
						"offset": 0,
						"slot": "1",
						"type": "t_array(t_address)dyn_storage"
					},
					{
						"astId": 63,
						"contract": "contracts/FundMe.sol:FundMe",
						"label": "amountFundedByEachFunder",
						"offset": 0,
						"slot": "2",
						"type": "t_mapping(t_address,t_uint256)"
					},
					{
						"astId": 65,
						"contract": "contracts/FundMe.sol:FundMe",
						"label": "owner",
						"offset": 0,
						"slot": "3",
						"type": "t_address"
					}
				],
				"types": {
					"t_address": {
						"encoding": "inplace",
						"label": "address",
						"numberOfBytes": "20"
					},
					"t_array(t_address)dyn_storage": {
						"base": "t_address",
						"encoding": "dynamic_array",
						"label": "address[]",
						"numberOfBytes": "32"
					},
					"t_mapping(t_address,t_uint256)": {
						"encoding": "mapping",
						"key": "t_address",
						"label": "mapping(address => uint256)",
						"numberOfBytes": "32",
						"value": "t_uint256"
					},
					"t_uint256": {
						"encoding": "inplace",
						"label": "uint256",
						"numberOfBytes": "32"
					}
				}
			},
			"userdoc": {
				"kind": "user",
				"methods": {},
				"version": 1
			}
		}
	}
}